{
  "contractName": "KollectRoles_V1",
  "abi": [
    {
      "anonymous": false,
      "inputs": [
        {
          "indexed": true,
          "internalType": "bytes32",
          "name": "role",
          "type": "bytes32"
        },
        {
          "indexed": true,
          "internalType": "bytes32",
          "name": "previousAdminRole",
          "type": "bytes32"
        },
        {
          "indexed": true,
          "internalType": "bytes32",
          "name": "newAdminRole",
          "type": "bytes32"
        }
      ],
      "name": "RoleAdminChanged",
      "type": "event"
    },
    {
      "anonymous": false,
      "inputs": [
        {
          "indexed": true,
          "internalType": "bytes32",
          "name": "role",
          "type": "bytes32"
        },
        {
          "indexed": true,
          "internalType": "address",
          "name": "account",
          "type": "address"
        },
        {
          "indexed": true,
          "internalType": "address",
          "name": "sender",
          "type": "address"
        }
      ],
      "name": "RoleGranted",
      "type": "event"
    },
    {
      "anonymous": false,
      "inputs": [
        {
          "indexed": true,
          "internalType": "bytes32",
          "name": "role",
          "type": "bytes32"
        },
        {
          "indexed": true,
          "internalType": "address",
          "name": "account",
          "type": "address"
        },
        {
          "indexed": true,
          "internalType": "address",
          "name": "sender",
          "type": "address"
        }
      ],
      "name": "RoleRevoked",
      "type": "event"
    },
    {
      "inputs": [],
      "name": "BURNER_ROLE",
      "outputs": [
        {
          "internalType": "bytes32",
          "name": "",
          "type": "bytes32"
        }
      ],
      "stateMutability": "view",
      "type": "function"
    },
    {
      "inputs": [],
      "name": "DEFAULT_ADMIN_ROLE",
      "outputs": [
        {
          "internalType": "bytes32",
          "name": "",
          "type": "bytes32"
        }
      ],
      "stateMutability": "view",
      "type": "function"
    },
    {
      "inputs": [],
      "name": "MANAGER_ROLE",
      "outputs": [
        {
          "internalType": "bytes32",
          "name": "",
          "type": "bytes32"
        }
      ],
      "stateMutability": "view",
      "type": "function"
    },
    {
      "inputs": [],
      "name": "MINTER_ROLE",
      "outputs": [
        {
          "internalType": "bytes32",
          "name": "",
          "type": "bytes32"
        }
      ],
      "stateMutability": "view",
      "type": "function"
    },
    {
      "inputs": [
        {
          "internalType": "bytes32",
          "name": "role",
          "type": "bytes32"
        }
      ],
      "name": "getRoleAdmin",
      "outputs": [
        {
          "internalType": "bytes32",
          "name": "",
          "type": "bytes32"
        }
      ],
      "stateMutability": "view",
      "type": "function"
    },
    {
      "inputs": [
        {
          "internalType": "bytes32",
          "name": "role",
          "type": "bytes32"
        },
        {
          "internalType": "address",
          "name": "account",
          "type": "address"
        }
      ],
      "name": "grantRole",
      "outputs": [],
      "stateMutability": "nonpayable",
      "type": "function"
    },
    {
      "inputs": [
        {
          "internalType": "bytes32",
          "name": "role",
          "type": "bytes32"
        },
        {
          "internalType": "address",
          "name": "account",
          "type": "address"
        }
      ],
      "name": "hasRole",
      "outputs": [
        {
          "internalType": "bool",
          "name": "",
          "type": "bool"
        }
      ],
      "stateMutability": "view",
      "type": "function"
    },
    {
      "inputs": [
        {
          "internalType": "bytes32",
          "name": "role",
          "type": "bytes32"
        },
        {
          "internalType": "address",
          "name": "account",
          "type": "address"
        }
      ],
      "name": "renounceRole",
      "outputs": [],
      "stateMutability": "nonpayable",
      "type": "function"
    },
    {
      "inputs": [
        {
          "internalType": "bytes32",
          "name": "role",
          "type": "bytes32"
        },
        {
          "internalType": "address",
          "name": "account",
          "type": "address"
        }
      ],
      "name": "revokeRole",
      "outputs": [],
      "stateMutability": "nonpayable",
      "type": "function"
    },
    {
      "inputs": [
        {
          "internalType": "bytes4",
          "name": "interfaceId",
          "type": "bytes4"
        }
      ],
      "name": "supportsInterface",
      "outputs": [
        {
          "internalType": "bool",
          "name": "",
          "type": "bool"
        }
      ],
      "stateMutability": "view",
      "type": "function"
    }
  ],
  "bytecode": "0x608060405234801561001057600080fd5b5061080e806100206000396000f3fe608060405234801561001057600080fd5b506004361061009e5760003560e01c806391d148541161006657806391d148541461014b578063a217fddf1461015e578063d539139314610166578063d547741f1461018d578063ec87621c146101a057600080fd5b806301ffc9a7146100a3578063248a9ca3146100cb578063282c51f3146100fc5780632f2ff15d1461012357806336568abe14610138575b600080fd5b6100b66100b13660046105f1565b6101c7565b60405190151581526020015b60405180910390f35b6100ee6100d936600461061b565b60009081526065602052604090206001015490565b6040519081526020016100c2565b6100ee7ffc62fea6a5e4cccf0e06db6becc35bd2d235b84b498198c31e38279b88a6943981565b610136610131366004610634565b6101fe565b005b610136610146366004610634565b610229565b6100b6610159366004610634565b6102ac565b6100ee600081565b6100ee7f84b9b0103c29b155cfb04ab924f78fab34313f21be444e0dcd11c3094b5e3c5c81565b61013661019b366004610634565b6102d7565b6100ee7fb6d62907b9a92d787c305b8b4e7a79484f55b06db4469a4811052ec65ae441c581565b60006001600160e01b03198216637965db0b60e01b14806101f857506301ffc9a760e01b6001600160e01b03198316145b92915050565b60008281526065602052604090206001015461021a81336102fd565b6102248383610361565b505050565b6001600160a01b038116331461029e5760405162461bcd60e51b815260206004820152602f60248201527f416363657373436f6e74726f6c3a2063616e206f6e6c792072656e6f756e636560448201526e103937b632b9903337b91039b2b63360891b60648201526084015b60405180910390fd5b6102a882826103e7565b5050565b60009182526065602090815260408084206001600160a01b0393909316845291905290205460ff1690565b6000828152606560205260409020600101546102f381336102fd565b61022483836103e7565b61030782826102ac565b6102a85761031f816001600160a01b0316601461044e565b61032a83602061044e565b60405160200161033b9291906106a0565b60408051601f198184030181529082905262461bcd60e51b825261029591600401610715565b61036b82826102ac565b6102a85760008281526065602090815260408083206001600160a01b03851684529091529020805460ff191660011790556103a33390565b6001600160a01b0316816001600160a01b0316837f2f8788117e7eff1d82e926ec794901d17c78024a50270940304540a733656f0d60405160405180910390a45050565b6103f182826102ac565b156102a85760008281526065602090815260408083206001600160a01b0385168085529252808320805460ff1916905551339285917ff6391f5c32d9c69d2a47ea670b442974b53935d1edc7fd64eb21e047a839171b9190a45050565b6060600061045d83600261075e565b61046890600261077d565b67ffffffffffffffff81111561048057610480610795565b6040519080825280601f01601f1916602001820160405280156104aa576020820181803683370190505b509050600360fc1b816000815181106104c5576104c56107ab565b60200101906001600160f81b031916908160001a905350600f60fb1b816001815181106104f4576104f46107ab565b60200101906001600160f81b031916908160001a905350600061051884600261075e565b61052390600161077d565b90505b600181111561059b576f181899199a1a9b1b9c1cb0b131b232b360811b85600f1660108110610557576105576107ab565b1a60f81b82828151811061056d5761056d6107ab565b60200101906001600160f81b031916908160001a90535060049490941c93610594816107c1565b9050610526565b5083156105ea5760405162461bcd60e51b815260206004820181905260248201527f537472696e67733a20686578206c656e67746820696e73756666696369656e746044820152606401610295565b9392505050565b60006020828403121561060357600080fd5b81356001600160e01b0319811681146105ea57600080fd5b60006020828403121561062d57600080fd5b5035919050565b6000806040838503121561064757600080fd5b8235915060208301356001600160a01b038116811461066557600080fd5b809150509250929050565b60005b8381101561068b578181015183820152602001610673565b8381111561069a576000848401525b50505050565b7f416363657373436f6e74726f6c3a206163636f756e74200000000000000000008152600083516106d8816017850160208801610670565b7001034b99036b4b9b9b4b733903937b6329607d1b6017918401918201528351610709816028840160208801610670565b01602801949350505050565b6020815260008251806020840152610734816040850160208701610670565b601f01601f19169190910160400192915050565b634e487b7160e01b600052601160045260246000fd5b600081600019048311821515161561077857610778610748565b500290565b6000821982111561079057610790610748565b500190565b634e487b7160e01b600052604160045260246000fd5b634e487b7160e01b600052603260045260246000fd5b6000816107d0576107d0610748565b50600019019056fea2646970667358221220ee6721e7da7c37eec2e6e5bc75a60a05f409d8402aa669d84a3603ffe80002f564736f6c634300080b0033",
  "immutableReferences": {},
  "source": "// SPDX-License-Identifier: MIT\r\npragma solidity ^0.8.0;\r\n\r\nimport \"@openzeppelin/contracts-upgradeable/access/AccessControlUpgradeable.sol\";\r\nimport \"@openzeppelin/contracts-upgradeable/proxy/utils/Initializable.sol\";\r\n\r\ncontract KollectRoles_V1 is \r\n    Initializable,\r\n    AccessControlUpgradeable\r\n{\r\n    bytes32 public constant MINTER_ROLE = keccak256(\"KOLLECT_MINTER\");\r\n    bytes32 public constant BURNER_ROLE = keccak256(\"KOLLECT_BURNER\");\r\n    bytes32 public constant MANAGER_ROLE = keccak256(\"KOLLECT_MANAGER\");\r\n\r\n    function __KollectRoles_V1_init() internal onlyInitializing {\r\n    }\r\n\r\n    function __KollectRoles_V1_init_unchained() internal onlyInitializing {\r\n    }\r\n\r\n    modifier onlyAdmin() {\r\n        require(hasRole(DEFAULT_ADMIN_ROLE, _msgSender()), \"Roles: caller does not have the ADMIN role\");\r\n        _;\r\n    }\r\n\r\n    modifier onlyMinter() {\r\n        require(hasRole(MINTER_ROLE, _msgSender()), \"Roles: caller does not have the MINTER role\");\r\n        _;\r\n    }\r\n\r\n    modifier onlyBurner() {\r\n        require(hasRole(BURNER_ROLE, _msgSender()), \"Roles: caller does not have the BURNER role\");\r\n        _;\r\n    }\r\n\r\n    modifier onlyManager() {\r\n        require(hasRole(MANAGER_ROLE, _msgSender()), \"Roles: caller does not have the MANAGER role\");\r\n        _;\r\n    }\r\n}\r\n",
  "sourcePath": "D:\\Projects\\NFT-Projects\\kollect-project\\kollect-truffle\\upgradable-contracts\\Truffle\\contracts\\kollect-contracts\\kollect-roles-v1.sol",
  "compiler": {
    "name": "solc",
    "version": "0.8.11+commit.d7f03943.Emscripten.clang"
  },
  "schemaVersion": "3.4.5",
  "updatedAt": "2022-03-01T21:12:46.818Z",
  "devdoc": {
    "kind": "dev",
    "methods": {
      "getRoleAdmin(bytes32)": {
        "details": "Returns the admin role that controls `role`. See {grantRole} and {revokeRole}. To change a role's admin, use {_setRoleAdmin}."
      },
      "grantRole(bytes32,address)": {
        "details": "Grants `role` to `account`. If `account` had not been already granted `role`, emits a {RoleGranted} event. Requirements: - the caller must have ``role``'s admin role."
      },
      "hasRole(bytes32,address)": {
        "details": "Returns `true` if `account` has been granted `role`."
      },
      "renounceRole(bytes32,address)": {
        "details": "Revokes `role` from the calling account. Roles are often managed via {grantRole} and {revokeRole}: this function's purpose is to provide a mechanism for accounts to lose their privileges if they are compromised (such as when a trusted device is misplaced). If the calling account had been revoked `role`, emits a {RoleRevoked} event. Requirements: - the caller must be `account`."
      },
      "revokeRole(bytes32,address)": {
        "details": "Revokes `role` from `account`. If `account` had been granted `role`, emits a {RoleRevoked} event. Requirements: - the caller must have ``role``'s admin role."
      },
      "supportsInterface(bytes4)": {
        "details": "See {IERC165-supportsInterface}."
      }
    },
    "version": 1
  },
  "userdoc": {
    "kind": "user",
    "methods": {},
    "version": 1
  }
}