{
  "contractName": "KollectKOL_V1",
  "abi": [
    {
      "anonymous": false,
      "inputs": [
        {
          "indexed": false,
          "internalType": "address",
          "name": "previousAdmin",
          "type": "address"
        },
        {
          "indexed": false,
          "internalType": "address",
          "name": "newAdmin",
          "type": "address"
        }
      ],
      "name": "AdminChanged",
      "type": "event"
    },
    {
      "anonymous": false,
      "inputs": [
        {
          "indexed": true,
          "internalType": "address",
          "name": "owner",
          "type": "address"
        },
        {
          "indexed": true,
          "internalType": "address",
          "name": "spender",
          "type": "address"
        },
        {
          "indexed": false,
          "internalType": "uint256",
          "name": "value",
          "type": "uint256"
        }
      ],
      "name": "Approval",
      "type": "event"
    },
    {
      "anonymous": false,
      "inputs": [
        {
          "indexed": true,
          "internalType": "address",
          "name": "beacon",
          "type": "address"
        }
      ],
      "name": "BeaconUpgraded",
      "type": "event"
    },
    {
      "anonymous": false,
      "inputs": [
        {
          "indexed": true,
          "internalType": "address",
          "name": "previousOwner",
          "type": "address"
        },
        {
          "indexed": true,
          "internalType": "address",
          "name": "newOwner",
          "type": "address"
        }
      ],
      "name": "OwnershipTransferred",
      "type": "event"
    },
    {
      "anonymous": false,
      "inputs": [
        {
          "indexed": false,
          "internalType": "address",
          "name": "account",
          "type": "address"
        }
      ],
      "name": "Paused",
      "type": "event"
    },
    {
      "anonymous": false,
      "inputs": [
        {
          "indexed": true,
          "internalType": "bytes32",
          "name": "role",
          "type": "bytes32"
        },
        {
          "indexed": true,
          "internalType": "bytes32",
          "name": "previousAdminRole",
          "type": "bytes32"
        },
        {
          "indexed": true,
          "internalType": "bytes32",
          "name": "newAdminRole",
          "type": "bytes32"
        }
      ],
      "name": "RoleAdminChanged",
      "type": "event"
    },
    {
      "anonymous": false,
      "inputs": [
        {
          "indexed": true,
          "internalType": "bytes32",
          "name": "role",
          "type": "bytes32"
        },
        {
          "indexed": true,
          "internalType": "address",
          "name": "account",
          "type": "address"
        },
        {
          "indexed": true,
          "internalType": "address",
          "name": "sender",
          "type": "address"
        }
      ],
      "name": "RoleGranted",
      "type": "event"
    },
    {
      "anonymous": false,
      "inputs": [
        {
          "indexed": true,
          "internalType": "bytes32",
          "name": "role",
          "type": "bytes32"
        },
        {
          "indexed": true,
          "internalType": "address",
          "name": "account",
          "type": "address"
        },
        {
          "indexed": true,
          "internalType": "address",
          "name": "sender",
          "type": "address"
        }
      ],
      "name": "RoleRevoked",
      "type": "event"
    },
    {
      "anonymous": false,
      "inputs": [
        {
          "indexed": true,
          "internalType": "address",
          "name": "from",
          "type": "address"
        },
        {
          "indexed": true,
          "internalType": "address",
          "name": "to",
          "type": "address"
        },
        {
          "indexed": false,
          "internalType": "uint256",
          "name": "value",
          "type": "uint256"
        }
      ],
      "name": "Transfer",
      "type": "event"
    },
    {
      "anonymous": false,
      "inputs": [
        {
          "indexed": false,
          "internalType": "address",
          "name": "account",
          "type": "address"
        }
      ],
      "name": "Unpaused",
      "type": "event"
    },
    {
      "anonymous": false,
      "inputs": [
        {
          "indexed": true,
          "internalType": "address",
          "name": "implementation",
          "type": "address"
        }
      ],
      "name": "Upgraded",
      "type": "event"
    },
    {
      "inputs": [],
      "name": "DEFAULT_ADMIN_ROLE",
      "outputs": [
        {
          "internalType": "bytes32",
          "name": "",
          "type": "bytes32"
        }
      ],
      "stateMutability": "view",
      "type": "function"
    },
    {
      "inputs": [],
      "name": "MINTER_ROLE",
      "outputs": [
        {
          "internalType": "bytes32",
          "name": "",
          "type": "bytes32"
        }
      ],
      "stateMutability": "view",
      "type": "function"
    },
    {
      "inputs": [],
      "name": "PAUSER_ROLE",
      "outputs": [
        {
          "internalType": "bytes32",
          "name": "",
          "type": "bytes32"
        }
      ],
      "stateMutability": "view",
      "type": "function"
    },
    {
      "inputs": [
        {
          "internalType": "address",
          "name": "owner",
          "type": "address"
        },
        {
          "internalType": "address",
          "name": "spender",
          "type": "address"
        }
      ],
      "name": "allowance",
      "outputs": [
        {
          "internalType": "uint256",
          "name": "",
          "type": "uint256"
        }
      ],
      "stateMutability": "view",
      "type": "function"
    },
    {
      "inputs": [
        {
          "internalType": "address",
          "name": "spender",
          "type": "address"
        },
        {
          "internalType": "uint256",
          "name": "amount",
          "type": "uint256"
        }
      ],
      "name": "approve",
      "outputs": [
        {
          "internalType": "bool",
          "name": "",
          "type": "bool"
        }
      ],
      "stateMutability": "nonpayable",
      "type": "function"
    },
    {
      "inputs": [
        {
          "internalType": "address",
          "name": "account",
          "type": "address"
        }
      ],
      "name": "balanceOf",
      "outputs": [
        {
          "internalType": "uint256",
          "name": "",
          "type": "uint256"
        }
      ],
      "stateMutability": "view",
      "type": "function"
    },
    {
      "inputs": [
        {
          "internalType": "uint256",
          "name": "amount",
          "type": "uint256"
        }
      ],
      "name": "burn",
      "outputs": [],
      "stateMutability": "nonpayable",
      "type": "function"
    },
    {
      "inputs": [
        {
          "internalType": "address",
          "name": "account",
          "type": "address"
        },
        {
          "internalType": "uint256",
          "name": "amount",
          "type": "uint256"
        }
      ],
      "name": "burnFrom",
      "outputs": [],
      "stateMutability": "nonpayable",
      "type": "function"
    },
    {
      "inputs": [],
      "name": "decimals",
      "outputs": [
        {
          "internalType": "uint8",
          "name": "",
          "type": "uint8"
        }
      ],
      "stateMutability": "view",
      "type": "function"
    },
    {
      "inputs": [
        {
          "internalType": "address",
          "name": "spender",
          "type": "address"
        },
        {
          "internalType": "uint256",
          "name": "subtractedValue",
          "type": "uint256"
        }
      ],
      "name": "decreaseAllowance",
      "outputs": [
        {
          "internalType": "bool",
          "name": "",
          "type": "bool"
        }
      ],
      "stateMutability": "nonpayable",
      "type": "function"
    },
    {
      "inputs": [
        {
          "internalType": "bytes32",
          "name": "role",
          "type": "bytes32"
        }
      ],
      "name": "getRoleAdmin",
      "outputs": [
        {
          "internalType": "bytes32",
          "name": "",
          "type": "bytes32"
        }
      ],
      "stateMutability": "view",
      "type": "function"
    },
    {
      "inputs": [
        {
          "internalType": "bytes32",
          "name": "role",
          "type": "bytes32"
        },
        {
          "internalType": "uint256",
          "name": "index",
          "type": "uint256"
        }
      ],
      "name": "getRoleMember",
      "outputs": [
        {
          "internalType": "address",
          "name": "",
          "type": "address"
        }
      ],
      "stateMutability": "view",
      "type": "function"
    },
    {
      "inputs": [
        {
          "internalType": "bytes32",
          "name": "role",
          "type": "bytes32"
        }
      ],
      "name": "getRoleMemberCount",
      "outputs": [
        {
          "internalType": "uint256",
          "name": "",
          "type": "uint256"
        }
      ],
      "stateMutability": "view",
      "type": "function"
    },
    {
      "inputs": [
        {
          "internalType": "bytes32",
          "name": "role",
          "type": "bytes32"
        },
        {
          "internalType": "address",
          "name": "account",
          "type": "address"
        }
      ],
      "name": "grantRole",
      "outputs": [],
      "stateMutability": "nonpayable",
      "type": "function"
    },
    {
      "inputs": [
        {
          "internalType": "bytes32",
          "name": "role",
          "type": "bytes32"
        },
        {
          "internalType": "address",
          "name": "account",
          "type": "address"
        }
      ],
      "name": "hasRole",
      "outputs": [
        {
          "internalType": "bool",
          "name": "",
          "type": "bool"
        }
      ],
      "stateMutability": "view",
      "type": "function"
    },
    {
      "inputs": [
        {
          "internalType": "address",
          "name": "spender",
          "type": "address"
        },
        {
          "internalType": "uint256",
          "name": "addedValue",
          "type": "uint256"
        }
      ],
      "name": "increaseAllowance",
      "outputs": [
        {
          "internalType": "bool",
          "name": "",
          "type": "bool"
        }
      ],
      "stateMutability": "nonpayable",
      "type": "function"
    },
    {
      "inputs": [
        {
          "internalType": "address",
          "name": "to",
          "type": "address"
        },
        {
          "internalType": "uint256",
          "name": "amount",
          "type": "uint256"
        }
      ],
      "name": "mint",
      "outputs": [],
      "stateMutability": "nonpayable",
      "type": "function"
    },
    {
      "inputs": [],
      "name": "name",
      "outputs": [
        {
          "internalType": "string",
          "name": "",
          "type": "string"
        }
      ],
      "stateMutability": "view",
      "type": "function"
    },
    {
      "inputs": [],
      "name": "owner",
      "outputs": [
        {
          "internalType": "address",
          "name": "",
          "type": "address"
        }
      ],
      "stateMutability": "view",
      "type": "function"
    },
    {
      "inputs": [],
      "name": "pause",
      "outputs": [],
      "stateMutability": "nonpayable",
      "type": "function"
    },
    {
      "inputs": [],
      "name": "paused",
      "outputs": [
        {
          "internalType": "bool",
          "name": "",
          "type": "bool"
        }
      ],
      "stateMutability": "view",
      "type": "function"
    },
    {
      "inputs": [],
      "name": "proxiableUUID",
      "outputs": [
        {
          "internalType": "bytes32",
          "name": "",
          "type": "bytes32"
        }
      ],
      "stateMutability": "view",
      "type": "function"
    },
    {
      "inputs": [],
      "name": "renounceOwnership",
      "outputs": [],
      "stateMutability": "nonpayable",
      "type": "function"
    },
    {
      "inputs": [
        {
          "internalType": "bytes32",
          "name": "role",
          "type": "bytes32"
        },
        {
          "internalType": "address",
          "name": "account",
          "type": "address"
        }
      ],
      "name": "renounceRole",
      "outputs": [],
      "stateMutability": "nonpayable",
      "type": "function"
    },
    {
      "inputs": [
        {
          "internalType": "bytes32",
          "name": "role",
          "type": "bytes32"
        },
        {
          "internalType": "address",
          "name": "account",
          "type": "address"
        }
      ],
      "name": "revokeRole",
      "outputs": [],
      "stateMutability": "nonpayable",
      "type": "function"
    },
    {
      "inputs": [
        {
          "internalType": "bytes4",
          "name": "interfaceId",
          "type": "bytes4"
        }
      ],
      "name": "supportsInterface",
      "outputs": [
        {
          "internalType": "bool",
          "name": "",
          "type": "bool"
        }
      ],
      "stateMutability": "view",
      "type": "function"
    },
    {
      "inputs": [],
      "name": "symbol",
      "outputs": [
        {
          "internalType": "string",
          "name": "",
          "type": "string"
        }
      ],
      "stateMutability": "view",
      "type": "function"
    },
    {
      "inputs": [],
      "name": "totalSupply",
      "outputs": [
        {
          "internalType": "uint256",
          "name": "",
          "type": "uint256"
        }
      ],
      "stateMutability": "view",
      "type": "function"
    },
    {
      "inputs": [
        {
          "internalType": "address",
          "name": "to",
          "type": "address"
        },
        {
          "internalType": "uint256",
          "name": "amount",
          "type": "uint256"
        }
      ],
      "name": "transfer",
      "outputs": [
        {
          "internalType": "bool",
          "name": "",
          "type": "bool"
        }
      ],
      "stateMutability": "nonpayable",
      "type": "function"
    },
    {
      "inputs": [
        {
          "internalType": "address",
          "name": "from",
          "type": "address"
        },
        {
          "internalType": "address",
          "name": "to",
          "type": "address"
        },
        {
          "internalType": "uint256",
          "name": "amount",
          "type": "uint256"
        }
      ],
      "name": "transferFrom",
      "outputs": [
        {
          "internalType": "bool",
          "name": "",
          "type": "bool"
        }
      ],
      "stateMutability": "nonpayable",
      "type": "function"
    },
    {
      "inputs": [
        {
          "internalType": "address",
          "name": "newOwner",
          "type": "address"
        }
      ],
      "name": "transferOwnership",
      "outputs": [],
      "stateMutability": "nonpayable",
      "type": "function"
    },
    {
      "inputs": [],
      "name": "unpause",
      "outputs": [],
      "stateMutability": "nonpayable",
      "type": "function"
    },
    {
      "inputs": [
        {
          "internalType": "address",
          "name": "newImplementation",
          "type": "address"
        }
      ],
      "name": "upgradeTo",
      "outputs": [],
      "stateMutability": "nonpayable",
      "type": "function"
    },
    {
      "inputs": [
        {
          "internalType": "address",
          "name": "newImplementation",
          "type": "address"
        },
        {
          "internalType": "bytes",
          "name": "data",
          "type": "bytes"
        }
      ],
      "name": "upgradeToAndCall",
      "outputs": [],
      "stateMutability": "payable",
      "type": "function"
    },
    {
      "inputs": [
        {
          "internalType": "string",
          "name": "name",
          "type": "string"
        },
        {
          "internalType": "string",
          "name": "symbol",
          "type": "string"
        }
      ],
      "name": "initialize",
      "outputs": [],
      "stateMutability": "nonpayable",
      "type": "function"
    },
    {
      "inputs": [
        {
          "internalType": "string",
          "name": "name",
          "type": "string"
        },
        {
          "internalType": "string",
          "name": "symbol",
          "type": "string"
        },
        {
          "internalType": "uint256",
          "name": "initialSupply",
          "type": "uint256"
        }
      ],
      "name": "initialize",
      "outputs": [],
      "stateMutability": "nonpayable",
      "type": "function"
    }
  ],
  "bytecode": "0x60a06040523060805234801561001457600080fd5b5060805161296e61004c6000396000818161087a015281816108ba01528181610b5301528181610b930152610c22015261296e6000f3fe60806040526004361061020f5760003560e01c806370a0823111610118578063a457c2d7116100a0578063d53913931161006f578063d5391393146105ea578063d547741f1461061e578063dd62ed3e1461063e578063e63ab1e914610684578063f2fde38b146106a657600080fd5b8063a457c2d71461056a578063a9059cbb1461058a578063b119490e146105aa578063ca15c873146105ca57600080fd5b80638da5cb5b116100e75780638da5cb5b146104ce5780639010d07c1461050057806391d148541461052057806395d89b4114610540578063a217fddf1461055557600080fd5b806370a082311461044e578063715018a61461048457806379cc6790146104995780638456cb59146104b957600080fd5b80633659cfe61161019b57806342966c681161016a57806342966c68146103cd5780634cd88b76146103ed5780634f1ef2861461040d57806352d1902d146104205780635c975abb1461043557600080fd5b80633659cfe61461035857806339509351146103785780633f4ba83a1461039857806340c10f19146103ad57600080fd5b806323b872dd116101e257806323b872dd146102aa578063248a9ca3146102ca5780632f2ff15d146102fa578063313ce5671461031c57806336568abe1461033857600080fd5b806301ffc9a71461021457806306fdde0314610249578063095ea7b31461026b57806318160ddd1461028b575b600080fd5b34801561022057600080fd5b5061023461022f366004612253565b6106c6565b60405190151581526020015b60405180910390f35b34801561025557600080fd5b5061025e6106f1565b60405161024091906122a9565b34801561027757600080fd5b506102346102863660046122f8565b610783565b34801561029757600080fd5b5060fd545b604051908152602001610240565b3480156102b657600080fd5b506102346102c5366004612322565b61079b565b3480156102d657600080fd5b5061029c6102e536600461235e565b60009081526097602052604090206001015490565b34801561030657600080fd5b5061031a610315366004612377565b6107c1565b005b34801561032857600080fd5b5060405160128152602001610240565b34801561034457600080fd5b5061031a610353366004612377565b6107ec565b34801561036457600080fd5b5061031a6103733660046123a3565b61086f565b34801561038457600080fd5b506102346103933660046122f8565b61094f565b3480156103a457600080fd5b5061031a61098e565b3480156103b957600080fd5b5061031a6103c83660046122f8565b610a22565b3480156103d957600080fd5b5061031a6103e836600461235e565b610ac1565b3480156103f957600080fd5b5061031a61040836600461246a565b610acb565b61031a61041b3660046124ce565b610b48565b34801561042c57600080fd5b5061029c610c15565b34801561044157600080fd5b5061015f5460ff16610234565b34801561045a57600080fd5b5061029c6104693660046123a3565b6001600160a01b0316600090815260fb602052604090205490565b34801561049057600080fd5b5061031a610cc8565b3480156104a557600080fd5b5061031a6104b43660046122f8565b610cfc565b3480156104c557600080fd5b5061031a610d11565b3480156104da57600080fd5b506033546001600160a01b03165b6040516001600160a01b039091168152602001610240565b34801561050c57600080fd5b506104e861051b366004612526565b610da3565b34801561052c57600080fd5b5061023461053b366004612377565b610dbb565b34801561054c57600080fd5b5061025e610de6565b34801561056157600080fd5b5061029c600081565b34801561057657600080fd5b506102346105853660046122f8565b610df5565b34801561059657600080fd5b506102346105a53660046122f8565b610e92565b3480156105b657600080fd5b5061031a6105c5366004612548565b610ea0565b3480156105d657600080fd5b5061029c6105e536600461235e565b610f29565b3480156105f657600080fd5b5061029c7f9f2df0fed2c77648de5860a4cc508cd0818c85b8b8a1ab4ceeef8d981c8956a681565b34801561062a57600080fd5b5061031a610639366004612377565b610f40565b34801561064a57600080fd5b5061029c6106593660046125b5565b6001600160a01b03918216600090815260fc6020908152604080832093909416825291909152205490565b34801561069057600080fd5b5061029c6000805160206128f283398151915281565b3480156106b257600080fd5b5061031a6106c13660046123a3565b610f66565b60006001600160e01b03198216635a05180f60e01b14806106eb57506106eb82610ffe565b92915050565b606060fe8054610700906125df565b80601f016020809104026020016040519081016040528092919081815260200182805461072c906125df565b80156107795780601f1061074e57610100808354040283529160200191610779565b820191906000526020600020905b81548152906001019060200180831161075c57829003601f168201915b5050505050905090565b600033610791818585611033565b5060019392505050565b6000336107a9858285611157565b6107b48585856111e3565b60019150505b9392505050565b6000828152609760205260409020600101546107dd81336113bc565b6107e78383611420565b505050565b6001600160a01b03811633146108615760405162461bcd60e51b815260206004820152602f60248201527f416363657373436f6e74726f6c3a2063616e206f6e6c792072656e6f756e636560448201526e103937b632b9903337b91039b2b63360891b60648201526084015b60405180910390fd5b61086b8282611442565b5050565b306001600160a01b037f00000000000000000000000000000000000000000000000000000000000000001614156108b85760405162461bcd60e51b81526004016108589061261a565b7f00000000000000000000000000000000000000000000000000000000000000006001600160a01b03166109016000805160206128d2833981519152546001600160a01b031690565b6001600160a01b0316146109275760405162461bcd60e51b815260040161085890612666565b61093081611464565b6040805160008082526020820190925261094c9183919061148e565b50565b33600081815260fc602090815260408083206001600160a01b038716845290915281205490919061079190829086906109899087906126c8565b611033565b6109a66000805160206128f283398151915233610dbb565b610a185760405162461bcd60e51b815260206004820152603960248201527f45524332305072657365744d696e7465725061757365723a206d75737420686160448201527f76652070617573657220726f6c6520746f20756e7061757365000000000000006064820152608401610858565b610a206115f9565b565b610a4c7f9f2df0fed2c77648de5860a4cc508cd0818c85b8b8a1ab4ceeef8d981c8956a633610dbb565b610ab75760405162461bcd60e51b815260206004820152603660248201527f45524332305072657365744d696e7465725061757365723a206d7573742068616044820152751d99481b5a5b9d195c881c9bdb19481d1bc81b5a5b9d60521b6064820152608401610858565b61086b828261168e565b61094c3382611779565b600054610100900460ff16610ae65760005460ff1615610aea565b303b155b610b065760405162461bcd60e51b8152600401610858906126e0565b600054610100900460ff16158015610b28576000805461ffff19166101011790555b610b3283836118d3565b80156107e7576000805461ff0019169055505050565b306001600160a01b037f0000000000000000000000000000000000000000000000000000000000000000161415610b915760405162461bcd60e51b81526004016108589061261a565b7f00000000000000000000000000000000000000000000000000000000000000006001600160a01b0316610bda6000805160206128d2833981519152546001600160a01b031690565b6001600160a01b031614610c005760405162461bcd60e51b815260040161085890612666565b610c0982611464565b61086b8282600161148e565b6000306001600160a01b037f00000000000000000000000000000000000000000000000000000000000000001614610cb55760405162461bcd60e51b815260206004820152603860248201527f555550535570677261646561626c653a206d757374206e6f742062652063616c60448201527f6c6564207468726f7567682064656c656761746563616c6c00000000000000006064820152608401610858565b506000805160206128d283398151915290565b6033546001600160a01b03163314610cf25760405162461bcd60e51b81526004016108589061272e565b610a206000611916565b610d07823383611157565b61086b8282611779565b610d296000805160206128f283398151915233610dbb565b610d9b5760405162461bcd60e51b815260206004820152603760248201527f45524332305072657365744d696e7465725061757365723a206d75737420686160448201527f76652070617573657220726f6c6520746f2070617573650000000000000000006064820152608401610858565b610a20611968565b600082815260c9602052604081206107ba90836119e5565b60009182526097602090815260408084206001600160a01b0393909316845291905290205460ff1690565b606060ff8054610700906125df565b33600081815260fc602090815260408083206001600160a01b038716845290915281205490919083811015610e7a5760405162461bcd60e51b815260206004820152602560248201527f45524332303a2064656372656173656420616c6c6f77616e63652062656c6f77604482015264207a65726f60d81b6064820152608401610858565b610e878286868403611033565b506001949350505050565b6000336107918185856111e3565b600054610100900460ff16610ebb5760005460ff1615610ebf565b303b155b610edb5760405162461bcd60e51b8152600401610858906126e0565b600054610100900460ff16158015610efd576000805461ffff19166101011790555b610f0784846118d3565b610f11338361168e565b8015610f23576000805461ff00191690555b50505050565b600081815260c9602052604081206106eb906119f1565b600082815260976020526040902060010154610f5c81336113bc565b6107e78383611442565b6033546001600160a01b03163314610f905760405162461bcd60e51b81526004016108589061272e565b6001600160a01b038116610ff55760405162461bcd60e51b815260206004820152602660248201527f4f776e61626c653a206e6577206f776e657220697320746865207a65726f206160448201526564647265737360d01b6064820152608401610858565b61094c81611916565b60006001600160e01b03198216637965db0b60e01b14806106eb57506301ffc9a760e01b6001600160e01b03198316146106eb565b6001600160a01b0383166110955760405162461bcd60e51b8152602060048201526024808201527f45524332303a20617070726f76652066726f6d20746865207a65726f206164646044820152637265737360e01b6064820152608401610858565b6001600160a01b0382166110f65760405162461bcd60e51b815260206004820152602260248201527f45524332303a20617070726f766520746f20746865207a65726f206164647265604482015261737360f01b6064820152608401610858565b6001600160a01b03838116600081815260fc602090815260408083209487168084529482529182902085905590518481527f8c5be1e5ebec7d5bd14f71427d1e84f3dd0314c0f7b2291e5b200ac8c7c3b925910160405180910390a3505050565b6001600160a01b03838116600090815260fc60209081526040808320938616835292905220546000198114610f2357818110156111d65760405162461bcd60e51b815260206004820152601d60248201527f45524332303a20696e73756666696369656e7420616c6c6f77616e63650000006044820152606401610858565b610f238484848403611033565b6001600160a01b0383166112475760405162461bcd60e51b815260206004820152602560248201527f45524332303a207472616e736665722066726f6d20746865207a65726f206164604482015264647265737360d81b6064820152608401610858565b6001600160a01b0382166112a95760405162461bcd60e51b815260206004820152602360248201527f45524332303a207472616e7366657220746f20746865207a65726f206164647260448201526265737360e81b6064820152608401610858565b6112b48383836119fb565b6001600160a01b038316600090815260fb60205260409020548181101561132c5760405162461bcd60e51b815260206004820152602660248201527f45524332303a207472616e7366657220616d6f756e7420657863656564732062604482015265616c616e636560d01b6064820152608401610858565b6001600160a01b03808516600090815260fb60205260408082208585039055918516815290812080548492906113639084906126c8565b92505081905550826001600160a01b0316846001600160a01b03167fddf252ad1be2c89b69c2b068fc378daa952ba7f163c4a11628f55a4df523b3ef846040516113af91815260200190565b60405180910390a3610f23565b6113c68282610dbb565b61086b576113de816001600160a01b03166014611a06565b6113e9836020611a06565b6040516020016113fa929190612763565b60408051601f198184030181529082905262461bcd60e51b8252610858916004016122a9565b61142a8282611ba2565b600082815260c9602052604090206107e79082611c28565b61144c8282611c3d565b600082815260c9602052604090206107e79082611ca4565b6033546001600160a01b0316331461094c5760405162461bcd60e51b81526004016108589061272e565b7f4910fdfa16fed3260ed0e7147f7cc6da11a60208b5b9406d12a635614ffd91435460ff16156114c1576107e783611cb9565b826001600160a01b03166352d1902d6040518163ffffffff1660e01b8152600401602060405180830381865afa92505050801561151b575060408051601f3d908101601f19168201909252611518918101906127d8565b60015b61157e5760405162461bcd60e51b815260206004820152602e60248201527f45524331393637557067726164653a206e657720696d706c656d656e7461746960448201526d6f6e206973206e6f74205555505360901b6064820152608401610858565b6000805160206128d283398151915281146115ed5760405162461bcd60e51b815260206004820152602960248201527f45524331393637557067726164653a20756e737570706f727465642070726f786044820152681a58589b195555525160ba1b6064820152608401610858565b506107e7838383611d55565b61015f5460ff166116435760405162461bcd60e51b815260206004820152601460248201527314185d5cd8589b194e881b9bdd081c185d5cd95960621b6044820152606401610858565b61015f805460ff191690557f5db9ee0a495bf2e6ff9c91a7834c1ba4fdd244a5e8aa4e537bd38aeae4b073aa335b6040516001600160a01b03909116815260200160405180910390a1565b6001600160a01b0382166116e45760405162461bcd60e51b815260206004820152601f60248201527f45524332303a206d696e7420746f20746865207a65726f2061646472657373006044820152606401610858565b6116f0600083836119fb565b8060fd600082825461170291906126c8565b90915550506001600160a01b038216600090815260fb60205260408120805483929061172f9084906126c8565b90915550506040518181526001600160a01b038316906000907fddf252ad1be2c89b69c2b068fc378daa952ba7f163c4a11628f55a4df523b3ef9060200160405180910390a35050565b6001600160a01b0382166117d95760405162461bcd60e51b815260206004820152602160248201527f45524332303a206275726e2066726f6d20746865207a65726f206164647265736044820152607360f81b6064820152608401610858565b6117e5826000836119fb565b6001600160a01b038216600090815260fb6020526040902054818110156118595760405162461bcd60e51b815260206004820152602260248201527f45524332303a206275726e20616d6f756e7420657863656564732062616c616e604482015261636560f01b6064820152608401610858565b6001600160a01b038316600090815260fb60205260408120838303905560fd80548492906118889084906127f1565b90915550506040518281526000906001600160a01b038516907fddf252ad1be2c89b69c2b068fc378daa952ba7f163c4a11628f55a4df523b3ef9060200160405180910390a3505050565b600054610100900460ff166118fa5760405162461bcd60e51b815260040161085890612808565b6119048282611d7a565b61190c611dc8565b61086b8282611dfc565b603380546001600160a01b038381166001600160a01b0319831681179093556040519116919082907f8be0079c531659141344cd1fd0a4f28419497f9722a3daafe3b4186f6b6457e090600090a35050565b61015f5460ff16156119af5760405162461bcd60e51b815260206004820152601060248201526f14185d5cd8589b194e881c185d5cd95960821b6044820152606401610858565b61015f805460ff191660011790557f62e78cea01bee320cd4e420270b5ea74000d11b0c9f74754ebdbfc544b05a2586116713390565b60006107ba8383611e70565b60006106eb825490565b6107e7838383611e9a565b60606000611a15836002612853565b611a209060026126c8565b67ffffffffffffffff811115611a3857611a386123be565b6040519080825280601f01601f191660200182016040528015611a62576020820181803683370190505b509050600360fc1b81600081518110611a7d57611a7d612872565b60200101906001600160f81b031916908160001a905350600f60fb1b81600181518110611aac57611aac612872565b60200101906001600160f81b031916908160001a9053506000611ad0846002612853565b611adb9060016126c8565b90505b6001811115611b53576f181899199a1a9b1b9c1cb0b131b232b360811b85600f1660108110611b0f57611b0f612872565b1a60f81b828281518110611b2557611b25612872565b60200101906001600160f81b031916908160001a90535060049490941c93611b4c81612888565b9050611ade565b5083156107ba5760405162461bcd60e51b815260206004820181905260248201527f537472696e67733a20686578206c656e67746820696e73756666696369656e746044820152606401610858565b611bac8282610dbb565b61086b5760008281526097602090815260408083206001600160a01b03851684529091529020805460ff19166001179055611be43390565b6001600160a01b0316816001600160a01b0316837f2f8788117e7eff1d82e926ec794901d17c78024a50270940304540a733656f0d60405160405180910390a45050565b60006107ba836001600160a01b038416611f01565b611c478282610dbb565b1561086b5760008281526097602090815260408083206001600160a01b0385168085529252808320805460ff1916905551339285917ff6391f5c32d9c69d2a47ea670b442974b53935d1edc7fd64eb21e047a839171b9190a45050565b60006107ba836001600160a01b038416611f50565b6001600160a01b0381163b611d265760405162461bcd60e51b815260206004820152602d60248201527f455243313936373a206e657720696d706c656d656e746174696f6e206973206e60448201526c1bdd08184818dbdb9d1c9858dd609a1b6064820152608401610858565b6000805160206128d283398151915280546001600160a01b0319166001600160a01b0392909216919091179055565b611d5e83612043565b600082511180611d6b5750805b156107e757610f238383612083565b600054610100900460ff16611da15760405162461bcd60e51b815260040161085890612808565b8151611db49060fe9060208501906121ba565b5080516107e79060ff9060208401906121ba565b600054610100900460ff16611def5760405162461bcd60e51b815260040161085890612808565b61015f805460ff19169055565b600054610100900460ff16611e235760405162461bcd60e51b815260040161085890612808565b611e2e600033612177565b611e587f9f2df0fed2c77648de5860a4cc508cd0818c85b8b8a1ab4ceeef8d981c8956a633612177565b61086b6000805160206128f283398151915233612177565b6000826000018281548110611e8757611e87612872565b9060005260206000200154905092915050565b61015f5460ff16156107e75760405162461bcd60e51b815260206004820152602a60248201527f45524332305061757361626c653a20746f6b656e207472616e736665722077686044820152691a5b19481c185d5cd95960b21b6064820152608401610858565b6000818152600183016020526040812054611f48575081546001818101845560008481526020808220909301849055845484825282860190935260409020919091556106eb565b5060006106eb565b60008181526001830160205260408120548015612039576000611f746001836127f1565b8554909150600090611f88906001906127f1565b9050818114611fed576000866000018281548110611fa857611fa8612872565b9060005260206000200154905080876000018481548110611fcb57611fcb612872565b6000918252602080832090910192909255918252600188019052604090208390555b8554869080611ffe57611ffe61289f565b6001900381819060005260206000200160009055905585600101600086815260200190815260200160002060009055600193505050506106eb565b60009150506106eb565b61204c81611cb9565b6040516001600160a01b038216907fbc7cd75a20ee27fd9adebab32041f755214dbc6bffa90cc0225b39da2e5c2d3b90600090a250565b60606001600160a01b0383163b6120eb5760405162461bcd60e51b815260206004820152602660248201527f416464726573733a2064656c65676174652063616c6c20746f206e6f6e2d636f6044820152651b9d1c9858dd60d21b6064820152608401610858565b600080846001600160a01b03168460405161210691906128b5565b600060405180830381855af49150503d8060008114612141576040519150601f19603f3d011682016040523d82523d6000602084013e612146565b606091505b509150915061216e828260405180606001604052806027815260200161291260279139612181565b95945050505050565b61086b8282611420565b606083156121905750816107ba565b8251156121a05782518084602001fd5b8160405162461bcd60e51b815260040161085891906122a9565b8280546121c6906125df565b90600052602060002090601f0160209004810192826121e8576000855561222e565b82601f1061220157805160ff191683800117855561222e565b8280016001018555821561222e579182015b8281111561222e578251825591602001919060010190612213565b5061223a92915061223e565b5090565b5b8082111561223a576000815560010161223f565b60006020828403121561226557600080fd5b81356001600160e01b0319811681146107ba57600080fd5b60005b83811015612298578181015183820152602001612280565b83811115610f235750506000910152565b60208152600082518060208401526122c881604085016020870161227d565b601f01601f19169190910160400192915050565b80356001600160a01b03811681146122f357600080fd5b919050565b6000806040838503121561230b57600080fd5b612314836122dc565b946020939093013593505050565b60008060006060848603121561233757600080fd5b612340846122dc565b925061234e602085016122dc565b9150604084013590509250925092565b60006020828403121561237057600080fd5b5035919050565b6000806040838503121561238a57600080fd5b8235915061239a602084016122dc565b90509250929050565b6000602082840312156123b557600080fd5b6107ba826122dc565b634e487b7160e01b600052604160045260246000fd5b600067ffffffffffffffff808411156123ef576123ef6123be565b604051601f8501601f19908116603f01168101908282118183101715612417576124176123be565b8160405280935085815286868601111561243057600080fd5b858560208301376000602087830101525050509392505050565b600082601f83011261245b57600080fd5b6107ba838335602085016123d4565b6000806040838503121561247d57600080fd5b823567ffffffffffffffff8082111561249557600080fd5b6124a18683870161244a565b935060208501359150808211156124b757600080fd5b506124c48582860161244a565b9150509250929050565b600080604083850312156124e157600080fd5b6124ea836122dc565b9150602083013567ffffffffffffffff81111561250657600080fd5b8301601f8101851361251757600080fd5b6124c4858235602084016123d4565b6000806040838503121561253957600080fd5b50508035926020909101359150565b60008060006060848603121561255d57600080fd5b833567ffffffffffffffff8082111561257557600080fd5b6125818783880161244a565b9450602086013591508082111561259757600080fd5b506125a48682870161244a565b925050604084013590509250925092565b600080604083850312156125c857600080fd5b6125d1836122dc565b915061239a602084016122dc565b600181811c908216806125f357607f821691505b6020821081141561261457634e487b7160e01b600052602260045260246000fd5b50919050565b6020808252602c908201527f46756e6374696f6e206d7573742062652063616c6c6564207468726f7567682060408201526b19195b1959d85d1958d85b1b60a21b606082015260800190565b6020808252602c908201527f46756e6374696f6e206d7573742062652063616c6c6564207468726f7567682060408201526b6163746976652070726f787960a01b606082015260800190565b634e487b7160e01b600052601160045260246000fd5b600082198211156126db576126db6126b2565b500190565b6020808252602e908201527f496e697469616c697a61626c653a20636f6e747261637420697320616c72656160408201526d191e481a5b9a5d1a585b1a5e995960921b606082015260800190565b6020808252818101527f4f776e61626c653a2063616c6c6572206973206e6f7420746865206f776e6572604082015260600190565b7f416363657373436f6e74726f6c3a206163636f756e742000000000000000000081526000835161279b81601785016020880161227d565b7001034b99036b4b9b9b4b733903937b6329607d1b60179184019182015283516127cc81602884016020880161227d565b01602801949350505050565b6000602082840312156127ea57600080fd5b5051919050565b600082821015612803576128036126b2565b500390565b6020808252602b908201527f496e697469616c697a61626c653a20636f6e7472616374206973206e6f74206960408201526a6e697469616c697a696e6760a81b606082015260800190565b600081600019048311821515161561286d5761286d6126b2565b500290565b634e487b7160e01b600052603260045260246000fd5b600081612897576128976126b2565b506000190190565b634e487b7160e01b600052603160045260246000fd5b600082516128c781846020870161227d565b919091019291505056fe360894a13ba1a3210667c828492db98dca3e2076cc3735a920a3ca505d382bbc65d7a28e3265b37a6474929f336521b332c1681b933f6cb9f3376673440d862a416464726573733a206c6f772d6c6576656c2064656c65676174652063616c6c206661696c6564a26469706673582212205598fbff773b229d550610f5b791e3c2a13a6716cc527475a3d124d470232a1a64736f6c634300080b0033",
  "immutableReferences": {
    "1189": [
      {
        "length": 32,
        "start": 2170
      },
      {
        "length": 32,
        "start": 2234
      },
      {
        "length": 32,
        "start": 2899
      },
      {
        "length": 32,
        "start": 2963
      },
      {
        "length": 32,
        "start": 3106
      }
    ]
  },
  "source": "// SPDX-License-Identifier: MIT\r\npragma solidity 0.8.11;\r\n\r\nimport \"@openzeppelin/contracts-upgradeable/token/ERC20/presets/ERC20PresetMinterPauserUpgradeable.sol\";\r\nimport \"@openzeppelin/contracts-upgradeable/access/OwnableUpgradeable.sol\";\r\nimport \"@openzeppelin/contracts-upgradeable/proxy/utils/Initializable.sol\";\r\nimport \"@openzeppelin/contracts-upgradeable/proxy/utils/UUPSUpgradeable.sol\";\r\n\r\ncontract KollectKOL_V1 is Initializable, OwnableUpgradeable, ERC20PresetMinterPauserUpgradeable, UUPSUpgradeable {\r\n\r\n    function initialize(string memory name, string memory symbol, uint256 initialSupply) public virtual initializer {\r\n        __ERC20PresetMinterPauser_init(name, symbol);\r\n        _mint(_msgSender(), initialSupply);\r\n    }\r\n\r\n    function _authorizeUpgrade(address newImplementation) internal override onlyOwner {}\r\n}",
  "sourcePath": "D:\\Projects\\NFT-Projects\\kollect-project\\kollect-truffle\\upgradable-contracts\\Truffle\\contracts\\kollect-contracts\\kollect-kol-v1.sol",
  "compiler": {
    "name": "solc",
    "version": "0.8.11+commit.d7f03943.Emscripten.clang"
  },
  "schemaVersion": "3.4.5",
  "updatedAt": "2022-04-06T18:40:49.101Z",
  "devdoc": {
    "kind": "dev",
    "methods": {
      "allowance(address,address)": {
        "details": "See {IERC20-allowance}."
      },
      "approve(address,uint256)": {
        "details": "See {IERC20-approve}. NOTE: If `amount` is the maximum `uint256`, the allowance is not updated on `transferFrom`. This is semantically equivalent to an infinite approval. Requirements: - `spender` cannot be the zero address."
      },
      "balanceOf(address)": {
        "details": "See {IERC20-balanceOf}."
      },
      "burn(uint256)": {
        "details": "Destroys `amount` tokens from the caller. See {ERC20-_burn}."
      },
      "burnFrom(address,uint256)": {
        "details": "Destroys `amount` tokens from `account`, deducting from the caller's allowance. See {ERC20-_burn} and {ERC20-allowance}. Requirements: - the caller must have allowance for ``accounts``'s tokens of at least `amount`."
      },
      "decimals()": {
        "details": "Returns the number of decimals used to get its user representation. For example, if `decimals` equals `2`, a balance of `505` tokens should be displayed to a user as `5.05` (`505 / 10 ** 2`). Tokens usually opt for a value of 18, imitating the relationship between Ether and Wei. This is the value {ERC20} uses, unless this function is overridden; NOTE: This information is only used for _display_ purposes: it in no way affects any of the arithmetic of the contract, including {IERC20-balanceOf} and {IERC20-transfer}."
      },
      "decreaseAllowance(address,uint256)": {
        "details": "Atomically decreases the allowance granted to `spender` by the caller. This is an alternative to {approve} that can be used as a mitigation for problems described in {IERC20-approve}. Emits an {Approval} event indicating the updated allowance. Requirements: - `spender` cannot be the zero address. - `spender` must have allowance for the caller of at least `subtractedValue`."
      },
      "getRoleAdmin(bytes32)": {
        "details": "Returns the admin role that controls `role`. See {grantRole} and {revokeRole}. To change a role's admin, use {_setRoleAdmin}."
      },
      "getRoleMember(bytes32,uint256)": {
        "details": "Returns one of the accounts that have `role`. `index` must be a value between 0 and {getRoleMemberCount}, non-inclusive. Role bearers are not sorted in any particular way, and their ordering may change at any point. WARNING: When using {getRoleMember} and {getRoleMemberCount}, make sure you perform all queries on the same block. See the following https://forum.openzeppelin.com/t/iterating-over-elements-on-enumerableset-in-openzeppelin-contracts/2296[forum post] for more information."
      },
      "getRoleMemberCount(bytes32)": {
        "details": "Returns the number of accounts that have `role`. Can be used together with {getRoleMember} to enumerate all bearers of a role."
      },
      "grantRole(bytes32,address)": {
        "details": "Grants `role` to `account`. If `account` had not been already granted `role`, emits a {RoleGranted} event. Requirements: - the caller must have ``role``'s admin role."
      },
      "hasRole(bytes32,address)": {
        "details": "Returns `true` if `account` has been granted `role`."
      },
      "increaseAllowance(address,uint256)": {
        "details": "Atomically increases the allowance granted to `spender` by the caller. This is an alternative to {approve} that can be used as a mitigation for problems described in {IERC20-approve}. Emits an {Approval} event indicating the updated allowance. Requirements: - `spender` cannot be the zero address."
      },
      "mint(address,uint256)": {
        "details": "Creates `amount` new tokens for `to`. See {ERC20-_mint}. Requirements: - the caller must have the `MINTER_ROLE`."
      },
      "name()": {
        "details": "Returns the name of the token."
      },
      "owner()": {
        "details": "Returns the address of the current owner."
      },
      "pause()": {
        "details": "Pauses all token transfers. See {ERC20Pausable} and {Pausable-_pause}. Requirements: - the caller must have the `PAUSER_ROLE`."
      },
      "paused()": {
        "details": "Returns true if the contract is paused, and false otherwise."
      },
      "proxiableUUID()": {
        "details": "Implementation of the ERC1822 {proxiableUUID} function. This returns the storage slot used by the implementation. It is used to validate that the this implementation remains valid after an upgrade. IMPORTANT: A proxy pointing at a proxiable contract should not be considered proxiable itself, because this risks bricking a proxy that upgrades to it, by delegating to itself until out of gas. Thus it is critical that this function revert if invoked through a proxy. This is guaranteed by the `notDelegated` modifier."
      },
      "renounceOwnership()": {
        "details": "Leaves the contract without owner. It will not be possible to call `onlyOwner` functions anymore. Can only be called by the current owner. NOTE: Renouncing ownership will leave the contract without an owner, thereby removing any functionality that is only available to the owner."
      },
      "renounceRole(bytes32,address)": {
        "details": "Revokes `role` from the calling account. Roles are often managed via {grantRole} and {revokeRole}: this function's purpose is to provide a mechanism for accounts to lose their privileges if they are compromised (such as when a trusted device is misplaced). If the calling account had been revoked `role`, emits a {RoleRevoked} event. Requirements: - the caller must be `account`."
      },
      "revokeRole(bytes32,address)": {
        "details": "Revokes `role` from `account`. If `account` had been granted `role`, emits a {RoleRevoked} event. Requirements: - the caller must have ``role``'s admin role."
      },
      "supportsInterface(bytes4)": {
        "details": "See {IERC165-supportsInterface}."
      },
      "symbol()": {
        "details": "Returns the symbol of the token, usually a shorter version of the name."
      },
      "totalSupply()": {
        "details": "See {IERC20-totalSupply}."
      },
      "transfer(address,uint256)": {
        "details": "See {IERC20-transfer}. Requirements: - `to` cannot be the zero address. - the caller must have a balance of at least `amount`."
      },
      "transferFrom(address,address,uint256)": {
        "details": "See {IERC20-transferFrom}. Emits an {Approval} event indicating the updated allowance. This is not required by the EIP. See the note at the beginning of {ERC20}. NOTE: Does not update the allowance if the current allowance is the maximum `uint256`. Requirements: - `from` and `to` cannot be the zero address. - `from` must have a balance of at least `amount`. - the caller must have allowance for ``from``'s tokens of at least `amount`."
      },
      "transferOwnership(address)": {
        "details": "Transfers ownership of the contract to a new account (`newOwner`). Can only be called by the current owner."
      },
      "unpause()": {
        "details": "Unpauses all token transfers. See {ERC20Pausable} and {Pausable-_unpause}. Requirements: - the caller must have the `PAUSER_ROLE`."
      },
      "upgradeTo(address)": {
        "details": "Upgrade the implementation of the proxy to `newImplementation`. Calls {_authorizeUpgrade}. Emits an {Upgraded} event."
      },
      "upgradeToAndCall(address,bytes)": {
        "details": "Upgrade the implementation of the proxy to `newImplementation`, and subsequently execute the function call encoded in `data`. Calls {_authorizeUpgrade}. Emits an {Upgraded} event."
      }
    },
    "version": 1
  },
  "userdoc": {
    "kind": "user",
    "methods": {},
    "version": 1
  }
}