{
  "contractName": "KollectPrivateCollection_V1",
  "abi": [
    {
      "anonymous": false,
      "inputs": [
        {
          "indexed": false,
          "internalType": "address",
          "name": "contractAddress",
          "type": "address"
        }
      ],
      "name": "AddedContractToWhitelists",
      "type": "event"
    },
    {
      "anonymous": false,
      "inputs": [
        {
          "indexed": false,
          "internalType": "address",
          "name": "previousAdmin",
          "type": "address"
        },
        {
          "indexed": false,
          "internalType": "address",
          "name": "newAdmin",
          "type": "address"
        }
      ],
      "name": "AdminChanged",
      "type": "event"
    },
    {
      "anonymous": false,
      "inputs": [
        {
          "indexed": true,
          "internalType": "address",
          "name": "beacon",
          "type": "address"
        }
      ],
      "name": "BeaconUpgraded",
      "type": "event"
    },
    {
      "anonymous": false,
      "inputs": [
        {
          "indexed": false,
          "internalType": "address",
          "name": "tokenAddress",
          "type": "address"
        },
        {
          "indexed": false,
          "internalType": "uint256",
          "name": "tokenId",
          "type": "uint256"
        },
        {
          "indexed": false,
          "internalType": "uint256",
          "name": "amount",
          "type": "uint256"
        },
        {
          "indexed": false,
          "internalType": "uint256",
          "name": "collectionId",
          "type": "uint256"
        },
        {
          "indexed": false,
          "internalType": "address",
          "name": "ownerAddress",
          "type": "address"
        }
      ],
      "name": "ItemAddedToCollection",
      "type": "event"
    },
    {
      "anonymous": false,
      "inputs": [
        {
          "indexed": false,
          "internalType": "address",
          "name": "tokenAddress",
          "type": "address"
        },
        {
          "indexed": false,
          "internalType": "uint256",
          "name": "tokenId",
          "type": "uint256"
        },
        {
          "indexed": false,
          "internalType": "uint256",
          "name": "amount",
          "type": "uint256"
        },
        {
          "indexed": false,
          "internalType": "uint256",
          "name": "collectionId",
          "type": "uint256"
        },
        {
          "indexed": false,
          "internalType": "address",
          "name": "ownerAddress",
          "type": "address"
        }
      ],
      "name": "ItemRemovedFromCollection",
      "type": "event"
    },
    {
      "anonymous": false,
      "inputs": [
        {
          "indexed": true,
          "internalType": "address",
          "name": "previousOwner",
          "type": "address"
        },
        {
          "indexed": true,
          "internalType": "address",
          "name": "newOwner",
          "type": "address"
        }
      ],
      "name": "OwnershipTransferred",
      "type": "event"
    },
    {
      "anonymous": false,
      "inputs": [
        {
          "indexed": true,
          "internalType": "address",
          "name": "implementation",
          "type": "address"
        }
      ],
      "name": "Upgraded",
      "type": "event"
    },
    {
      "inputs": [
        {
          "internalType": "address",
          "name": "",
          "type": "address"
        },
        {
          "internalType": "address",
          "name": "",
          "type": "address"
        },
        {
          "internalType": "uint256[]",
          "name": "",
          "type": "uint256[]"
        },
        {
          "internalType": "uint256[]",
          "name": "",
          "type": "uint256[]"
        },
        {
          "internalType": "bytes",
          "name": "",
          "type": "bytes"
        }
      ],
      "name": "onERC1155BatchReceived",
      "outputs": [
        {
          "internalType": "bytes4",
          "name": "",
          "type": "bytes4"
        }
      ],
      "stateMutability": "nonpayable",
      "type": "function"
    },
    {
      "inputs": [
        {
          "internalType": "address",
          "name": "",
          "type": "address"
        },
        {
          "internalType": "address",
          "name": "",
          "type": "address"
        },
        {
          "internalType": "uint256",
          "name": "",
          "type": "uint256"
        },
        {
          "internalType": "uint256",
          "name": "",
          "type": "uint256"
        },
        {
          "internalType": "bytes",
          "name": "",
          "type": "bytes"
        }
      ],
      "name": "onERC1155Received",
      "outputs": [
        {
          "internalType": "bytes4",
          "name": "",
          "type": "bytes4"
        }
      ],
      "stateMutability": "nonpayable",
      "type": "function"
    },
    {
      "inputs": [],
      "name": "owner",
      "outputs": [
        {
          "internalType": "address",
          "name": "",
          "type": "address"
        }
      ],
      "stateMutability": "view",
      "type": "function"
    },
    {
      "inputs": [],
      "name": "proxiableUUID",
      "outputs": [
        {
          "internalType": "bytes32",
          "name": "",
          "type": "bytes32"
        }
      ],
      "stateMutability": "view",
      "type": "function"
    },
    {
      "inputs": [],
      "name": "renounceOwnership",
      "outputs": [],
      "stateMutability": "nonpayable",
      "type": "function"
    },
    {
      "inputs": [
        {
          "internalType": "bytes4",
          "name": "interfaceId",
          "type": "bytes4"
        }
      ],
      "name": "supportsInterface",
      "outputs": [
        {
          "internalType": "bool",
          "name": "",
          "type": "bool"
        }
      ],
      "stateMutability": "view",
      "type": "function"
    },
    {
      "inputs": [
        {
          "internalType": "address",
          "name": "newOwner",
          "type": "address"
        }
      ],
      "name": "transferOwnership",
      "outputs": [],
      "stateMutability": "nonpayable",
      "type": "function"
    },
    {
      "inputs": [
        {
          "internalType": "address",
          "name": "newImplementation",
          "type": "address"
        }
      ],
      "name": "upgradeTo",
      "outputs": [],
      "stateMutability": "nonpayable",
      "type": "function"
    },
    {
      "inputs": [
        {
          "internalType": "address",
          "name": "newImplementation",
          "type": "address"
        },
        {
          "internalType": "bytes",
          "name": "data",
          "type": "bytes"
        }
      ],
      "name": "upgradeToAndCall",
      "outputs": [],
      "stateMutability": "payable",
      "type": "function"
    },
    {
      "inputs": [
        {
          "internalType": "address",
          "name": "_nftAddress",
          "type": "address"
        }
      ],
      "name": "initialize",
      "outputs": [],
      "stateMutability": "nonpayable",
      "type": "function"
    },
    {
      "inputs": [
        {
          "internalType": "address",
          "name": "_contract",
          "type": "address"
        }
      ],
      "name": "addContractAddress",
      "outputs": [],
      "stateMutability": "nonpayable",
      "type": "function"
    },
    {
      "inputs": [
        {
          "internalType": "address",
          "name": "contractAddress",
          "type": "address"
        },
        {
          "internalType": "uint256",
          "name": "tokenId",
          "type": "uint256"
        },
        {
          "internalType": "uint256",
          "name": "tokenAmount",
          "type": "uint256"
        },
        {
          "internalType": "uint256",
          "name": "collectionId",
          "type": "uint256"
        }
      ],
      "name": "addItemToCollection",
      "outputs": [],
      "stateMutability": "nonpayable",
      "type": "function"
    },
    {
      "inputs": [
        {
          "internalType": "address",
          "name": "contractAddress",
          "type": "address"
        },
        {
          "internalType": "uint256",
          "name": "tokenId",
          "type": "uint256"
        },
        {
          "internalType": "uint256",
          "name": "tokenAmount",
          "type": "uint256"
        },
        {
          "internalType": "uint256",
          "name": "collectionId",
          "type": "uint256"
        }
      ],
      "name": "removeItemFromCollection",
      "outputs": [],
      "stateMutability": "nonpayable",
      "type": "function"
    },
    {
      "inputs": [
        {
          "internalType": "address",
          "name": "account",
          "type": "address"
        },
        {
          "internalType": "uint256",
          "name": "collectionId",
          "type": "uint256"
        }
      ],
      "name": "getCollection",
      "outputs": [
        {
          "components": [
            {
              "internalType": "uint256",
              "name": "item_id",
              "type": "uint256"
            },
            {
              "internalType": "uint256",
              "name": "item_count",
              "type": "uint256"
            }
          ],
          "internalType": "struct KollectPrivateCollection_V1.CollectionItem[]",
          "name": "",
          "type": "tuple[]"
        }
      ],
      "stateMutability": "view",
      "type": "function"
    },
    {
      "inputs": [
        {
          "internalType": "address",
          "name": "account",
          "type": "address"
        },
        {
          "internalType": "uint256",
          "name": "collectionId",
          "type": "uint256"
        }
      ],
      "name": "getCollectionArrays",
      "outputs": [
        {
          "internalType": "uint256[]",
          "name": "",
          "type": "uint256[]"
        },
        {
          "internalType": "uint256[]",
          "name": "",
          "type": "uint256[]"
        }
      ],
      "stateMutability": "view",
      "type": "function"
    },
    {
      "inputs": [
        {
          "internalType": "uint256",
          "name": "collectionId",
          "type": "uint256"
        }
      ],
      "name": "getMyCollection",
      "outputs": [
        {
          "components": [
            {
              "internalType": "uint256",
              "name": "item_id",
              "type": "uint256"
            },
            {
              "internalType": "uint256",
              "name": "item_count",
              "type": "uint256"
            }
          ],
          "internalType": "struct KollectPrivateCollection_V1.CollectionItem[]",
          "name": "",
          "type": "tuple[]"
        }
      ],
      "stateMutability": "view",
      "type": "function"
    },
    {
      "inputs": [
        {
          "internalType": "uint256",
          "name": "collectionId",
          "type": "uint256"
        }
      ],
      "name": "getMyCollectionArrays",
      "outputs": [
        {
          "internalType": "uint256[]",
          "name": "",
          "type": "uint256[]"
        },
        {
          "internalType": "uint256[]",
          "name": "",
          "type": "uint256[]"
        }
      ],
      "stateMutability": "view",
      "type": "function"
    }
  ],
  "bytecode": "0x60a06040523060805234801561001457600080fd5b5060805161218361004c600039600081816103bb0152818161040401528181610694015281816106d4015261076701526121836000f3fe6080604052600436106100fe5760003560e01c80639a886c4611610095578063c4d66de811610064578063c4d66de8146102c0578063c912414f146102e0578063d0ad17421461030d578063f23a6e611461032d578063f2fde38b1461035957600080fd5b80639a886c461461021b578063b11ce2db1461023b578063bc197c811461025b578063c4556a6e146102a057600080fd5b806352d1902d116100d157806352d1902d1461019b5780636c455a8c146101be578063715018a6146101de5780638da5cb5b146101f357600080fd5b806301ffc9a7146101035780633659cfe614610138578063476582b81461015a5780634f1ef28614610188575b600080fd5b34801561010f57600080fd5b5061012361011e366004611a6a565b610379565b60405190151581526020015b60405180910390f35b34801561014457600080fd5b50610158610153366004611ab0565b6103b0565b005b34801561016657600080fd5b5061017a610175366004611acb565b610499565b60405161012f929190611b30565b610158610196366004611c0c565b610689565b3480156101a757600080fd5b506101b061075a565b60405190815260200161012f565b3480156101ca57600080fd5b506101586101d9366004611c5a565b61080d565b3480156101ea57600080fd5b50610158610c39565b3480156101ff57600080fd5b506033546040516001600160a01b03909116815260200161012f565b34801561022757600080fd5b50610158610236366004611c5a565b610c6f565b34801561024757600080fd5b50610158610256366004611ab0565b610fe3565b34801561026757600080fd5b50610287610276366004611d13565b63bc197c8160e01b95945050505050565b6040516001600160e01b0319909116815260200161012f565b3480156102ac57600080fd5b5061017a6102bb366004611dbd565b611068565b3480156102cc57600080fd5b506101586102db366004611ab0565b61122a565b3480156102ec57600080fd5b506103006102fb366004611acb565b6112fc565b60405161012f9190611dd6565b34801561031957600080fd5b50610300610328366004611dbd565b61138f565b34801561033957600080fd5b50610287610348366004611e25565b63f23a6e6160e01b95945050505050565b34801561036557600080fd5b50610158610374366004611ab0565b611418565b60006001600160e01b03198216630271189760e51b14806103aa57506301ffc9a760e01b6001600160e01b03198316145b92915050565b306001600160a01b037f00000000000000000000000000000000000000000000000000000000000000001614156104025760405162461bcd60e51b81526004016103f990611e8a565b60405180910390fd5b7f00000000000000000000000000000000000000000000000000000000000000006001600160a01b031661044b600080516020612107833981519152546001600160a01b031690565b6001600160a01b0316146104715760405162461bcd60e51b81526004016103f990611ed6565b61047a816114b0565b60408051600080825260208201909252610496918391906114da565b50565b6001600160a01b038216600090815261015f60209081526040808320848452909152812054606091829167ffffffffffffffff8111156104db576104db611b55565b604051908082528060200260200182016040528015610504578160200160208202803683370190505b506001600160a01b038616600090815261015f602090815260408083208884529091528120549192509067ffffffffffffffff81111561054657610546611b55565b60405190808252806020026020018201604052801561056f578160200160208202803683370190505b50905060005b6001600160a01b038716600090815261015f6020908152604080832089845290915290205481101561067d576001600160a01b038716600090815261015f6020908152604080832089845290915290208054829081106105d7576105d7611f22565b9060005260206000209060020201600001548382815181106105fb576105fb611f22565b6020908102919091018101919091526001600160a01b038816600090815261015f825260408082208983529092522080548290811061063c5761063c611f22565b90600052602060002090600202016001015482828151811061066057610660611f22565b60209081029190910101528061067581611f4e565b915050610575565b50909590945092505050565b306001600160a01b037f00000000000000000000000000000000000000000000000000000000000000001614156106d25760405162461bcd60e51b81526004016103f990611e8a565b7f00000000000000000000000000000000000000000000000000000000000000006001600160a01b031661071b600080516020612107833981519152546001600160a01b031690565b6001600160a01b0316146107415760405162461bcd60e51b81526004016103f990611ed6565b61074a826114b0565b610756828260016114da565b5050565b6000306001600160a01b037f000000000000000000000000000000000000000000000000000000000000000016146107fa5760405162461bcd60e51b815260206004820152603860248201527f555550535570677261646561626c653a206d757374206e6f742062652063616c60448201527f6c6564207468726f7567682064656c656761746563616c6c000000000000000060648201526084016103f9565b5060008051602061210783398151915290565b6001600160a01b0384166000908152610160602052604090205460ff1661086b5760405162461bcd60e51b81526020600482015260126024820152711b9bdd081d985b1a590818dbdb9d1c9858dd60721b60448201526064016103f9565b8360006001600160a01b03821662fdd58e336040516001600160e01b031960e084901b1681526001600160a01b03909116600482015260248101889052604401602060405180830381865afa1580156108c8573d6000803e3d6000fd5b505050506040513d601f19601f820116820180604052508101906108ec9190611f69565b116109395760405162461bcd60e51b815260206004820152601b60248201527f63616c6c6572206d757374206f776e20676976656e20746f6b656e000000000060448201526064016103f9565b826001600160a01b03821662fdd58e336040516001600160e01b031960e084901b1681526001600160a01b03909116600482015260248101889052604401602060405180830381865afa158015610994573d6000803e3d6000fd5b505050506040513d601f19601f820116820180604052508101906109b89190611f69565b1015610a065760405162461bcd60e51b815260206004820152601f60248201527f63616c6c6572206d757374206861766520656e6f75676820616d6f756e74730060448201526064016103f9565b6001600160a01b03811663e985e9c5336040516001600160e01b031960e084901b1681526001600160a01b039091166004820152306024820152604401602060405180830381865afa158015610a60573d6000803e3d6000fd5b505050506040513d601f19601f82011682018060405250810190610a849190611f82565b610ad05760405162461bcd60e51b815260206004820152601960248201527f636f6e7472616374206d75737420626520617070726f7665640000000000000060448201526064016103f9565b604051637921219560e11b81526001600160a01b0382169063f242432a90610b02903390309089908990600401611fa4565b600060405180830381600087803b158015610b1c57600080fd5b505af1158015610b30573d6000803e3d6000fd5b505050506000610b7d61015f6000610b453390565b6001600160a01b03166001600160a01b031681526020019081526020016000206000858152602001908152602001600020868661164a565b905080610bd35733600090815261015f6020908152604080832086845282528083208151808301909252888252818301888152815460018082018455928652939094209151600290930290910191825591519101555b7fe189ada268f9c8c242b84d3906295438efbffcf0fb4be096de4b91837c0ad16986868686335b604080516001600160a01b03968716815260208101959095528401929092526060830152909116608082015260a00160405180910390a1505050505050565b6033546001600160a01b03163314610c635760405162461bcd60e51b81526004016103f990611fdc565b610c6d60006116f4565b565b6001600160a01b0384166000908152610160602052604090205460ff16610ccd5760405162461bcd60e51b81526020600482015260126024820152711b9bdd081d985b1a590818dbdb9d1c9858dd60721b60448201526064016103f9565b33600090815261015f602090815260408083208484529091529020548490610d305760405162461bcd60e51b81526020600482015260166024820152753737ba1032bc34b9ba32b21031b7b63632b1ba34b7b760511b60448201526064016103f9565b33600090815261015f6020908152604080832085845282528083208054825181850281018501909352808352610db593859084015b82821015610dab57838290600052602060002090600202016040518060400160405290816000820154815260200160018201548152505081526020019060010190610d65565b5050505086611746565b90508060001914610fb85733600090815261015f602090815260408083208684529091529020805486919083908110610df057610df0611f22565b90600052602060002090600202016000015414610e5b5760405162461bcd60e51b815260206004820152602360248201527f6e6f7420657869737465642074686520746f6b656e20696e20636f6c6c65637460448201526234b7b760e91b60648201526084016103f9565b33600090815261015f602090815260408083208684529091529020805485919083908110610e8b57610e8b611f22565b9060005260206000209060020201600101541015610efe5760405162461bcd60e51b815260206004820152602a60248201527f6e6f7420656e6f75676820746f6b656e20696e20636f6c6c656374696f6e20746044820152696f20776974686472617760b01b60648201526084016103f9565b33600090815261015f602090815260408083208684529091529020805485919083908110610f2e57610f2e611f22565b90600052602060002090600202016001016000828254610f4e9190612011565b9091555050604051637921219560e11b81526001600160a01b0383169063f242432a90610f8590309033908a908a90600401611fa4565b600060405180830381600087803b158015610f9f57600080fd5b505af1158015610fb3573d6000803e3d6000fd5b505050505b7fe2f5aa35fb2e4a28b323491bf9ae4e537773a2887ad950fe77fb8a3cfb6119938686868633610bfa565b6033546001600160a01b0316331461100d5760405162461bcd60e51b81526004016103f990611fdc565b6001600160a01b03811660008181526101606020908152604091829020805460ff1916600117905590519182527fd145927779d3f0dc66f93dfd040e1bf3368e9f41833f9cf98ed79d2afa869a9d910160405180910390a150565b33600090815261015f60209081526040808320848452909152812054606091829167ffffffffffffffff8111156110a1576110a1611b55565b6040519080825280602002602001820160405280156110ca578160200160208202803683370190505b5033600090815261015f602090815260408083208884529091528120549192509067ffffffffffffffff81111561110357611103611b55565b60405190808252806020026020018201604052801561112c578160200160208202803683370190505b50905060005b33600090815261015f6020908152604080832089845290915290205481101561121f5733600090815261015f60209081526040808320898452909152902080548290811061118257611182611f22565b9060005260206000209060020201600001548382815181106111a6576111a6611f22565b60209081029190910181019190915233600090815261015f82526040808220898352909252208054829081106111de576111de611f22565b90600052602060002090600202016001015482828151811061120257611202611f22565b60209081029190910101528061121781611f4e565b915050611132565b509094909350915050565b600054610100900460ff166112455760005460ff1615611249565b303b155b6112ac5760405162461bcd60e51b815260206004820152602e60248201527f496e697469616c697a61626c653a20636f6e747261637420697320616c72656160448201526d191e481a5b9a5d1a585b1a5e995960921b60648201526084016103f9565b600054610100900460ff161580156112ce576000805461ffff19166101011790555b6112d66117b0565b6112de6117df565b6112e782610fe3565b8015610756576000805461ff00191690555050565b6001600160a01b038216600090815261015f602090815260408083208484528252808320805482518185028101850190935280835260609492939192909184015b828210156113835783829060005260206000209060020201604051806040016040529081600082015481526020016001820154815250508152602001906001019061133d565b50505050905092915050565b33600090815261015f602090815260408083208484528252808320805482518185028101850190935280835260609492939192909184015b8282101561140d578382906000526020600020906002020160405180604001604052908160008201548152602001600182015481525050815260200190600101906113c7565b505050509050919050565b6033546001600160a01b031633146114425760405162461bcd60e51b81526004016103f990611fdc565b6001600160a01b0381166114a75760405162461bcd60e51b815260206004820152602660248201527f4f776e61626c653a206e6577206f776e657220697320746865207a65726f206160448201526564647265737360d01b60648201526084016103f9565b610496816116f4565b6033546001600160a01b031633146104965760405162461bcd60e51b81526004016103f990611fdc565b7f4910fdfa16fed3260ed0e7147f7cc6da11a60208b5b9406d12a635614ffd91435460ff16156115125761150d83611806565b505050565b826001600160a01b03166352d1902d6040518163ffffffff1660e01b8152600401602060405180830381865afa92505050801561156c575060408051601f3d908101601f1916820190925261156991810190611f69565b60015b6115cf5760405162461bcd60e51b815260206004820152602e60248201527f45524331393637557067726164653a206e657720696d706c656d656e7461746960448201526d6f6e206973206e6f74205555505360901b60648201526084016103f9565b600080516020612107833981519152811461163e5760405162461bcd60e51b815260206004820152602960248201527f45524331393637557067726164653a20756e737570706f727465642070726f786044820152681a58589b195555525160ba1b60648201526084016103f9565b5061150d8383836118a2565b825460009061165b575060006116ed565b60005b84548110156116e7578385828154811061167a5761167a611f22565b90600052602060002090600202016000015414156116d557828582815481106116a5576116a5611f22565b906000526020600020906002020160010160008282546116c59190612028565b90915550600192506116ed915050565b806116df81611f4e565b91505061165e565b50600090505b9392505050565b603380546001600160a01b038381166001600160a01b0319831681179093556040519116919082907f8be0079c531659141344cd1fd0a4f28419497f9722a3daafe3b4186f6b6457e090600090a35050565b600082516000141561175b57506000196103aa565b60005b83518110156117a5578284828151811061177a5761177a611f22565b60200260200101516000015114156117935790506103aa565b8061179d81611f4e565b91505061175e565b506000199392505050565b600054610100900460ff166117d75760405162461bcd60e51b81526004016103f990612040565b610c6d6118cd565b600054610100900460ff16610c6d5760405162461bcd60e51b81526004016103f990612040565b6001600160a01b0381163b6118735760405162461bcd60e51b815260206004820152602d60248201527f455243313936373a206e657720696d706c656d656e746174696f6e206973206e60448201526c1bdd08184818dbdb9d1c9858dd609a1b60648201526084016103f9565b60008051602061210783398151915280546001600160a01b0319166001600160a01b0392909216919091179055565b6118ab836118fd565b6000825111806118b85750805b1561150d576118c7838361193d565b50505050565b600054610100900460ff166118f45760405162461bcd60e51b81526004016103f990612040565b610c6d336116f4565b61190681611806565b6040516001600160a01b038216907fbc7cd75a20ee27fd9adebab32041f755214dbc6bffa90cc0225b39da2e5c2d3b90600090a250565b60606001600160a01b0383163b6119a55760405162461bcd60e51b815260206004820152602660248201527f416464726573733a2064656c65676174652063616c6c20746f206e6f6e2d636f6044820152651b9d1c9858dd60d21b60648201526084016103f9565b600080846001600160a01b0316846040516119c091906120b7565b600060405180830381855af49150503d80600081146119fb576040519150601f19603f3d011682016040523d82523d6000602084013e611a00565b606091505b5091509150611a28828260405180606001604052806027815260200161212760279139611a31565b95945050505050565b60608315611a405750816116ed565b825115611a505782518084602001fd5b8160405162461bcd60e51b81526004016103f991906120d3565b600060208284031215611a7c57600080fd5b81356001600160e01b0319811681146116ed57600080fd5b80356001600160a01b0381168114611aab57600080fd5b919050565b600060208284031215611ac257600080fd5b6116ed82611a94565b60008060408385031215611ade57600080fd5b611ae783611a94565b946020939093013593505050565b600081518084526020808501945080840160005b83811015611b2557815187529582019590820190600101611b09565b509495945050505050565b604081526000611b436040830185611af5565b8281036020840152611a288185611af5565b634e487b7160e01b600052604160045260246000fd5b604051601f8201601f1916810167ffffffffffffffff81118282101715611b9457611b94611b55565b604052919050565b600082601f830112611bad57600080fd5b813567ffffffffffffffff811115611bc757611bc7611b55565b611bda601f8201601f1916602001611b6b565b818152846020838601011115611bef57600080fd5b816020850160208301376000918101602001919091529392505050565b60008060408385031215611c1f57600080fd5b611c2883611a94565b9150602083013567ffffffffffffffff811115611c4457600080fd5b611c5085828601611b9c565b9150509250929050565b60008060008060808587031215611c7057600080fd5b611c7985611a94565b966020860135965060408601359560600135945092505050565b600082601f830112611ca457600080fd5b8135602067ffffffffffffffff821115611cc057611cc0611b55565b8160051b611ccf828201611b6b565b9283528481018201928281019087851115611ce957600080fd5b83870192505b84831015611d0857823582529183019190830190611cef565b979650505050505050565b600080600080600060a08688031215611d2b57600080fd5b611d3486611a94565b9450611d4260208701611a94565b9350604086013567ffffffffffffffff80821115611d5f57600080fd5b611d6b89838a01611c93565b94506060880135915080821115611d8157600080fd5b611d8d89838a01611c93565b93506080880135915080821115611da357600080fd5b50611db088828901611b9c565b9150509295509295909350565b600060208284031215611dcf57600080fd5b5035919050565b602080825282518282018190526000919060409081850190868401855b82811015611e1857815180518552860151868501529284019290850190600101611df3565b5091979650505050505050565b600080600080600060a08688031215611e3d57600080fd5b611e4686611a94565b9450611e5460208701611a94565b93506040860135925060608601359150608086013567ffffffffffffffff811115611e7e57600080fd5b611db088828901611b9c565b6020808252602c908201527f46756e6374696f6e206d7573742062652063616c6c6564207468726f7567682060408201526b19195b1959d85d1958d85b1b60a21b606082015260800190565b6020808252602c908201527f46756e6374696f6e206d7573742062652063616c6c6564207468726f7567682060408201526b6163746976652070726f787960a01b606082015260800190565b634e487b7160e01b600052603260045260246000fd5b634e487b7160e01b600052601160045260246000fd5b6000600019821415611f6257611f62611f38565b5060010190565b600060208284031215611f7b57600080fd5b5051919050565b600060208284031215611f9457600080fd5b815180151581146116ed57600080fd5b6001600160a01b0394851681529290931660208301526040820152606081019190915260a06080820181905260009082015260c00190565b6020808252818101527f4f776e61626c653a2063616c6c6572206973206e6f7420746865206f776e6572604082015260600190565b60008282101561202357612023611f38565b500390565b6000821982111561203b5761203b611f38565b500190565b6020808252602b908201527f496e697469616c697a61626c653a20636f6e7472616374206973206e6f74206960408201526a6e697469616c697a696e6760a81b606082015260800190565b60005b838110156120a657818101518382015260200161208e565b838111156118c75750506000910152565b600082516120c981846020870161208b565b9190910192915050565b60208152600082518060208401526120f281604085016020870161208b565b601f01601f1916919091016040019291505056fe360894a13ba1a3210667c828492db98dca3e2076cc3735a920a3ca505d382bbc416464726573733a206c6f772d6c6576656c2064656c65676174652063616c6c206661696c6564a2646970667358221220c24846cb913f9f22ccabf5e58fa7c5eb7f31eb319194d93f0dc56c4f8b072f4564736f6c634300080b0033",
  "immutableReferences": {
    "1189": [
      {
        "length": 32,
        "start": 955
      },
      {
        "length": 32,
        "start": 1028
      },
      {
        "length": 32,
        "start": 1684
      },
      {
        "length": 32,
        "start": 1748
      },
      {
        "length": 32,
        "start": 1895
      }
    ]
  },
  "source": "// SPDX-License-Identifier: MIT\r\n\r\npragma solidity 0.8.11;\r\n\r\nimport \"@openzeppelin/contracts-upgradeable/token/ERC1155/utils/ERC1155HolderUpgradeable.sol\";\r\nimport \"@openzeppelin/contracts-upgradeable/access/OwnableUpgradeable.sol\";\r\nimport \"@openzeppelin/contracts-upgradeable/proxy/utils/Initializable.sol\";\r\nimport \"@openzeppelin/contracts-upgradeable/proxy/utils/UUPSUpgradeable.sol\";\r\nimport \"./interfaces/ikollect-1155-v1.sol\";\r\n\r\ncontract KollectPrivateCollection_V1 is \r\n    Initializable,\r\n    OwnableUpgradeable,\r\n    ERC1155HolderUpgradeable,\r\n    UUPSUpgradeable\r\n{\r\n    \r\n    struct CollectionItem {\r\n        uint256 item_id;\r\n        uint256 item_count;\r\n    }\r\n\r\n    mapping (address => mapping(uint256 => CollectionItem[])) private collections;\r\n    mapping (address => bool) whitelistedContracts;\r\n\r\n    event ItemAddedToCollection(address tokenAddress, uint256 tokenId, uint256 amount, uint256 collectionId, address ownerAddress);\r\n    event ItemRemovedFromCollection(address tokenAddress, uint256 tokenId, uint256 amount, uint256 collectionId, address ownerAddress);\r\n    event AddedContractToWhitelists(address contractAddress);\r\n    \r\n    function initialize(address _nftAddress) public initializer {\r\n        __Ownable_init();\r\n        __UUPSUpgradeable_init();\r\n        addContractAddress(_nftAddress);\r\n    }\r\n\r\n    function addContractAddress(address _contract) public onlyOwner {\r\n        whitelistedContracts[_contract] = true;\r\n        emit AddedContractToWhitelists(_contract);\r\n    }\r\n\r\n    modifier isValidContractAddress(address _contract) {\r\n        require(whitelistedContracts[_contract], \"not valid contract\");\r\n        _;\r\n    }\r\n\r\n    function checkCollectionItem(CollectionItem[] storage collectionArray, uint tokenId, uint tokenAmount) internal returns (bool) {\r\n        if (collectionArray.length == 0) return false;\r\n        for (uint i = 0; i < collectionArray.length; i++)\r\n        {\r\n            if (collectionArray[i].item_id == tokenId) {\r\n                collectionArray[i].item_count += tokenAmount;\r\n                return true;\r\n            }\r\n        }\r\n        return false;\r\n    }\r\n\r\n    function findCollectionItem(CollectionItem[] memory collectionArray, uint tokenId) internal pure returns (uint) {\r\n        if (collectionArray.length == 0) return 0xffffffffffffffffffffffffffffffffffffffffffffffffffffffffffffffff;\r\n        for (uint i = 0; i < collectionArray.length; i++)\r\n        {\r\n            if (collectionArray[i].item_id == tokenId) {\r\n                return i;\r\n            }\r\n        }\r\n        return 0xffffffffffffffffffffffffffffffffffffffffffffffffffffffffffffffff;\r\n    }\r\n\r\n    function addItemToCollection(address contractAddress, uint256 tokenId, uint256 tokenAmount, uint256 collectionId) public {\r\n        require(whitelistedContracts[contractAddress], \"not valid contract\");\r\n        IKOLLECT1155_V1 kollect_nft = IKOLLECT1155_V1(contractAddress);\r\n        require(kollect_nft.balanceOf(_msgSender(), tokenId) > 0, \"caller must own given token\");\r\n        require(kollect_nft.balanceOf(_msgSender(), tokenId) >= tokenAmount, \"caller must have enough amounts\");\r\n        require(kollect_nft.isApprovedForAll(_msgSender(), address(this)), \"contract must be approved\");\r\n        \r\n        kollect_nft.safeTransferFrom(_msgSender(), address(this), tokenId, tokenAmount, \"\");\r\n\r\n        bool check = checkCollectionItem(collections[_msgSender()][collectionId], tokenId, tokenAmount);\r\n        if (!check) {\r\n            collections[_msgSender()][collectionId].push(CollectionItem({\r\n                item_id: tokenId,\r\n                item_count: tokenAmount\r\n            }));\r\n        }\r\n        \r\n        emit ItemAddedToCollection(contractAddress, tokenId, tokenAmount, collectionId, _msgSender());\r\n    }\r\n\r\n    function removeItemFromCollection(address contractAddress, uint256 tokenId, uint256 tokenAmount, uint256 collectionId) public {\r\n        require(whitelistedContracts[contractAddress], \"not valid contract\");\r\n        IKOLLECT1155_V1 kollect_nft = IKOLLECT1155_V1(contractAddress);\r\n        require(collections[_msgSender()][collectionId].length > 0, \"not existed collection\");\r\n        \r\n        uint index = findCollectionItem(collections[_msgSender()][collectionId], tokenId);\r\n        if (index != 0xffffffffffffffffffffffffffffffffffffffffffffffffffffffffffffffff) {\r\n            require(collections[_msgSender()][collectionId][index].item_id == tokenId, \"not existed the token in collection\");\r\n            require(collections[_msgSender()][collectionId][index].item_count >= tokenAmount, \"not enough token in collection to withdraw\");\r\n            \r\n            collections[_msgSender()][collectionId][index].item_count -= tokenAmount;\r\n            kollect_nft.safeTransferFrom(address(this), _msgSender(), tokenId, tokenAmount, \"\");\r\n        }\r\n        \r\n        emit ItemRemovedFromCollection(contractAddress, tokenId, tokenAmount, collectionId, _msgSender());\r\n    }\r\n\r\n    function getCollection(address account, uint256 collectionId) public view returns (CollectionItem[] memory) {\r\n        return collections[account][collectionId];\r\n    }\r\n\r\n    function getCollectionArrays(address account, uint256 collectionId) public view returns (uint[] memory, uint[] memory) {\r\n        \r\n        uint[] memory ids = new uint[](collections[account][collectionId].length);\r\n        uint[] memory counts = new uint[](collections[account][collectionId].length);\r\n\r\n        for (uint i = 0; i < collections[account][collectionId].length; i++) {\r\n            ids[i] = collections[account][collectionId][i].item_id;\r\n            counts[i] = collections[account][collectionId][i].item_count;\r\n        }\r\n        return (ids, counts);\r\n    }\r\n\r\n    function getMyCollection(uint256 collectionId) public view returns (CollectionItem[] memory) {\r\n        return collections[_msgSender()][collectionId];\r\n    }\r\n\r\n    function getMyCollectionArrays(uint256 collectionId) public view returns (uint[] memory, uint[] memory) {\r\n        \r\n        uint[] memory ids = new uint[](collections[_msgSender()][collectionId].length);\r\n        uint[] memory counts = new uint[](collections[_msgSender()][collectionId].length);\r\n\r\n        for (uint i = 0; i < collections[_msgSender()][collectionId].length; i++) {\r\n            ids[i] = collections[_msgSender()][collectionId][i].item_id;\r\n            counts[i] = collections[_msgSender()][collectionId][i].item_count;\r\n        }\r\n        return (ids, counts);\r\n    }\r\n\r\n    function _authorizeUpgrade(address newImplementation) internal override onlyOwner {}\r\n}",
  "sourcePath": "D:\\Projects\\NFT-Projects\\kollect-project\\kollect-truffle\\upgradable-contracts\\Truffle\\contracts\\kollect-contracts\\kollect-private-collection-v1.sol",
  "compiler": {
    "name": "solc",
    "version": "0.8.11+commit.d7f03943.Emscripten.clang"
  },
  "schemaVersion": "3.4.5",
  "updatedAt": "2022-04-06T18:40:49.206Z",
  "devdoc": {
    "kind": "dev",
    "methods": {
      "owner()": {
        "details": "Returns the address of the current owner."
      },
      "proxiableUUID()": {
        "details": "Implementation of the ERC1822 {proxiableUUID} function. This returns the storage slot used by the implementation. It is used to validate that the this implementation remains valid after an upgrade. IMPORTANT: A proxy pointing at a proxiable contract should not be considered proxiable itself, because this risks bricking a proxy that upgrades to it, by delegating to itself until out of gas. Thus it is critical that this function revert if invoked through a proxy. This is guaranteed by the `notDelegated` modifier."
      },
      "renounceOwnership()": {
        "details": "Leaves the contract without owner. It will not be possible to call `onlyOwner` functions anymore. Can only be called by the current owner. NOTE: Renouncing ownership will leave the contract without an owner, thereby removing any functionality that is only available to the owner."
      },
      "supportsInterface(bytes4)": {
        "details": "See {IERC165-supportsInterface}."
      },
      "transferOwnership(address)": {
        "details": "Transfers ownership of the contract to a new account (`newOwner`). Can only be called by the current owner."
      },
      "upgradeTo(address)": {
        "details": "Upgrade the implementation of the proxy to `newImplementation`. Calls {_authorizeUpgrade}. Emits an {Upgraded} event."
      },
      "upgradeToAndCall(address,bytes)": {
        "details": "Upgrade the implementation of the proxy to `newImplementation`, and subsequently execute the function call encoded in `data`. Calls {_authorizeUpgrade}. Emits an {Upgraded} event."
      }
    },
    "version": 1
  },
  "userdoc": {
    "kind": "user",
    "methods": {},
    "version": 1
  }
}