{
  "contractName": "KollectMarketStorage_V1",
  "abi": [
    {
      "anonymous": false,
      "inputs": [
        {
          "indexed": false,
          "internalType": "address",
          "name": "contractAddress",
          "type": "address"
        }
      ],
      "name": "AddedContractToWhitelists",
      "type": "event"
    },
    {
      "anonymous": false,
      "inputs": [
        {
          "indexed": false,
          "internalType": "address",
          "name": "previousAdmin",
          "type": "address"
        },
        {
          "indexed": false,
          "internalType": "address",
          "name": "newAdmin",
          "type": "address"
        }
      ],
      "name": "AdminChanged",
      "type": "event"
    },
    {
      "anonymous": false,
      "inputs": [
        {
          "indexed": true,
          "internalType": "address",
          "name": "beacon",
          "type": "address"
        }
      ],
      "name": "BeaconUpgraded",
      "type": "event"
    },
    {
      "anonymous": false,
      "inputs": [
        {
          "indexed": false,
          "internalType": "uint256",
          "name": "prev",
          "type": "uint256"
        },
        {
          "indexed": false,
          "internalType": "uint256",
          "name": "current",
          "type": "uint256"
        }
      ],
      "name": "ListingFeeChanged",
      "type": "event"
    },
    {
      "anonymous": false,
      "inputs": [
        {
          "indexed": false,
          "internalType": "uint256",
          "name": "index",
          "type": "uint256"
        },
        {
          "indexed": false,
          "internalType": "address",
          "name": "addressNFTCollection",
          "type": "address"
        },
        {
          "indexed": false,
          "internalType": "address",
          "name": "addressPaymentToken",
          "type": "address"
        },
        {
          "indexed": false,
          "internalType": "uint256",
          "name": "nftId",
          "type": "uint256"
        },
        {
          "indexed": false,
          "internalType": "uint256",
          "name": "nftCount",
          "type": "uint256"
        },
        {
          "indexed": false,
          "internalType": "address",
          "name": "mintedBy",
          "type": "address"
        },
        {
          "indexed": false,
          "internalType": "address",
          "name": "currentBuyer",
          "type": "address"
        },
        {
          "indexed": false,
          "internalType": "uint256",
          "name": "currentListingPrice",
          "type": "uint256"
        },
        {
          "indexed": false,
          "internalType": "bool",
          "name": "isSold",
          "type": "bool"
        },
        {
          "indexed": false,
          "internalType": "bool",
          "name": "canClaim",
          "type": "bool"
        }
      ],
      "name": "NewSimpleMarket",
      "type": "event"
    },
    {
      "anonymous": false,
      "inputs": [
        {
          "indexed": false,
          "internalType": "address",
          "name": "prev",
          "type": "address"
        },
        {
          "indexed": false,
          "internalType": "address",
          "name": "current",
          "type": "address"
        }
      ],
      "name": "OperatorChanged",
      "type": "event"
    },
    {
      "anonymous": false,
      "inputs": [
        {
          "indexed": true,
          "internalType": "address",
          "name": "previousOwner",
          "type": "address"
        },
        {
          "indexed": true,
          "internalType": "address",
          "name": "newOwner",
          "type": "address"
        }
      ],
      "name": "OwnershipTransferred",
      "type": "event"
    },
    {
      "anonymous": false,
      "inputs": [
        {
          "indexed": true,
          "internalType": "address",
          "name": "implementation",
          "type": "address"
        }
      ],
      "name": "Upgraded",
      "type": "event"
    },
    {
      "inputs": [],
      "name": "listingFeeRate",
      "outputs": [
        {
          "internalType": "uint256",
          "name": "",
          "type": "uint256"
        }
      ],
      "stateMutability": "view",
      "type": "function"
    },
    {
      "inputs": [],
      "name": "name",
      "outputs": [
        {
          "internalType": "string",
          "name": "",
          "type": "string"
        }
      ],
      "stateMutability": "view",
      "type": "function"
    },
    {
      "inputs": [
        {
          "internalType": "address",
          "name": "",
          "type": "address"
        },
        {
          "internalType": "address",
          "name": "",
          "type": "address"
        },
        {
          "internalType": "uint256[]",
          "name": "",
          "type": "uint256[]"
        },
        {
          "internalType": "uint256[]",
          "name": "",
          "type": "uint256[]"
        },
        {
          "internalType": "bytes",
          "name": "",
          "type": "bytes"
        }
      ],
      "name": "onERC1155BatchReceived",
      "outputs": [
        {
          "internalType": "bytes4",
          "name": "",
          "type": "bytes4"
        }
      ],
      "stateMutability": "nonpayable",
      "type": "function"
    },
    {
      "inputs": [],
      "name": "owner",
      "outputs": [
        {
          "internalType": "address",
          "name": "",
          "type": "address"
        }
      ],
      "stateMutability": "view",
      "type": "function"
    },
    {
      "inputs": [],
      "name": "proxiableUUID",
      "outputs": [
        {
          "internalType": "bytes32",
          "name": "",
          "type": "bytes32"
        }
      ],
      "stateMutability": "view",
      "type": "function"
    },
    {
      "inputs": [],
      "name": "renounceOwnership",
      "outputs": [],
      "stateMutability": "nonpayable",
      "type": "function"
    },
    {
      "inputs": [],
      "name": "simpleMarketIndex",
      "outputs": [
        {
          "internalType": "uint256",
          "name": "",
          "type": "uint256"
        }
      ],
      "stateMutability": "view",
      "type": "function"
    },
    {
      "inputs": [],
      "name": "simpleMarketSoldIndex",
      "outputs": [
        {
          "internalType": "uint256",
          "name": "",
          "type": "uint256"
        }
      ],
      "stateMutability": "view",
      "type": "function"
    },
    {
      "inputs": [
        {
          "internalType": "bytes4",
          "name": "interfaceId",
          "type": "bytes4"
        }
      ],
      "name": "supportsInterface",
      "outputs": [
        {
          "internalType": "bool",
          "name": "",
          "type": "bool"
        }
      ],
      "stateMutability": "view",
      "type": "function"
    },
    {
      "inputs": [
        {
          "internalType": "address",
          "name": "newOwner",
          "type": "address"
        }
      ],
      "name": "transferOwnership",
      "outputs": [],
      "stateMutability": "nonpayable",
      "type": "function"
    },
    {
      "inputs": [
        {
          "internalType": "address",
          "name": "newImplementation",
          "type": "address"
        }
      ],
      "name": "upgradeTo",
      "outputs": [],
      "stateMutability": "nonpayable",
      "type": "function"
    },
    {
      "inputs": [
        {
          "internalType": "address",
          "name": "newImplementation",
          "type": "address"
        },
        {
          "internalType": "bytes",
          "name": "data",
          "type": "bytes"
        }
      ],
      "name": "upgradeToAndCall",
      "outputs": [],
      "stateMutability": "payable",
      "type": "function"
    },
    {
      "inputs": [],
      "name": "initialize",
      "outputs": [],
      "stateMutability": "nonpayable",
      "type": "function"
    },
    {
      "inputs": [
        {
          "internalType": "address",
          "name": "_contract",
          "type": "address"
        }
      ],
      "name": "addContractAddress",
      "outputs": [],
      "stateMutability": "nonpayable",
      "type": "function"
    },
    {
      "inputs": [
        {
          "internalType": "address",
          "name": "_addr",
          "type": "address"
        }
      ],
      "name": "changeOperator",
      "outputs": [
        {
          "internalType": "bool",
          "name": "",
          "type": "bool"
        }
      ],
      "stateMutability": "nonpayable",
      "type": "function"
    },
    {
      "inputs": [
        {
          "internalType": "uint256",
          "name": "_rate",
          "type": "uint256"
        }
      ],
      "name": "changeListingFeeRate",
      "outputs": [
        {
          "internalType": "bool",
          "name": "",
          "type": "bool"
        }
      ],
      "stateMutability": "nonpayable",
      "type": "function"
    },
    {
      "inputs": [
        {
          "internalType": "address",
          "name": "",
          "type": "address"
        },
        {
          "internalType": "address",
          "name": "",
          "type": "address"
        },
        {
          "internalType": "uint256",
          "name": "",
          "type": "uint256"
        },
        {
          "internalType": "uint256",
          "name": "",
          "type": "uint256"
        },
        {
          "internalType": "bytes",
          "name": "",
          "type": "bytes"
        }
      ],
      "name": "onERC1155Received",
      "outputs": [
        {
          "internalType": "bytes4",
          "name": "",
          "type": "bytes4"
        }
      ],
      "stateMutability": "nonpayable",
      "type": "function"
    }
  ],
  "bytecode": "0x60a06040523060805234801561001457600080fd5b5060805161136661004c6000396000818161050101528181610541015281816105e10152818161062101526106b401526113666000f3fe6080604052600436106100fe5760003560e01c80638129fc1c11610095578063ba73105811610064578063ba73105814610272578063bc197c8114610289578063f23a6e61146102ce578063f2fde38b146102fa578063f72075c81461031a57600080fd5b80638129fc1c146101fe5780638da5cb5b14610213578063937f12a21461023b578063b11ce2db1461025257600080fd5b80633659cfe6116100d15780633659cfe61461019f5780634f1ef286146101c157806352d1902d146101d4578063715018a6146101e957600080fd5b806301ffc9a71461010357806306394c9b1461013857806306fdde03146101585780630dcda8b51461017a575b600080fd5b34801561010f57600080fd5b5061012361011e366004610e44565b61033a565b60405190151581526020015b60405180910390f35b34801561014457600080fd5b50610123610153366004610e85565b610371565b34801561016457600080fd5b5061016d610467565b60405161012f9190610ecc565b34801561018657600080fd5b506101916101925481565b60405190815260200161012f565b3480156101ab57600080fd5b506101bf6101ba366004610e85565b6104f6565b005b6101bf6101cf366004610fb6565b6105d6565b3480156101e057600080fd5b506101916106a7565b3480156101f557600080fd5b506101bf61075a565b34801561020a57600080fd5b506101bf610790565b34801561021f57600080fd5b506033546040516001600160a01b03909116815260200161012f565b34801561024757600080fd5b506101916101945481565b34801561025e57600080fd5b506101bf61026d366004610e85565b610848565b34801561027e57600080fd5b506101916101955481565b34801561029557600080fd5b506102b56102a4366004611084565b63bc197c8160e01b95945050505050565b6040516001600160e01b0319909116815260200161012f565b3480156102da57600080fd5b506102b56102e936600461112e565b63f23a6e6160e01b95945050505050565b34801561030657600080fd5b506101bf610315366004610e85565b6108cd565b34801561032657600080fd5b50610123610335366004611193565b610965565b60006001600160e01b03198216630271189760e51b148061036b57506301ffc9a760e01b6001600160e01b03198316145b92915050565b6033546000906001600160a01b031633146103a75760405162461bcd60e51b815260040161039e906111ac565b60405180910390fd5b6001600160a01b0382166103fd5760405162461bcd60e51b815260206004820152601760248201527f7a65726f20616464726573732076616c69646174696f6e000000000000000000604482015260640161039e565b61019380546001600160a01b038481166001600160a01b031983168117909355604080519190921680825260208201939093527fd58299b712891143e76310d5e664c4203c940a67db37cf856bdaa3c5c76a802c91015b60405180910390a160019150505b919050565b6101918054610475906111e1565b80601f01602080910402602001604051908101604052809291908181526020018280546104a1906111e1565b80156104ee5780601f106104c3576101008083540402835291602001916104ee565b820191906000526020600020905b8154815290600101906020018083116104d157829003601f168201915b505050505081565b306001600160a01b037f000000000000000000000000000000000000000000000000000000000000000016141561053f5760405162461bcd60e51b815260040161039e9061121c565b7f00000000000000000000000000000000000000000000000000000000000000006001600160a01b03166105886000805160206112ea833981519152546001600160a01b031690565b6001600160a01b0316146105ae5760405162461bcd60e51b815260040161039e90611268565b6105b781610a1d565b604080516000808252602082019092526105d391839190610a47565b50565b306001600160a01b037f000000000000000000000000000000000000000000000000000000000000000016141561061f5760405162461bcd60e51b815260040161039e9061121c565b7f00000000000000000000000000000000000000000000000000000000000000006001600160a01b03166106686000805160206112ea833981519152546001600160a01b031690565b6001600160a01b03161461068e5760405162461bcd60e51b815260040161039e90611268565b61069782610a1d565b6106a382826001610a47565b5050565b6000306001600160a01b037f000000000000000000000000000000000000000000000000000000000000000016146107475760405162461bcd60e51b815260206004820152603860248201527f555550535570677261646561626c653a206d757374206e6f742062652063616c60448201527f6c6564207468726f7567682064656c656761746563616c6c0000000000000000606482015260840161039e565b506000805160206112ea83398151915290565b6033546001600160a01b031633146107845760405162461bcd60e51b815260040161039e906111ac565b61078e6000610bb7565b565b600054610100900460ff166107ab5760005460ff16156107af565b303b155b6108125760405162461bcd60e51b815260206004820152602e60248201527f496e697469616c697a61626c653a20636f6e747261637420697320616c72656160448201526d191e481a5b9a5d1a585b1a5e995960921b606482015260840161039e565b600054610100900460ff16158015610834576000805461ffff19166101011790555b80156105d3576000805461ff001916905550565b6033546001600160a01b031633146108725760405162461bcd60e51b815260040161039e906111ac565b6001600160a01b03811660008181526101976020908152604091829020805460ff1916600117905590519182527fd145927779d3f0dc66f93dfd040e1bf3368e9f41833f9cf98ed79d2afa869a9d910160405180910390a150565b6033546001600160a01b031633146108f75760405162461bcd60e51b815260040161039e906111ac565b6001600160a01b03811661095c5760405162461bcd60e51b815260206004820152602660248201527f4f776e61626c653a206e6577206f776e657220697320746865207a65726f206160448201526564647265737360d01b606482015260840161039e565b6105d381610bb7565b6033546000906001600160a01b031633146109925760405162461bcd60e51b815260040161039e906111ac565b610192546127108311156109e15760405162461bcd60e51b8152602060048201526016602482015275526174652063616e277420657863656564203130302560501b604482015260640161039e565b61019283905560408051828152602081018590527f8498d258afd094f71f19dd04a6d7e7d02c248eb9f49a640ca122945d0dd0490c9101610454565b6033546001600160a01b031633146105d35760405162461bcd60e51b815260040161039e906111ac565b7f4910fdfa16fed3260ed0e7147f7cc6da11a60208b5b9406d12a635614ffd91435460ff1615610a7f57610a7a83610c09565b505050565b826001600160a01b03166352d1902d6040518163ffffffff1660e01b8152600401602060405180830381865afa925050508015610ad9575060408051601f3d908101601f19168201909252610ad6918101906112b4565b60015b610b3c5760405162461bcd60e51b815260206004820152602e60248201527f45524331393637557067726164653a206e657720696d706c656d656e7461746960448201526d6f6e206973206e6f74205555505360901b606482015260840161039e565b6000805160206112ea8339815191528114610bab5760405162461bcd60e51b815260206004820152602960248201527f45524331393637557067726164653a20756e737570706f727465642070726f786044820152681a58589b195555525160ba1b606482015260840161039e565b50610a7a838383610ca5565b603380546001600160a01b038381166001600160a01b0319831681179093556040519116919082907f8be0079c531659141344cd1fd0a4f28419497f9722a3daafe3b4186f6b6457e090600090a35050565b6001600160a01b0381163b610c765760405162461bcd60e51b815260206004820152602d60248201527f455243313936373a206e657720696d706c656d656e746174696f6e206973206e60448201526c1bdd08184818dbdb9d1c9858dd609a1b606482015260840161039e565b6000805160206112ea83398151915280546001600160a01b0319166001600160a01b0392909216919091179055565b610cae83610cd0565b600082511180610cbb5750805b15610a7a57610cca8383610d10565b50505050565b610cd981610c09565b6040516001600160a01b038216907fbc7cd75a20ee27fd9adebab32041f755214dbc6bffa90cc0225b39da2e5c2d3b90600090a250565b60606001600160a01b0383163b610d785760405162461bcd60e51b815260206004820152602660248201527f416464726573733a2064656c65676174652063616c6c20746f206e6f6e2d636f6044820152651b9d1c9858dd60d21b606482015260840161039e565b600080846001600160a01b031684604051610d9391906112cd565b600060405180830381855af49150503d8060008114610dce576040519150601f19603f3d011682016040523d82523d6000602084013e610dd3565b606091505b5091509150610dfb828260405180606001604052806027815260200161130a60279139610e04565b95945050505050565b60608315610e13575081610e3d565b825115610e235782518084602001fd5b8160405162461bcd60e51b815260040161039e9190610ecc565b9392505050565b600060208284031215610e5657600080fd5b81356001600160e01b031981168114610e3d57600080fd5b80356001600160a01b038116811461046257600080fd5b600060208284031215610e9757600080fd5b610e3d82610e6e565b60005b83811015610ebb578181015183820152602001610ea3565b83811115610cca5750506000910152565b6020815260008251806020840152610eeb816040850160208701610ea0565b601f01601f19169190910160400192915050565b634e487b7160e01b600052604160045260246000fd5b604051601f8201601f1916810167ffffffffffffffff81118282101715610f3e57610f3e610eff565b604052919050565b600082601f830112610f5757600080fd5b813567ffffffffffffffff811115610f7157610f71610eff565b610f84601f8201601f1916602001610f15565b818152846020838601011115610f9957600080fd5b816020850160208301376000918101602001919091529392505050565b60008060408385031215610fc957600080fd5b610fd283610e6e565b9150602083013567ffffffffffffffff811115610fee57600080fd5b610ffa85828601610f46565b9150509250929050565b600082601f83011261101557600080fd5b8135602067ffffffffffffffff82111561103157611031610eff565b8160051b611040828201610f15565b928352848101820192828101908785111561105a57600080fd5b83870192505b8483101561107957823582529183019190830190611060565b979650505050505050565b600080600080600060a0868803121561109c57600080fd5b6110a586610e6e565b94506110b360208701610e6e565b9350604086013567ffffffffffffffff808211156110d057600080fd5b6110dc89838a01611004565b945060608801359150808211156110f257600080fd5b6110fe89838a01611004565b9350608088013591508082111561111457600080fd5b5061112188828901610f46565b9150509295509295909350565b600080600080600060a0868803121561114657600080fd5b61114f86610e6e565b945061115d60208701610e6e565b93506040860135925060608601359150608086013567ffffffffffffffff81111561118757600080fd5b61112188828901610f46565b6000602082840312156111a557600080fd5b5035919050565b6020808252818101527f4f776e61626c653a2063616c6c6572206973206e6f7420746865206f776e6572604082015260600190565b600181811c908216806111f557607f821691505b6020821081141561121657634e487b7160e01b600052602260045260246000fd5b50919050565b6020808252602c908201527f46756e6374696f6e206d7573742062652063616c6c6564207468726f7567682060408201526b19195b1959d85d1958d85b1b60a21b606082015260800190565b6020808252602c908201527f46756e6374696f6e206d7573742062652063616c6c6564207468726f7567682060408201526b6163746976652070726f787960a01b606082015260800190565b6000602082840312156112c657600080fd5b5051919050565b600082516112df818460208701610ea0565b919091019291505056fe360894a13ba1a3210667c828492db98dca3e2076cc3735a920a3ca505d382bbc416464726573733a206c6f772d6c6576656c2064656c65676174652063616c6c206661696c6564a26469706673582212207ab3fa5b3258d9d6bcf3f6c1ae60b959ff61d4e6c1c37627fca5bf8b8b66efe164736f6c634300080b0033",
  "immutableReferences": {
    "1189": [
      {
        "length": 32,
        "start": 1281
      },
      {
        "length": 32,
        "start": 1345
      },
      {
        "length": 32,
        "start": 1505
      },
      {
        "length": 32,
        "start": 1569
      },
      {
        "length": 32,
        "start": 1716
      }
    ]
  },
  "source": "// SPDX-License-Identifier: MIT\r\npragma solidity 0.8.11;\r\n\r\nimport \"@openzeppelin/contracts-upgradeable/token/ERC1155/utils/ERC1155HolderUpgradeable.sol\";\r\nimport \"@openzeppelin/contracts-upgradeable/token/ERC20/IERC20Upgradeable.sol\";\r\nimport \"@openzeppelin/contracts-upgradeable/access/OwnableUpgradeable.sol\";\r\nimport \"@openzeppelin/contracts-upgradeable/proxy/utils/Initializable.sol\";\r\nimport \"@openzeppelin/contracts-upgradeable/proxy/utils/UUPSUpgradeable.sol\";\r\nimport \"@openzeppelin/contracts-upgradeable/security/ReentrancyGuardUpgradeable.sol\";\r\n\r\ncontract KollectMarketStorage_V1 is \r\n    Initializable,\r\n    OwnableUpgradeable,\r\n    ERC1155HolderUpgradeable,\r\n    UUPSUpgradeable,\r\n    ReentrancyGuardUpgradeable\r\n{\r\n    struct SimpleMarket {\r\n        uint256 index;\r\n        address addressNFTCollection;\r\n        address addressPaymentToken;\r\n        uint256 nftId;\r\n        uint256 nftCount;\r\n        address payable creator;\r\n        address payable currentBuyer;\r\n        uint256 currentListingPrice;\r\n        bool isSold;\r\n        bool canClaim;\r\n    }\r\n\r\n    event NewSimpleMarket(\r\n        uint256 index,\r\n        address addressNFTCollection,\r\n        address addressPaymentToken,\r\n        uint256 nftId,\r\n        uint256 nftCount,\r\n        address mintedBy,\r\n        address currentBuyer,\r\n        uint256 currentListingPrice,\r\n        bool isSold,\r\n        bool canClaim\r\n    );\r\n    \r\n    string public name;\r\n    \r\n    uint public listingFeeRate;\r\n    address payable operator;\r\n\r\n    uint256 public simpleMarketIndex;\r\n    uint256 public simpleMarketSoldIndex;\r\n\r\n    SimpleMarket[] internal allSimpleMarkets;\r\n    mapping (address => bool) whitelistedContracts;\r\n    \r\n    event AddedContractToWhitelists(address contractAddress);\r\n    event OperatorChanged(address prev, address current);\r\n    event ListingFeeChanged(uint prev, uint current);\r\n\r\n    function initialize() public initializer {\r\n    }\r\n\r\n    function addContractAddress(address _contract) public onlyOwner {\r\n        whitelistedContracts[_contract] = true;\r\n        emit AddedContractToWhitelists(_contract);\r\n    }\r\n\r\n    modifier isValidContractAddress(address _contract) {\r\n        require(whitelistedContracts[_contract], \"not valid contract\");\r\n        _;\r\n    }\r\n\r\n    modifier isValidFetchRequest(uint _itemsPerPage, uint _pageNum) {\r\n        uint unboundedLimit = 256;\r\n        uint from = _itemsPerPage * _pageNum - _itemsPerPage;\r\n        uint to = simpleMarketIndex;\r\n        require(_itemsPerPage > 0 && _pageNum > 0, \"fetch params are invalid\");\r\n        require(to - from <= unboundedLimit, \"fetch size is to big\");\r\n        require(from < simpleMarketIndex, \"fetch position is invalid\");\r\n        _;\r\n    }\r\n\r\n    function isContract(address _addr) private view returns (bool) {\r\n        uint256 size;\r\n        assembly {\r\n            size := extcodesize(_addr)\r\n        }\r\n        return size > 0;\r\n    }\r\n\r\n    function changeOperator(address _addr) public onlyOwner returns (bool) {\r\n        require(_addr != address(0), 'zero address validation');\r\n        address prev = operator;\r\n        operator = payable(_addr);\r\n        emit OperatorChanged(prev, _addr);\r\n        return true;\r\n    }\r\n\r\n    function changeListingFeeRate(uint _rate) public onlyOwner returns (bool) {\r\n        uint prev = listingFeeRate;\r\n        require(_rate <= 10000, \"Rate can't exceed 100%\");\r\n        listingFeeRate = _rate;\r\n        emit ListingFeeChanged(prev, _rate);\r\n        return true;\r\n    }\r\n\r\n    function onERC1155Received(\r\n        address,\r\n        address,\r\n        uint256,\r\n        uint256,\r\n        bytes memory\r\n    ) public virtual override returns (bytes4) {\r\n        return this.onERC1155Received.selector;\r\n    }\r\n\r\n    function _authorizeUpgrade(address newImplementation) internal override onlyOwner {}\r\n}",
  "sourcePath": "D:\\Projects\\NFT-Projects\\kollect-project\\kollect-truffle\\upgradable-contracts\\Truffle\\contracts\\kollect-contracts\\kollect-market-storage-v1.sol",
  "compiler": {
    "name": "solc",
    "version": "0.8.11+commit.d7f03943.Emscripten.clang"
  },
  "schemaVersion": "3.4.5",
  "updatedAt": "2022-04-06T18:40:49.161Z",
  "devdoc": {
    "kind": "dev",
    "methods": {
      "owner()": {
        "details": "Returns the address of the current owner."
      },
      "proxiableUUID()": {
        "details": "Implementation of the ERC1822 {proxiableUUID} function. This returns the storage slot used by the implementation. It is used to validate that the this implementation remains valid after an upgrade. IMPORTANT: A proxy pointing at a proxiable contract should not be considered proxiable itself, because this risks bricking a proxy that upgrades to it, by delegating to itself until out of gas. Thus it is critical that this function revert if invoked through a proxy. This is guaranteed by the `notDelegated` modifier."
      },
      "renounceOwnership()": {
        "details": "Leaves the contract without owner. It will not be possible to call `onlyOwner` functions anymore. Can only be called by the current owner. NOTE: Renouncing ownership will leave the contract without an owner, thereby removing any functionality that is only available to the owner."
      },
      "supportsInterface(bytes4)": {
        "details": "See {IERC165-supportsInterface}."
      },
      "transferOwnership(address)": {
        "details": "Transfers ownership of the contract to a new account (`newOwner`). Can only be called by the current owner."
      },
      "upgradeTo(address)": {
        "details": "Upgrade the implementation of the proxy to `newImplementation`. Calls {_authorizeUpgrade}. Emits an {Upgraded} event."
      },
      "upgradeToAndCall(address,bytes)": {
        "details": "Upgrade the implementation of the proxy to `newImplementation`, and subsequently execute the function call encoded in `data`. Calls {_authorizeUpgrade}. Emits an {Upgraded} event."
      }
    },
    "version": 1
  },
  "userdoc": {
    "kind": "user",
    "methods": {},
    "version": 1
  }
}