{
  "contractName": "KollectMarketStorage_V2",
  "abi": [
    {
      "anonymous": false,
      "inputs": [
        {
          "indexed": false,
          "internalType": "address",
          "name": "previousAdmin",
          "type": "address"
        },
        {
          "indexed": false,
          "internalType": "address",
          "name": "newAdmin",
          "type": "address"
        }
      ],
      "name": "AdminChanged",
      "type": "event"
    },
    {
      "anonymous": false,
      "inputs": [
        {
          "indexed": true,
          "internalType": "address",
          "name": "beacon",
          "type": "address"
        }
      ],
      "name": "BeaconUpgraded",
      "type": "event"
    },
    {
      "anonymous": false,
      "inputs": [
        {
          "indexed": false,
          "internalType": "uint256",
          "name": "index",
          "type": "uint256"
        },
        {
          "indexed": false,
          "internalType": "address",
          "name": "addressNFTCollection",
          "type": "address"
        },
        {
          "indexed": false,
          "internalType": "address",
          "name": "addressPaymentToken",
          "type": "address"
        },
        {
          "indexed": false,
          "internalType": "uint256",
          "name": "nftId",
          "type": "uint256"
        },
        {
          "indexed": false,
          "internalType": "uint256",
          "name": "nftCount",
          "type": "uint256"
        },
        {
          "indexed": false,
          "internalType": "address",
          "name": "mintedBy",
          "type": "address"
        },
        {
          "indexed": false,
          "internalType": "address",
          "name": "currentBuyer",
          "type": "address"
        },
        {
          "indexed": false,
          "internalType": "uint256",
          "name": "currentListingPrice",
          "type": "uint256"
        },
        {
          "indexed": false,
          "internalType": "bool",
          "name": "isSold",
          "type": "bool"
        },
        {
          "indexed": false,
          "internalType": "bool",
          "name": "canClaim",
          "type": "bool"
        }
      ],
      "name": "NewSimpleMarket",
      "type": "event"
    },
    {
      "anonymous": false,
      "inputs": [
        {
          "indexed": true,
          "internalType": "address",
          "name": "previousOwner",
          "type": "address"
        },
        {
          "indexed": true,
          "internalType": "address",
          "name": "newOwner",
          "type": "address"
        }
      ],
      "name": "OwnershipTransferred",
      "type": "event"
    },
    {
      "anonymous": false,
      "inputs": [
        {
          "indexed": true,
          "internalType": "address",
          "name": "implementation",
          "type": "address"
        }
      ],
      "name": "Upgraded",
      "type": "event"
    },
    {
      "inputs": [],
      "name": "listingFeeRate",
      "outputs": [
        {
          "internalType": "uint256",
          "name": "",
          "type": "uint256"
        }
      ],
      "stateMutability": "view",
      "type": "function"
    },
    {
      "inputs": [],
      "name": "name",
      "outputs": [
        {
          "internalType": "string",
          "name": "",
          "type": "string"
        }
      ],
      "stateMutability": "view",
      "type": "function"
    },
    {
      "inputs": [
        {
          "internalType": "address",
          "name": "",
          "type": "address"
        },
        {
          "internalType": "address",
          "name": "",
          "type": "address"
        },
        {
          "internalType": "uint256[]",
          "name": "",
          "type": "uint256[]"
        },
        {
          "internalType": "uint256[]",
          "name": "",
          "type": "uint256[]"
        },
        {
          "internalType": "bytes",
          "name": "",
          "type": "bytes"
        }
      ],
      "name": "onERC1155BatchReceived",
      "outputs": [
        {
          "internalType": "bytes4",
          "name": "",
          "type": "bytes4"
        }
      ],
      "stateMutability": "nonpayable",
      "type": "function"
    },
    {
      "inputs": [],
      "name": "owner",
      "outputs": [
        {
          "internalType": "address",
          "name": "",
          "type": "address"
        }
      ],
      "stateMutability": "view",
      "type": "function"
    },
    {
      "inputs": [],
      "name": "proxiableUUID",
      "outputs": [
        {
          "internalType": "bytes32",
          "name": "",
          "type": "bytes32"
        }
      ],
      "stateMutability": "view",
      "type": "function"
    },
    {
      "inputs": [],
      "name": "renounceOwnership",
      "outputs": [],
      "stateMutability": "nonpayable",
      "type": "function"
    },
    {
      "inputs": [],
      "name": "simpleMarketIndex",
      "outputs": [
        {
          "internalType": "uint256",
          "name": "",
          "type": "uint256"
        }
      ],
      "stateMutability": "view",
      "type": "function"
    },
    {
      "inputs": [],
      "name": "simpleMarketSoldIndex",
      "outputs": [
        {
          "internalType": "uint256",
          "name": "",
          "type": "uint256"
        }
      ],
      "stateMutability": "view",
      "type": "function"
    },
    {
      "inputs": [
        {
          "internalType": "bytes4",
          "name": "interfaceId",
          "type": "bytes4"
        }
      ],
      "name": "supportsInterface",
      "outputs": [
        {
          "internalType": "bool",
          "name": "",
          "type": "bool"
        }
      ],
      "stateMutability": "view",
      "type": "function"
    },
    {
      "inputs": [
        {
          "internalType": "address",
          "name": "newOwner",
          "type": "address"
        }
      ],
      "name": "transferOwnership",
      "outputs": [],
      "stateMutability": "nonpayable",
      "type": "function"
    },
    {
      "inputs": [
        {
          "internalType": "address",
          "name": "newImplementation",
          "type": "address"
        }
      ],
      "name": "upgradeTo",
      "outputs": [],
      "stateMutability": "nonpayable",
      "type": "function"
    },
    {
      "inputs": [
        {
          "internalType": "address",
          "name": "newImplementation",
          "type": "address"
        },
        {
          "internalType": "bytes",
          "name": "data",
          "type": "bytes"
        }
      ],
      "name": "upgradeToAndCall",
      "outputs": [],
      "stateMutability": "payable",
      "type": "function"
    },
    {
      "inputs": [],
      "name": "version",
      "outputs": [
        {
          "internalType": "string",
          "name": "",
          "type": "string"
        }
      ],
      "stateMutability": "view",
      "type": "function"
    },
    {
      "inputs": [],
      "name": "initialize",
      "outputs": [],
      "stateMutability": "nonpayable",
      "type": "function"
    },
    {
      "inputs": [
        {
          "internalType": "address",
          "name": "_contract",
          "type": "address"
        }
      ],
      "name": "addContractAddress",
      "outputs": [],
      "stateMutability": "nonpayable",
      "type": "function"
    },
    {
      "inputs": [
        {
          "internalType": "address",
          "name": "_addr",
          "type": "address"
        }
      ],
      "name": "changeOperator",
      "outputs": [
        {
          "internalType": "bool",
          "name": "",
          "type": "bool"
        }
      ],
      "stateMutability": "nonpayable",
      "type": "function"
    },
    {
      "inputs": [
        {
          "internalType": "uint256",
          "name": "_rate",
          "type": "uint256"
        }
      ],
      "name": "changeListingFeeRate",
      "outputs": [
        {
          "internalType": "bool",
          "name": "",
          "type": "bool"
        }
      ],
      "stateMutability": "nonpayable",
      "type": "function"
    },
    {
      "inputs": [],
      "name": "getMarketName",
      "outputs": [
        {
          "internalType": "string",
          "name": "",
          "type": "string"
        }
      ],
      "stateMutability": "view",
      "type": "function"
    },
    {
      "inputs": [
        {
          "internalType": "string",
          "name": "version_",
          "type": "string"
        }
      ],
      "name": "setVersion",
      "outputs": [],
      "stateMutability": "nonpayable",
      "type": "function"
    },
    {
      "inputs": [],
      "name": "getVersion",
      "outputs": [
        {
          "internalType": "string",
          "name": "",
          "type": "string"
        }
      ],
      "stateMutability": "view",
      "type": "function"
    },
    {
      "inputs": [
        {
          "internalType": "address",
          "name": "",
          "type": "address"
        },
        {
          "internalType": "address",
          "name": "",
          "type": "address"
        },
        {
          "internalType": "uint256",
          "name": "",
          "type": "uint256"
        },
        {
          "internalType": "uint256",
          "name": "",
          "type": "uint256"
        },
        {
          "internalType": "bytes",
          "name": "",
          "type": "bytes"
        }
      ],
      "name": "onERC1155Received",
      "outputs": [
        {
          "internalType": "bytes4",
          "name": "",
          "type": "bytes4"
        }
      ],
      "stateMutability": "nonpayable",
      "type": "function"
    }
  ],
  "bytecode": "0x60a06040523060805234801561001457600080fd5b506080516114dd61004c60003960008181610584015281816105c401528181610664015281816106a4015261073701526114dd6000f3fe60806040526004361061012a5760003560e01c8063788bc78c116100ab578063ba7310581161006f578063ba731058146102e8578063bc197c81146102ff578063c291c58d14610344578063f23a6e6114610359578063f2fde38b14610385578063f72075c8146103a557600080fd5b8063788bc78c146102545780638129fc1c146102745780638da5cb5b14610289578063937f12a2146102b1578063b11ce2db146102c857600080fd5b80633659cfe6116100f25780633659cfe6146101e05780634f1ef2861461020257806352d1902d1461021557806354fd4d501461022a578063715018a61461023f57600080fd5b806301ffc9a71461012f57806306394c9b1461016457806306fdde03146101845780630d8e6e2c146101a65780630dcda8b5146101bb575b600080fd5b34801561013b57600080fd5b5061014f61014a366004610f49565b6103c5565b60405190151581526020015b60405180910390f35b34801561017057600080fd5b5061014f61017f366004610f8a565b6103fc565b34801561019057600080fd5b50610199610457565b60405161015b9190610fd1565b3480156101b257600080fd5b506101996104e6565b3480156101c757600080fd5b506101d26101925481565b60405190815260200161015b565b3480156101ec57600080fd5b506102006101fb366004610f8a565b610579565b005b6102006102103660046110bb565b610659565b34801561022157600080fd5b506101d261072a565b34801561023657600080fd5b506101996107dd565b34801561024b57600080fd5b506102006107eb565b34801561026057600080fd5b5061020061026f366004611109565b610821565b34801561028057600080fd5b5061020061085d565b34801561029557600080fd5b506033546040516001600160a01b03909116815260200161015b565b3480156102bd57600080fd5b506101d26101945481565b3480156102d457600080fd5b506102006102e3366004610f8a565b610915565b3480156102f457600080fd5b506101d26101955481565b34801561030b57600080fd5b5061032b61031a3660046111fb565b63bc197c8160e01b95945050505050565b6040516001600160e01b0319909116815260200161015b565b34801561035057600080fd5b50610199610964565b34801561036557600080fd5b5061032b6103743660046112a5565b63f23a6e6160e01b95945050505050565b34801561039157600080fd5b506102006103a0366004610f8a565b610974565b3480156103b157600080fd5b5061014f6103c036600461130a565b610a0c565b60006001600160e01b03198216630271189760e51b14806103f657506301ffc9a760e01b6001600160e01b03198316145b92915050565b6033546000906001600160a01b031633146104325760405162461bcd60e51b815260040161042990611323565b60405180910390fd5b5061019380546001600160a01b0319166001600160a01b03831617905560015b919050565b610191805461046590611358565b80601f016020809104026020016040519081016040528092919081815260200182805461049190611358565b80156104de5780601f106104b3576101008083540402835291602001916104de565b820191906000526020600020905b8154815290600101906020018083116104c157829003601f168201915b505050505081565b606061019880546104f690611358565b80601f016020809104026020016040519081016040528092919081815260200182805461052290611358565b801561056f5780601f106105445761010080835404028352916020019161056f565b820191906000526020600020905b81548152906001019060200180831161055257829003601f168201915b5050505050905090565b306001600160a01b037f00000000000000000000000000000000000000000000000000000000000000001614156105c25760405162461bcd60e51b815260040161042990611393565b7f00000000000000000000000000000000000000000000000000000000000000006001600160a01b031661060b600080516020611461833981519152546001600160a01b031690565b6001600160a01b0316146106315760405162461bcd60e51b8152600401610429906113df565b61063a81610a8e565b6040805160008082526020820190925261065691839190610ab8565b50565b306001600160a01b037f00000000000000000000000000000000000000000000000000000000000000001614156106a25760405162461bcd60e51b815260040161042990611393565b7f00000000000000000000000000000000000000000000000000000000000000006001600160a01b03166106eb600080516020611461833981519152546001600160a01b031690565b6001600160a01b0316146107115760405162461bcd60e51b8152600401610429906113df565b61071a82610a8e565b61072682826001610ab8565b5050565b6000306001600160a01b037f000000000000000000000000000000000000000000000000000000000000000016146107ca5760405162461bcd60e51b815260206004820152603860248201527f555550535570677261646561626c653a206d757374206e6f742062652063616c60448201527f6c6564207468726f7567682064656c656761746563616c6c00000000000000006064820152608401610429565b5060008051602061146183398151915290565b610198805461046590611358565b6033546001600160a01b031633146108155760405162461bcd60e51b815260040161042990611323565b61081f6000610c23565b565b6033546001600160a01b0316331461084b5760405162461bcd60e51b815260040161042990611323565b6108586101988383610eb0565b505050565b600054610100900460ff166108785760005460ff161561087c565b303b155b6108df5760405162461bcd60e51b815260206004820152602e60248201527f496e697469616c697a61626c653a20636f6e747261637420697320616c72656160448201526d191e481a5b9a5d1a585b1a5e995960921b6064820152608401610429565b600054610100900460ff16158015610901576000805461ffff19166101011790555b8015610656576000805461ff001916905550565b6033546001600160a01b0316331461093f5760405162461bcd60e51b815260040161042990611323565b6001600160a01b0316600090815261019760205260409020805460ff19166001179055565b606061019180546104f690611358565b6033546001600160a01b0316331461099e5760405162461bcd60e51b815260040161042990611323565b6001600160a01b038116610a035760405162461bcd60e51b815260206004820152602660248201527f4f776e61626c653a206e6577206f776e657220697320746865207a65726f206160448201526564647265737360d01b6064820152608401610429565b61065681610c23565b6033546000906001600160a01b03163314610a395760405162461bcd60e51b815260040161042990611323565b612710821115610a845760405162461bcd60e51b8152602060048201526016602482015275526174652063616e277420657863656564203130302560501b6044820152606401610429565b5061019255600190565b6033546001600160a01b031633146106565760405162461bcd60e51b815260040161042990611323565b7f4910fdfa16fed3260ed0e7147f7cc6da11a60208b5b9406d12a635614ffd91435460ff1615610aeb5761085883610c75565b826001600160a01b03166352d1902d6040518163ffffffff1660e01b8152600401602060405180830381865afa925050508015610b45575060408051601f3d908101601f19168201909252610b429181019061142b565b60015b610ba85760405162461bcd60e51b815260206004820152602e60248201527f45524331393637557067726164653a206e657720696d706c656d656e7461746960448201526d6f6e206973206e6f74205555505360901b6064820152608401610429565b6000805160206114618339815191528114610c175760405162461bcd60e51b815260206004820152602960248201527f45524331393637557067726164653a20756e737570706f727465642070726f786044820152681a58589b195555525160ba1b6064820152608401610429565b50610858838383610d11565b603380546001600160a01b038381166001600160a01b0319831681179093556040519116919082907f8be0079c531659141344cd1fd0a4f28419497f9722a3daafe3b4186f6b6457e090600090a35050565b6001600160a01b0381163b610ce25760405162461bcd60e51b815260206004820152602d60248201527f455243313936373a206e657720696d706c656d656e746174696f6e206973206e60448201526c1bdd08184818dbdb9d1c9858dd609a1b6064820152608401610429565b60008051602061146183398151915280546001600160a01b0319166001600160a01b0392909216919091179055565b610d1a83610d3c565b600082511180610d275750805b1561085857610d368383610d7c565b50505050565b610d4581610c75565b6040516001600160a01b038216907fbc7cd75a20ee27fd9adebab32041f755214dbc6bffa90cc0225b39da2e5c2d3b90600090a250565b60606001600160a01b0383163b610de45760405162461bcd60e51b815260206004820152602660248201527f416464726573733a2064656c65676174652063616c6c20746f206e6f6e2d636f6044820152651b9d1c9858dd60d21b6064820152608401610429565b600080846001600160a01b031684604051610dff9190611444565b600060405180830381855af49150503d8060008114610e3a576040519150601f19603f3d011682016040523d82523d6000602084013e610e3f565b606091505b5091509150610e67828260405180606001604052806027815260200161148160279139610e70565b95945050505050565b60608315610e7f575081610ea9565b825115610e8f5782518084602001fd5b8160405162461bcd60e51b81526004016104299190610fd1565b9392505050565b828054610ebc90611358565b90600052602060002090601f016020900481019282610ede5760008555610f24565b82601f10610ef75782800160ff19823516178555610f24565b82800160010185558215610f24579182015b82811115610f24578235825591602001919060010190610f09565b50610f30929150610f34565b5090565b5b80821115610f305760008155600101610f35565b600060208284031215610f5b57600080fd5b81356001600160e01b031981168114610ea957600080fd5b80356001600160a01b038116811461045257600080fd5b600060208284031215610f9c57600080fd5b610ea982610f73565b60005b83811015610fc0578181015183820152602001610fa8565b83811115610d365750506000910152565b6020815260008251806020840152610ff0816040850160208701610fa5565b601f01601f19169190910160400192915050565b634e487b7160e01b600052604160045260246000fd5b604051601f8201601f1916810167ffffffffffffffff8111828210171561104357611043611004565b604052919050565b600082601f83011261105c57600080fd5b813567ffffffffffffffff81111561107657611076611004565b611089601f8201601f191660200161101a565b81815284602083860101111561109e57600080fd5b816020850160208301376000918101602001919091529392505050565b600080604083850312156110ce57600080fd5b6110d783610f73565b9150602083013567ffffffffffffffff8111156110f357600080fd5b6110ff8582860161104b565b9150509250929050565b6000806020838503121561111c57600080fd5b823567ffffffffffffffff8082111561113457600080fd5b818501915085601f83011261114857600080fd5b81358181111561115757600080fd5b86602082850101111561116957600080fd5b60209290920196919550909350505050565b600082601f83011261118c57600080fd5b8135602067ffffffffffffffff8211156111a8576111a8611004565b8160051b6111b782820161101a565b92835284810182019282810190878511156111d157600080fd5b83870192505b848310156111f0578235825291830191908301906111d7565b979650505050505050565b600080600080600060a0868803121561121357600080fd5b61121c86610f73565b945061122a60208701610f73565b9350604086013567ffffffffffffffff8082111561124757600080fd5b61125389838a0161117b565b9450606088013591508082111561126957600080fd5b61127589838a0161117b565b9350608088013591508082111561128b57600080fd5b506112988882890161104b565b9150509295509295909350565b600080600080600060a086880312156112bd57600080fd5b6112c686610f73565b94506112d460208701610f73565b93506040860135925060608601359150608086013567ffffffffffffffff8111156112fe57600080fd5b6112988882890161104b565b60006020828403121561131c57600080fd5b5035919050565b6020808252818101527f4f776e61626c653a2063616c6c6572206973206e6f7420746865206f776e6572604082015260600190565b600181811c9082168061136c57607f821691505b6020821081141561138d57634e487b7160e01b600052602260045260246000fd5b50919050565b6020808252602c908201527f46756e6374696f6e206d7573742062652063616c6c6564207468726f7567682060408201526b19195b1959d85d1958d85b1b60a21b606082015260800190565b6020808252602c908201527f46756e6374696f6e206d7573742062652063616c6c6564207468726f7567682060408201526b6163746976652070726f787960a01b606082015260800190565b60006020828403121561143d57600080fd5b5051919050565b60008251611456818460208701610fa5565b919091019291505056fe360894a13ba1a3210667c828492db98dca3e2076cc3735a920a3ca505d382bbc416464726573733a206c6f772d6c6576656c2064656c65676174652063616c6c206661696c6564a2646970667358221220c02937e962f9c32ac0cc104aa170c23011866e8de79f26490acd162b90b9c98064736f6c634300080b0033",
  "immutableReferences": {
    "1189": [
      {
        "length": 32,
        "start": 1412
      },
      {
        "length": 32,
        "start": 1476
      },
      {
        "length": 32,
        "start": 1636
      },
      {
        "length": 32,
        "start": 1700
      },
      {
        "length": 32,
        "start": 1847
      }
    ]
  },
  "source": "// SPDX-License-Identifier: MIT\r\npragma solidity 0.8.11;\r\n\r\nimport \"@openzeppelin/contracts-upgradeable/token/ERC1155/utils/ERC1155HolderUpgradeable.sol\";\r\nimport \"@openzeppelin/contracts-upgradeable/token/ERC20/IERC20Upgradeable.sol\";\r\nimport \"@openzeppelin/contracts-upgradeable/access/OwnableUpgradeable.sol\";\r\nimport \"@openzeppelin/contracts-upgradeable/proxy/utils/Initializable.sol\";\r\nimport \"@openzeppelin/contracts-upgradeable/proxy/utils/UUPSUpgradeable.sol\";\r\nimport \"@openzeppelin/contracts-upgradeable/security/ReentrancyGuardUpgradeable.sol\";\r\n\r\ncontract KollectMarketStorage_V2 is \r\n    Initializable,\r\n    OwnableUpgradeable,\r\n    ERC1155HolderUpgradeable,\r\n    UUPSUpgradeable,\r\n    ReentrancyGuardUpgradeable\r\n{\r\n    struct SimpleMarket {\r\n        uint256 index;\r\n        address addressNFTCollection;\r\n        address addressPaymentToken;\r\n        uint256 nftId;\r\n        uint256 nftCount;\r\n        address payable creator;\r\n        address payable currentBuyer;\r\n        uint256 currentListingPrice;\r\n        bool isSold;\r\n        bool canClaim;\r\n    }\r\n\r\n    event NewSimpleMarket(\r\n        uint256 index,\r\n        address addressNFTCollection,\r\n        address addressPaymentToken,\r\n        uint256 nftId,\r\n        uint256 nftCount,\r\n        address mintedBy,\r\n        address currentBuyer,\r\n        uint256 currentListingPrice,\r\n        bool isSold,\r\n        bool canClaim\r\n    );\r\n    \r\n    string public name;\r\n    \r\n    uint public listingFeeRate;\r\n    address payable operator;\r\n\r\n    uint256 public simpleMarketIndex;\r\n    uint256 public simpleMarketSoldIndex;\r\n\r\n    SimpleMarket[] internal allSimpleMarkets;\r\n    mapping (address => bool) whitelistedContracts;\r\n\r\n    string public version;\r\n    \r\n    function initialize() public initializer {\r\n    }\r\n\r\n        function addContractAddress(address _contract) public onlyOwner {\r\n        whitelistedContracts[_contract] = true;\r\n    }\r\n\r\n    modifier isValidContractAddress(address _contract) {\r\n        require(whitelistedContracts[_contract], \"not valid contract\");\r\n        _;\r\n    }\r\n\r\n    modifier isValidFetchRequest(uint _itemsPerPage, uint _pageNum) {\r\n        uint unboundedLimit = 256;\r\n        uint from = _itemsPerPage * _pageNum - _itemsPerPage;\r\n        uint to = simpleMarketIndex;\r\n        require(_itemsPerPage > 0 && _pageNum > 0, \"fetch params are invalid\");\r\n        require(to - from <= unboundedLimit, \"fetch size is to big\");\r\n        require(from < simpleMarketIndex, \"fetch position is invalid\");\r\n        _;\r\n    }\r\n\r\n    function isContract(address _addr) private view returns (bool) {\r\n        uint256 size;\r\n        assembly {\r\n            size := extcodesize(_addr)\r\n        }\r\n        return size > 0;\r\n    }\r\n\r\n    function changeOperator(address _addr) public onlyOwner returns (bool) {\r\n        operator = payable(_addr);\r\n        return true;\r\n    }\r\n\r\n    function changeListingFeeRate(uint _rate) public onlyOwner returns (bool) {\r\n        require(_rate <= 10000, \"Rate can't exceed 100%\");\r\n\r\n        listingFeeRate = _rate;\r\n        return true;\r\n    }\r\n\r\n    function getMarketName() public view returns (string memory) {\r\n        return name;\r\n    }\r\n\r\n    function setVersion(string calldata version_) public onlyOwner {\r\n        version = version_;\r\n    }\r\n\r\n    function getVersion() public view returns (string memory) {\r\n        return version;\r\n    }\r\n\r\n    function onERC1155Received(\r\n        address,\r\n        address,\r\n        uint256,\r\n        uint256,\r\n        bytes memory\r\n    ) public virtual override returns (bytes4) {\r\n        return this.onERC1155Received.selector;\r\n    }\r\n\r\n    function _authorizeUpgrade(address newImplementation) internal override onlyOwner {}\r\n}",
  "sourcePath": "D:\\Projects\\NFT-Projects\\kollect-project\\kollect-truffle\\upgradable-contracts\\Truffle\\contracts\\kollect-contracts\\kollect-market-storage-v2.sol",
  "compiler": {
    "name": "solc",
    "version": "0.8.11+commit.d7f03943.Emscripten.clang"
  },
  "schemaVersion": "3.4.5",
  "updatedAt": "2022-04-06T18:40:49.168Z",
  "devdoc": {
    "kind": "dev",
    "methods": {
      "owner()": {
        "details": "Returns the address of the current owner."
      },
      "proxiableUUID()": {
        "details": "Implementation of the ERC1822 {proxiableUUID} function. This returns the storage slot used by the implementation. It is used to validate that the this implementation remains valid after an upgrade. IMPORTANT: A proxy pointing at a proxiable contract should not be considered proxiable itself, because this risks bricking a proxy that upgrades to it, by delegating to itself until out of gas. Thus it is critical that this function revert if invoked through a proxy. This is guaranteed by the `notDelegated` modifier."
      },
      "renounceOwnership()": {
        "details": "Leaves the contract without owner. It will not be possible to call `onlyOwner` functions anymore. Can only be called by the current owner. NOTE: Renouncing ownership will leave the contract without an owner, thereby removing any functionality that is only available to the owner."
      },
      "supportsInterface(bytes4)": {
        "details": "See {IERC165-supportsInterface}."
      },
      "transferOwnership(address)": {
        "details": "Transfers ownership of the contract to a new account (`newOwner`). Can only be called by the current owner."
      },
      "upgradeTo(address)": {
        "details": "Upgrade the implementation of the proxy to `newImplementation`. Calls {_authorizeUpgrade}. Emits an {Upgraded} event."
      },
      "upgradeToAndCall(address,bytes)": {
        "details": "Upgrade the implementation of the proxy to `newImplementation`, and subsequently execute the function call encoded in `data`. Calls {_authorizeUpgrade}. Emits an {Upgraded} event."
      }
    },
    "version": 1
  },
  "userdoc": {
    "kind": "user",
    "methods": {},
    "version": 1
  }
}