{
  "contractName": "KollectNFT_V2",
  "abi": [
    {
      "anonymous": false,
      "inputs": [
        {
          "indexed": false,
          "internalType": "address",
          "name": "previousAdmin",
          "type": "address"
        },
        {
          "indexed": false,
          "internalType": "address",
          "name": "newAdmin",
          "type": "address"
        }
      ],
      "name": "AdminChanged",
      "type": "event"
    },
    {
      "anonymous": false,
      "inputs": [
        {
          "indexed": true,
          "internalType": "address",
          "name": "account",
          "type": "address"
        },
        {
          "indexed": true,
          "internalType": "address",
          "name": "operator",
          "type": "address"
        },
        {
          "indexed": false,
          "internalType": "bool",
          "name": "approved",
          "type": "bool"
        }
      ],
      "name": "ApprovalForAll",
      "type": "event"
    },
    {
      "anonymous": false,
      "inputs": [
        {
          "indexed": true,
          "internalType": "address",
          "name": "beacon",
          "type": "address"
        }
      ],
      "name": "BeaconUpgraded",
      "type": "event"
    },
    {
      "anonymous": false,
      "inputs": [
        {
          "indexed": true,
          "internalType": "address",
          "name": "previousOwner",
          "type": "address"
        },
        {
          "indexed": true,
          "internalType": "address",
          "name": "newOwner",
          "type": "address"
        }
      ],
      "name": "OwnershipTransferred",
      "type": "event"
    },
    {
      "anonymous": false,
      "inputs": [
        {
          "indexed": true,
          "internalType": "address",
          "name": "operator",
          "type": "address"
        },
        {
          "indexed": true,
          "internalType": "address",
          "name": "from",
          "type": "address"
        },
        {
          "indexed": true,
          "internalType": "address",
          "name": "to",
          "type": "address"
        },
        {
          "indexed": false,
          "internalType": "uint256[]",
          "name": "ids",
          "type": "uint256[]"
        },
        {
          "indexed": false,
          "internalType": "uint256[]",
          "name": "values",
          "type": "uint256[]"
        }
      ],
      "name": "TransferBatch",
      "type": "event"
    },
    {
      "anonymous": false,
      "inputs": [
        {
          "indexed": true,
          "internalType": "address",
          "name": "operator",
          "type": "address"
        },
        {
          "indexed": true,
          "internalType": "address",
          "name": "from",
          "type": "address"
        },
        {
          "indexed": true,
          "internalType": "address",
          "name": "to",
          "type": "address"
        },
        {
          "indexed": false,
          "internalType": "uint256",
          "name": "id",
          "type": "uint256"
        },
        {
          "indexed": false,
          "internalType": "uint256",
          "name": "value",
          "type": "uint256"
        }
      ],
      "name": "TransferSingle",
      "type": "event"
    },
    {
      "anonymous": false,
      "inputs": [
        {
          "indexed": false,
          "internalType": "string",
          "name": "value",
          "type": "string"
        },
        {
          "indexed": true,
          "internalType": "uint256",
          "name": "id",
          "type": "uint256"
        }
      ],
      "name": "URI",
      "type": "event"
    },
    {
      "anonymous": false,
      "inputs": [
        {
          "indexed": true,
          "internalType": "address",
          "name": "implementation",
          "type": "address"
        }
      ],
      "name": "Upgraded",
      "type": "event"
    },
    {
      "inputs": [
        {
          "internalType": "address",
          "name": "account",
          "type": "address"
        },
        {
          "internalType": "uint256",
          "name": "id",
          "type": "uint256"
        }
      ],
      "name": "balanceOf",
      "outputs": [
        {
          "internalType": "uint256",
          "name": "",
          "type": "uint256"
        }
      ],
      "stateMutability": "view",
      "type": "function"
    },
    {
      "inputs": [
        {
          "internalType": "address[]",
          "name": "accounts",
          "type": "address[]"
        },
        {
          "internalType": "uint256[]",
          "name": "ids",
          "type": "uint256[]"
        }
      ],
      "name": "balanceOfBatch",
      "outputs": [
        {
          "internalType": "uint256[]",
          "name": "",
          "type": "uint256[]"
        }
      ],
      "stateMutability": "view",
      "type": "function"
    },
    {
      "inputs": [
        {
          "internalType": "address",
          "name": "account",
          "type": "address"
        },
        {
          "internalType": "address",
          "name": "operator",
          "type": "address"
        }
      ],
      "name": "isApprovedForAll",
      "outputs": [
        {
          "internalType": "bool",
          "name": "",
          "type": "bool"
        }
      ],
      "stateMutability": "view",
      "type": "function"
    },
    {
      "inputs": [],
      "name": "owner",
      "outputs": [
        {
          "internalType": "address",
          "name": "",
          "type": "address"
        }
      ],
      "stateMutability": "view",
      "type": "function"
    },
    {
      "inputs": [],
      "name": "proxiableUUID",
      "outputs": [
        {
          "internalType": "bytes32",
          "name": "",
          "type": "bytes32"
        }
      ],
      "stateMutability": "view",
      "type": "function"
    },
    {
      "inputs": [],
      "name": "renounceOwnership",
      "outputs": [],
      "stateMutability": "nonpayable",
      "type": "function"
    },
    {
      "inputs": [
        {
          "internalType": "address",
          "name": "operator",
          "type": "address"
        },
        {
          "internalType": "bool",
          "name": "approved",
          "type": "bool"
        }
      ],
      "name": "setApprovalForAll",
      "outputs": [],
      "stateMutability": "nonpayable",
      "type": "function"
    },
    {
      "inputs": [
        {
          "internalType": "bytes4",
          "name": "interfaceId",
          "type": "bytes4"
        }
      ],
      "name": "supportsInterface",
      "outputs": [
        {
          "internalType": "bool",
          "name": "",
          "type": "bool"
        }
      ],
      "stateMutability": "view",
      "type": "function"
    },
    {
      "inputs": [
        {
          "internalType": "address",
          "name": "newOwner",
          "type": "address"
        }
      ],
      "name": "transferOwnership",
      "outputs": [],
      "stateMutability": "nonpayable",
      "type": "function"
    },
    {
      "inputs": [
        {
          "internalType": "address",
          "name": "newImplementation",
          "type": "address"
        }
      ],
      "name": "upgradeTo",
      "outputs": [],
      "stateMutability": "nonpayable",
      "type": "function"
    },
    {
      "inputs": [
        {
          "internalType": "address",
          "name": "newImplementation",
          "type": "address"
        },
        {
          "internalType": "bytes",
          "name": "data",
          "type": "bytes"
        }
      ],
      "name": "upgradeToAndCall",
      "outputs": [],
      "stateMutability": "payable",
      "type": "function"
    },
    {
      "inputs": [],
      "name": "initialize",
      "outputs": [],
      "stateMutability": "nonpayable",
      "type": "function"
    },
    {
      "inputs": [
        {
          "internalType": "address",
          "name": "from",
          "type": "address"
        },
        {
          "internalType": "address",
          "name": "to",
          "type": "address"
        },
        {
          "internalType": "uint256",
          "name": "id",
          "type": "uint256"
        },
        {
          "internalType": "uint256",
          "name": "amount",
          "type": "uint256"
        },
        {
          "internalType": "bytes",
          "name": "data",
          "type": "bytes"
        }
      ],
      "name": "safeTransferFrom",
      "outputs": [],
      "stateMutability": "nonpayable",
      "type": "function"
    },
    {
      "inputs": [
        {
          "internalType": "address",
          "name": "from",
          "type": "address"
        },
        {
          "internalType": "address",
          "name": "to",
          "type": "address"
        },
        {
          "internalType": "uint256[]",
          "name": "ids",
          "type": "uint256[]"
        },
        {
          "internalType": "uint256[]",
          "name": "amounts",
          "type": "uint256[]"
        },
        {
          "internalType": "bytes",
          "name": "data",
          "type": "bytes"
        }
      ],
      "name": "safeBatchTransferFrom",
      "outputs": [],
      "stateMutability": "nonpayable",
      "type": "function"
    },
    {
      "inputs": [
        {
          "internalType": "uint256",
          "name": "id",
          "type": "uint256"
        }
      ],
      "name": "uri",
      "outputs": [
        {
          "internalType": "string",
          "name": "",
          "type": "string"
        }
      ],
      "stateMutability": "view",
      "type": "function"
    },
    {
      "inputs": [
        {
          "internalType": "address",
          "name": "account",
          "type": "address"
        }
      ],
      "name": "getTokens",
      "outputs": [
        {
          "internalType": "uint256[]",
          "name": "",
          "type": "uint256[]"
        }
      ],
      "stateMutability": "view",
      "type": "function"
    },
    {
      "inputs": [
        {
          "internalType": "address",
          "name": "account",
          "type": "address"
        }
      ],
      "name": "getTokensAndAmounts",
      "outputs": [
        {
          "internalType": "uint256[]",
          "name": "",
          "type": "uint256[]"
        },
        {
          "internalType": "uint256[]",
          "name": "",
          "type": "uint256[]"
        }
      ],
      "stateMutability": "view",
      "type": "function"
    },
    {
      "inputs": [
        {
          "internalType": "address",
          "name": "account",
          "type": "address"
        },
        {
          "internalType": "uint256",
          "name": "id",
          "type": "uint256"
        },
        {
          "internalType": "uint256",
          "name": "amount",
          "type": "uint256"
        },
        {
          "internalType": "string",
          "name": "newUri",
          "type": "string"
        }
      ],
      "name": "mint",
      "outputs": [],
      "stateMutability": "nonpayable",
      "type": "function"
    },
    {
      "inputs": [
        {
          "internalType": "address",
          "name": "account",
          "type": "address"
        },
        {
          "internalType": "uint256[]",
          "name": "ids",
          "type": "uint256[]"
        },
        {
          "internalType": "uint256[]",
          "name": "amounts",
          "type": "uint256[]"
        }
      ],
      "name": "mintBatch",
      "outputs": [],
      "stateMutability": "nonpayable",
      "type": "function"
    },
    {
      "inputs": [
        {
          "internalType": "address",
          "name": "account",
          "type": "address"
        },
        {
          "internalType": "uint256",
          "name": "id",
          "type": "uint256"
        },
        {
          "internalType": "uint256",
          "name": "amount",
          "type": "uint256"
        }
      ],
      "name": "burn",
      "outputs": [],
      "stateMutability": "nonpayable",
      "type": "function"
    },
    {
      "inputs": [
        {
          "internalType": "address",
          "name": "account",
          "type": "address"
        },
        {
          "internalType": "uint256[]",
          "name": "ids",
          "type": "uint256[]"
        },
        {
          "internalType": "uint256[]",
          "name": "amounts",
          "type": "uint256[]"
        }
      ],
      "name": "burnBatch",
      "outputs": [],
      "stateMutability": "nonpayable",
      "type": "function"
    },
    {
      "inputs": [
        {
          "internalType": "string",
          "name": "uri_",
          "type": "string"
        }
      ],
      "name": "setURI",
      "outputs": [],
      "stateMutability": "nonpayable",
      "type": "function"
    },
    {
      "inputs": [],
      "name": "version",
      "outputs": [
        {
          "internalType": "string",
          "name": "",
          "type": "string"
        }
      ],
      "stateMutability": "pure",
      "type": "function"
    }
  ],
  "bytecode": "0x60a06040523060805234801561001457600080fd5b5060805161301761004c60003960008181610796015281816107d601528181610b5d01528181610b9d0152610c3001526130176000f3fe60806040526004361061013f5760003560e01c806354fd4d50116100b6578063bb7fde711161006f578063bb7fde71146103a2578063d81d0a15146103c2578063e985e9c5146103e2578063f242432a1461042b578063f2fde38b1461044b578063f5298aca1461046b57600080fd5b806354fd4d50146102d95780636b20c45414610310578063715018a6146103305780638129fc1c146103455780638da5cb5b1461035a578063a22cb4651461038257600080fd5b80633659cfe6116101085780633659cfe61461021657806341f6538a14610236578063450efe21146102645780634e1273f4146102915780634f1ef286146102b157806352d1902d146102c457600080fd5b8062fdd58e1461014457806301ffc9a71461017757806302fe5305146101a75780630e89341c146101c95780632eb2c2d6146101f6575b600080fd5b34801561015057600080fd5b5061016461015f366004612351565b61048b565b6040519081526020015b60405180910390f35b34801561018357600080fd5b50610197610192366004612391565b610524565b604051901515815260200161016e565b3480156101b357600080fd5b506101c76101c23660046123f6565b610576565b005b3480156101d557600080fd5b506101e96101e4366004612437565b6105b2565b60405161016e91906124a8565b34801561020257600080fd5b506101c7610211366004612604565b610689565b34801561022257600080fd5b506101c76102313660046126ad565b61078b565b34801561024257600080fd5b506102566102513660046126ad565b61086b565b60405161016e929190612703565b34801561027057600080fd5b5061028461027f3660046126ad565b6109bd565b60405161016e9190612728565b34801561029d57600080fd5b506102846102ac36600461273b565b610a29565b6101c76102bf366004612805565b610b52565b3480156102d057600080fd5b50610164610c23565b3480156102e557600080fd5b5060408051808201909152600e81526d25b7b63632b1ba1027232a102b1960911b60208201526101e9565b34801561031c57600080fd5b506101c761032b36600461288c565b610cd7565b34801561033c57600080fd5b506101c7610d61565b34801561035157600080fd5b506101c7610d97565b34801561036657600080fd5b506033546040516001600160a01b03909116815260200161016e565b34801561038e57600080fd5b506101c761039d36600461290c565b610ef3565b3480156103ae57600080fd5b506101c76103bd366004612948565b610efe565b3480156103ce57600080fd5b506101c76103dd36600461288c565b610f86565b3480156103ee57600080fd5b506101976103fd36600461299e565b6001600160a01b03918216600090815260986020908152604080832093909416825291909152205460ff1690565b34801561043757600080fd5b506101c76104463660046129d1565b611094565b34801561045757600080fd5b506101c76104663660046126ad565b61113e565b34801561047757600080fd5b506101c7610486366004612a35565b6111d6565b60006001600160a01b0383166104fc5760405162461bcd60e51b815260206004820152602b60248201527f455243313135353a2062616c616e636520717565727920666f7220746865207a60448201526a65726f206164647265737360a81b60648201526084015b60405180910390fd5b5060009081526097602090815260408083206001600160a01b03949094168352929052205490565b60006001600160e01b03198216636cdb3d1360e11b148061055557506001600160e01b031982166303a24d0760e21b145b8061057057506301ffc9a760e01b6001600160e01b03198316145b92915050565b6033546001600160a01b031633146105a05760405162461bcd60e51b81526004016104f390612a68565b6105ad61012d838361222d565b505050565b600081815261012e602052604090208054606091906105d090612a9d565b15905061067657600082815261012e6020526040902080546105f190612a9d565b80601f016020809104026020016040519081016040528092919081815260200182805461061d90612a9d565b801561066a5780601f1061063f5761010080835404028352916020019161066a565b820191906000526020600020905b81548152906001019060200180831161064d57829003601f168201915b50505050509050919050565b61012d80546105f190612a9d565b919050565b6001600160a01b0385163314806106a557506106a585336103fd565b61070c5760405162461bcd60e51b815260206004820152603260248201527f455243313135353a207472616e736665722063616c6c6572206973206e6f74206044820152711bdddb995c881b9bdc88185c1c1c9bdd995960721b60648201526084016104f3565b61071985858585856111f6565b60005b835181101561078357600084828151811061073957610739612ad8565b6020026020010151905061077261012f6000886001600160a01b03166001600160a01b031681526020019081526020016000208261138d565b5061077c81612b04565b905061071c565b505050505050565b306001600160a01b037f00000000000000000000000000000000000000000000000000000000000000001614156107d45760405162461bcd60e51b81526004016104f390612b1f565b7f00000000000000000000000000000000000000000000000000000000000000006001600160a01b031661081d600080516020612f9b833981519152546001600160a01b031690565b6001600160a01b0316146108435760405162461bcd60e51b81526004016104f390612b6b565b61084c8161140b565b6040805160008082526020820190925261086891839190611435565b50565b6001600160a01b038116600090815261012f6020526040812054606091829190816001600160401b038111156108a3576108a36124bb565b6040519080825280602002602001820160405280156108cc578160200160208202803683370190505b5090506000826001600160401b038111156108e9576108e96124bb565b604051908082528060200260200182016040528015610912578160200160208202803683370190505b50905060005b838110156109b1576001600160a01b038716600090815261012f6020526040812080548390811061094b5761094b612ad8565b906000526020600020015490508084838151811061096b5761096b612ad8565b602002602001018181525050610981888261048b565b83838151811061099357610993612ad8565b602090810291909101015250806109a981612b04565b915050610918565b50909590945092505050565b6001600160a01b038116600090815261012f602090815260409182902080548351818402810184019094528084526060939283018282801561066a57602002820191906000526020600020905b815481526020019060010190808311610a0a5750505050509050919050565b60608151835114610a8e5760405162461bcd60e51b815260206004820152602960248201527f455243313135353a206163636f756e747320616e6420696473206c656e677468604482015268040dad2e6dac2e8c6d60bb1b60648201526084016104f3565b600083516001600160401b03811115610aa957610aa96124bb565b604051908082528060200260200182016040528015610ad2578160200160208202803683370190505b50905060005b8451811015610b4a57610b1d858281518110610af657610af6612ad8565b6020026020010151858381518110610b1057610b10612ad8565b602002602001015161048b565b828281518110610b2f57610b2f612ad8565b6020908102919091010152610b4381612b04565b9050610ad8565b509392505050565b306001600160a01b037f0000000000000000000000000000000000000000000000000000000000000000161415610b9b5760405162461bcd60e51b81526004016104f390612b1f565b7f00000000000000000000000000000000000000000000000000000000000000006001600160a01b0316610be4600080516020612f9b833981519152546001600160a01b031690565b6001600160a01b031614610c0a5760405162461bcd60e51b81526004016104f390612b6b565b610c138261140b565b610c1f82826001611435565b5050565b6000306001600160a01b037f00000000000000000000000000000000000000000000000000000000000000001614610cc35760405162461bcd60e51b815260206004820152603860248201527f555550535570677261646561626c653a206d757374206e6f742062652063616c60448201527f6c6564207468726f7567682064656c656761746563616c6c000000000000000060648201526084016104f3565b50600080516020612f9b8339815191525b90565b336001600160a01b03861614610cec57600080fd5b610d5a85858580806020026020016040519081016040528093929190818152602001838360200280828437600092019190915250506040805160208089028281018201909352888252909350889250879182918501908490808284376000920191909152506115a092505050565b5050505050565b6033546001600160a01b03163314610d8b5760405162461bcd60e51b81526004016104f390612a68565b610d95600061171f565b565b600054610100900460ff16610db25760005460ff1615610db6565b303b155b610e195760405162461bcd60e51b815260206004820152602e60248201527f496e697469616c697a61626c653a20636f6e747261637420697320616c72656160448201526d191e481a5b9a5d1a585b1a5e995960921b60648201526084016104f3565b600054610100900460ff16158015610e3b576000805461ffff19166101011790555b610ecf61012d8054610e4c90612a9d565b80601f0160208091040260200160405190810160405280929190818152602001828054610e7890612a9d565b8015610ec55780601f10610e9a57610100808354040283529160200191610ec5565b820191906000526020600020905b815481529060010190602001808311610ea857829003601f168201915b5050505050611771565b610ed76117a1565b610edf6117d0565b8015610868576000805461ff001916905550565b610c1f3383836117f7565b6033546001600160a01b03163314610f285760405162461bcd60e51b81526004016104f390612a68565b610f43858585604051806020016040528060008152506118d8565b6001600160a01b038516600090815261012f60205260409020610f66908561138d565b8015610d5a57600084815261012e6020526040902061078390838361222d565b6033546001600160a01b03163314610fb05760405162461bcd60e51b81526004016104f390612a68565b61102c85858580806020026020016040519081016040528093929190818152602001838360200280828437600092019190915250506040805160208089028281018201909352888252909350889250879182918501908490808284376000920182905250604080516020810190915290815292506119aa915050565b60005b8381101561078357600085858381811061104b5761104b612ad8565b90506020020135905061108361012f6000896001600160a01b03166001600160a01b031681526020019081526020016000208261138d565b5061108d81612b04565b905061102f565b6001600160a01b0385163314806110b057506110b085336103fd565b61110e5760405162461bcd60e51b815260206004820152602960248201527f455243313135353a2063616c6c6572206973206e6f74206f776e6572206e6f7260448201526808185c1c1c9bdd995960ba1b60648201526084016104f3565b61111b8585858585611af6565b6001600160a01b038416600090815261012f60205260409020610d5a908461138d565b6033546001600160a01b031633146111685760405162461bcd60e51b81526004016104f390612a68565b6001600160a01b0381166111cd5760405162461bcd60e51b815260206004820152602660248201527f4f776e61626c653a206e6577206f776e657220697320746865207a65726f206160448201526564647265737360d01b60648201526084016104f3565b6108688161171f565b336001600160a01b038416146111eb57600080fd5b6105ad838383611c17565b81518351146112175760405162461bcd60e51b81526004016104f390612bb7565b6001600160a01b03841661123d5760405162461bcd60e51b81526004016104f390612bff565b3360005b845181101561132757600085828151811061125e5761125e612ad8565b60200260200101519050600085838151811061127c5761127c612ad8565b60209081029190910181015160008481526097835260408082206001600160a01b038e1683529093529190912054909150818110156112cd5760405162461bcd60e51b81526004016104f390612c44565b60008381526097602090815260408083206001600160a01b038e8116855292528083208585039055908b1682528120805484929061130c908490612c8e565b925050819055505050508061132090612b04565b9050611241565b50846001600160a01b0316866001600160a01b0316826001600160a01b03167f4a39dc06d4c0dbc64b70af90fd698a233a518aa5d07e595d983b8c0526c8f7fb8787604051611377929190612703565b60405180910390a4610783818787878787611d1d565b81546113ab5781546001810183556000928352602090922090910155565b60005b82548110156113f257818382815481106113ca576113ca612ad8565b906000526020600020015414156113e057505050565b806113ea81612b04565b9150506113ae565b5081546001810183556000928352602090922090910155565b6033546001600160a01b031633146108685760405162461bcd60e51b81526004016104f390612a68565b7f4910fdfa16fed3260ed0e7147f7cc6da11a60208b5b9406d12a635614ffd91435460ff1615611468576105ad83611e79565b826001600160a01b03166352d1902d6040518163ffffffff1660e01b8152600401602060405180830381865afa9250505080156114c2575060408051601f3d908101601f191682019092526114bf91810190612ca6565b60015b6115255760405162461bcd60e51b815260206004820152602e60248201527f45524331393637557067726164653a206e657720696d706c656d656e7461746960448201526d6f6e206973206e6f74205555505360901b60648201526084016104f3565b600080516020612f9b83398151915281146115945760405162461bcd60e51b815260206004820152602960248201527f45524331393637557067726164653a20756e737570706f727465642070726f786044820152681a58589b195555525160ba1b60648201526084016104f3565b506105ad838383611f15565b6001600160a01b0383166115c65760405162461bcd60e51b81526004016104f390612cbf565b80518251146115e75760405162461bcd60e51b81526004016104f390612bb7565b604080516020810190915260009081905233905b83518110156116c057600084828151811061161857611618612ad8565b60200260200101519050600084838151811061163657611636612ad8565b60209081029190910181015160008481526097835260408082206001600160a01b038c1683529093529190912054909150818110156116875760405162461bcd60e51b81526004016104f390612d02565b60009283526097602090815260408085206001600160a01b038b16865290915290922091039055806116b881612b04565b9150506115fb565b5060006001600160a01b0316846001600160a01b0316826001600160a01b03167f4a39dc06d4c0dbc64b70af90fd698a233a518aa5d07e595d983b8c0526c8f7fb8686604051611711929190612703565b60405180910390a450505050565b603380546001600160a01b038381166001600160a01b0319831681179093556040519116919082907f8be0079c531659141344cd1fd0a4f28419497f9722a3daafe3b4186f6b6457e090600090a35050565b600054610100900460ff166117985760405162461bcd60e51b81526004016104f390612d46565b61086881611f40565b600054610100900460ff166117c85760405162461bcd60e51b81526004016104f390612d46565b610d95611f70565b600054610100900460ff16610d955760405162461bcd60e51b81526004016104f390612d46565b816001600160a01b0316836001600160a01b0316141561186b5760405162461bcd60e51b815260206004820152602960248201527f455243313135353a2073657474696e6720617070726f76616c20737461747573604482015268103337b91039b2b63360b91b60648201526084016104f3565b6001600160a01b03838116600081815260986020908152604080832094871680845294825291829020805460ff191686151590811790915591519182527f17307eab39ab6107e8899845ad3d59bd9653f200f220920489ca2b5937696c31910160405180910390a3505050565b6001600160a01b0384166118fe5760405162461bcd60e51b81526004016104f390612d91565b336119188160008761190f88611fa0565b610d5a88611fa0565b60008481526097602090815260408083206001600160a01b03891684529091528120805485929061194a908490612c8e565b909155505060408051858152602081018590526001600160a01b0380881692600092918516917fc3d58168c5ae7397731d063d5bbf3d657854427343f4c083240f7aacaa2d0f62910160405180910390a4610d5a81600087878787611feb565b6001600160a01b0384166119d05760405162461bcd60e51b81526004016104f390612d91565b81518351146119f15760405162461bcd60e51b81526004016104f390612bb7565b3360005b8451811015611a8e57838181518110611a1057611a10612ad8565b602002602001015160976000878481518110611a2e57611a2e612ad8565b602002602001015181526020019081526020016000206000886001600160a01b03166001600160a01b031681526020019081526020016000206000828254611a769190612c8e565b90915550819050611a8681612b04565b9150506119f5565b50846001600160a01b031660006001600160a01b0316826001600160a01b03167f4a39dc06d4c0dbc64b70af90fd698a233a518aa5d07e595d983b8c0526c8f7fb8787604051611adf929190612703565b60405180910390a4610d5a81600087878787611d1d565b6001600160a01b038416611b1c5760405162461bcd60e51b81526004016104f390612bff565b33611b2c81878761190f88611fa0565b60008481526097602090815260408083206001600160a01b038a16845290915290205483811015611b6f5760405162461bcd60e51b81526004016104f390612c44565b60008581526097602090815260408083206001600160a01b038b8116855292528083208785039055908816825281208054869290611bae908490612c8e565b909155505060408051868152602081018690526001600160a01b03808916928a821692918616917fc3d58168c5ae7397731d063d5bbf3d657854427343f4c083240f7aacaa2d0f62910160405180910390a4611c0e828888888888611feb565b50505050505050565b6001600160a01b038316611c3d5760405162461bcd60e51b81526004016104f390612cbf565b33611c6d81856000611c4e87611fa0565b611c5787611fa0565b5050604080516020810190915260009052505050565b60008381526097602090815260408083206001600160a01b038816845290915290205482811015611cb05760405162461bcd60e51b81526004016104f390612d02565b60008481526097602090815260408083206001600160a01b03898116808652918452828520888703905582518981529384018890529092908616917fc3d58168c5ae7397731d063d5bbf3d657854427343f4c083240f7aacaa2d0f62910160405180910390a45050505050565b6001600160a01b0384163b156107835760405163bc197c8160e01b81526001600160a01b0385169063bc197c8190611d619089908990889088908890600401612dd2565b6020604051808303816000875af1925050508015611d9c575060408051601f3d908101601f19168201909252611d9991810190612e30565b60015b611e4957611da8612e4d565b806308c379a01415611de25750611dbd612e68565b80611dc85750611de4565b8060405162461bcd60e51b81526004016104f391906124a8565b505b60405162461bcd60e51b815260206004820152603460248201527f455243313135353a207472616e7366657220746f206e6f6e20455243313135356044820152732932b1b2b4bb32b91034b6b83632b6b2b73a32b960611b60648201526084016104f3565b6001600160e01b0319811663bc197c8160e01b14611c0e5760405162461bcd60e51b81526004016104f390612ef1565b6001600160a01b0381163b611ee65760405162461bcd60e51b815260206004820152602d60248201527f455243313936373a206e657720696d706c656d656e746174696f6e206973206e60448201526c1bdd08184818dbdb9d1c9858dd609a1b60648201526084016104f3565b600080516020612f9b83398151915280546001600160a01b0319166001600160a01b0392909216919091179055565b611f1e836120a6565b600082511180611f2b5750805b156105ad57611f3a83836120e6565b50505050565b600054610100900460ff16611f675760405162461bcd60e51b81526004016104f390612d46565b610868816121da565b600054610100900460ff16611f975760405162461bcd60e51b81526004016104f390612d46565b610d953361171f565b60408051600180825281830190925260609160009190602080830190803683370190505090508281600081518110611fda57611fda612ad8565b602090810291909101015292915050565b6001600160a01b0384163b156107835760405163f23a6e6160e01b81526001600160a01b0385169063f23a6e619061202f9089908990889088908890600401612f39565b6020604051808303816000875af192505050801561206a575060408051601f3d908101601f1916820190925261206791810190612e30565b60015b61207657611da8612e4d565b6001600160e01b0319811663f23a6e6160e01b14611c0e5760405162461bcd60e51b81526004016104f390612ef1565b6120af81611e79565b6040516001600160a01b038216907fbc7cd75a20ee27fd9adebab32041f755214dbc6bffa90cc0225b39da2e5c2d3b90600090a250565b60606001600160a01b0383163b61214e5760405162461bcd60e51b815260206004820152602660248201527f416464726573733a2064656c65676174652063616c6c20746f206e6f6e2d636f6044820152651b9d1c9858dd60d21b60648201526084016104f3565b600080846001600160a01b0316846040516121699190612f7e565b600060405180830381855af49150503d80600081146121a4576040519150601f19603f3d011682016040523d82523d6000602084013e6121a9565b606091505b50915091506121d18282604051806060016040528060278152602001612fbb602791396121ed565b95945050505050565b8051610c1f9060999060208401906122b1565b606083156121fc575081612226565b82511561220c5782518084602001fd5b8160405162461bcd60e51b81526004016104f391906124a8565b9392505050565b82805461223990612a9d565b90600052602060002090601f01602090048101928261225b57600085556122a1565b82601f106122745782800160ff198235161785556122a1565b828001600101855582156122a1579182015b828111156122a1578235825591602001919060010190612286565b506122ad929150612325565b5090565b8280546122bd90612a9d565b90600052602060002090601f0160209004810192826122df57600085556122a1565b82601f106122f857805160ff19168380011785556122a1565b828001600101855582156122a1579182015b828111156122a157825182559160200191906001019061230a565b5b808211156122ad5760008155600101612326565b80356001600160a01b038116811461068457600080fd5b6000806040838503121561236457600080fd5b61236d8361233a565b946020939093013593505050565b6001600160e01b03198116811461086857600080fd5b6000602082840312156123a357600080fd5b81356122268161237b565b60008083601f8401126123c057600080fd5b5081356001600160401b038111156123d757600080fd5b6020830191508360208285010111156123ef57600080fd5b9250929050565b6000806020838503121561240957600080fd5b82356001600160401b0381111561241f57600080fd5b61242b858286016123ae565b90969095509350505050565b60006020828403121561244957600080fd5b5035919050565b60005b8381101561246b578181015183820152602001612453565b83811115611f3a5750506000910152565b60008151808452612494816020860160208601612450565b601f01601f19169290920160200192915050565b602081526000612226602083018461247c565b634e487b7160e01b600052604160045260246000fd5b601f8201601f191681016001600160401b03811182821017156124f6576124f66124bb565b6040525050565b60006001600160401b03821115612516576125166124bb565b5060051b60200190565b600082601f83011261253157600080fd5b8135602061253e826124fd565b60405161254b82826124d1565b83815260059390931b850182019282810191508684111561256b57600080fd5b8286015b84811015612586578035835291830191830161256f565b509695505050505050565b600082601f8301126125a257600080fd5b81356001600160401b038111156125bb576125bb6124bb565b6040516125d2601f8301601f1916602001826124d1565b8181528460208386010111156125e757600080fd5b816020850160208301376000918101602001919091529392505050565b600080600080600060a0868803121561261c57600080fd5b6126258661233a565b94506126336020870161233a565b935060408601356001600160401b038082111561264f57600080fd5b61265b89838a01612520565b9450606088013591508082111561267157600080fd5b61267d89838a01612520565b9350608088013591508082111561269357600080fd5b506126a088828901612591565b9150509295509295909350565b6000602082840312156126bf57600080fd5b6122268261233a565b600081518084526020808501945080840160005b838110156126f8578151875295820195908201906001016126dc565b509495945050505050565b60408152600061271660408301856126c8565b82810360208401526121d181856126c8565b60208152600061222660208301846126c8565b6000806040838503121561274e57600080fd5b82356001600160401b038082111561276557600080fd5b818501915085601f83011261277957600080fd5b81356020612786826124fd565b60405161279382826124d1565b83815260059390931b85018201928281019150898411156127b357600080fd5b948201945b838610156127d8576127c98661233a565b825294820194908201906127b8565b965050860135925050808211156127ee57600080fd5b506127fb85828601612520565b9150509250929050565b6000806040838503121561281857600080fd5b6128218361233a565b915060208301356001600160401b0381111561283c57600080fd5b6127fb85828601612591565b60008083601f84011261285a57600080fd5b5081356001600160401b0381111561287157600080fd5b6020830191508360208260051b85010111156123ef57600080fd5b6000806000806000606086880312156128a457600080fd5b6128ad8661233a565b945060208601356001600160401b03808211156128c957600080fd5b6128d589838a01612848565b909650945060408801359150808211156128ee57600080fd5b506128fb88828901612848565b969995985093965092949392505050565b6000806040838503121561291f57600080fd5b6129288361233a565b91506020830135801515811461293d57600080fd5b809150509250929050565b60008060008060006080868803121561296057600080fd5b6129698661233a565b9450602086013593506040860135925060608601356001600160401b0381111561299257600080fd5b6128fb888289016123ae565b600080604083850312156129b157600080fd5b6129ba8361233a565b91506129c86020840161233a565b90509250929050565b600080600080600060a086880312156129e957600080fd5b6129f28661233a565b9450612a006020870161233a565b9350604086013592506060860135915060808601356001600160401b03811115612a2957600080fd5b6126a088828901612591565b600080600060608486031215612a4a57600080fd5b612a538461233a565b95602085013595506040909401359392505050565b6020808252818101527f4f776e61626c653a2063616c6c6572206973206e6f7420746865206f776e6572604082015260600190565b600181811c90821680612ab157607f821691505b60208210811415612ad257634e487b7160e01b600052602260045260246000fd5b50919050565b634e487b7160e01b600052603260045260246000fd5b634e487b7160e01b600052601160045260246000fd5b6000600019821415612b1857612b18612aee565b5060010190565b6020808252602c908201527f46756e6374696f6e206d7573742062652063616c6c6564207468726f7567682060408201526b19195b1959d85d1958d85b1b60a21b606082015260800190565b6020808252602c908201527f46756e6374696f6e206d7573742062652063616c6c6564207468726f7567682060408201526b6163746976652070726f787960a01b606082015260800190565b60208082526028908201527f455243313135353a2069647320616e6420616d6f756e7473206c656e677468206040820152670dad2e6dac2e8c6d60c31b606082015260800190565b60208082526025908201527f455243313135353a207472616e7366657220746f20746865207a65726f206164604082015264647265737360d81b606082015260800190565b6020808252602a908201527f455243313135353a20696e73756666696369656e742062616c616e636520666f60408201526939103a3930b739b332b960b11b606082015260800190565b60008219821115612ca157612ca1612aee565b500190565b600060208284031215612cb857600080fd5b5051919050565b60208082526023908201527f455243313135353a206275726e2066726f6d20746865207a65726f206164647260408201526265737360e81b606082015260800190565b60208082526024908201527f455243313135353a206275726e20616d6f756e7420657863656564732062616c604082015263616e636560e01b606082015260800190565b6020808252602b908201527f496e697469616c697a61626c653a20636f6e7472616374206973206e6f74206960408201526a6e697469616c697a696e6760a81b606082015260800190565b60208082526021908201527f455243313135353a206d696e7420746f20746865207a65726f206164647265736040820152607360f81b606082015260800190565b6001600160a01b0386811682528516602082015260a060408201819052600090612dfe908301866126c8565b8281036060840152612e1081866126c8565b90508281036080840152612e24818561247c565b98975050505050505050565b600060208284031215612e4257600080fd5b81516122268161237b565b600060033d1115610cd45760046000803e5060005160e01c90565b600060443d1015612e765790565b6040516003193d81016004833e81513d6001600160401b038160248401118184111715612ea557505050505090565b8285019150815181811115612ebd5750505050505090565b843d8701016020828501011115612ed75750505050505090565b612ee6602082860101876124d1565b509095945050505050565b60208082526028908201527f455243313135353a204552433131353552656365697665722072656a656374656040820152676420746f6b656e7360c01b606082015260800190565b6001600160a01b03868116825285166020820152604081018490526060810183905260a060808201819052600090612f739083018461247c565b979650505050505050565b60008251612f90818460208701612450565b919091019291505056fe360894a13ba1a3210667c828492db98dca3e2076cc3735a920a3ca505d382bbc416464726573733a206c6f772d6c6576656c2064656c65676174652063616c6c206661696c6564a26469706673582212209caa612eed387373edaba023d01ffa259358649cc0683f345c1ebb32aef7536064736f6c634300080b0033",
  "immutableReferences": {
    "1189": [
      {
        "length": 32,
        "start": 1942
      },
      {
        "length": 32,
        "start": 2006
      },
      {
        "length": 32,
        "start": 2909
      },
      {
        "length": 32,
        "start": 2973
      },
      {
        "length": 32,
        "start": 3120
      }
    ]
  },
  "source": "// SPDX-License-Identifier: MIT\npragma solidity 0.8.11;\n\nimport \"@openzeppelin/contracts-upgradeable/token/ERC1155/ERC1155Upgradeable.sol\";\nimport \"@openzeppelin/contracts-upgradeable/access/OwnableUpgradeable.sol\";\nimport \"@openzeppelin/contracts-upgradeable/proxy/utils/Initializable.sol\";\nimport \"@openzeppelin/contracts-upgradeable/proxy/utils/UUPSUpgradeable.sol\";\n\ncontract KollectNFT_V2 is \n    Initializable,\n    OwnableUpgradeable,\n    ERC1155Upgradeable,\n    UUPSUpgradeable\n{\n    string private _uri;\n    mapping (uint256 => string) private _uris;\n    mapping (address => uint256[]) private _addressToTokens;\n\n    function initialize() public initializer {\n        __ERC1155_init(_uri);\n        __Ownable_init();\n        __UUPSUpgradeable_init();\n    }\n    \n    function arrayPush(uint[] storage input, uint element) internal {\n        if (input.length == 0) {\n            input.push(element);\n        } else {\n            for (uint i = 0; i < input.length; i++)\n            {\n                if (input[i] == element) {\n                    return;\n                }\n            }\n            \n            input.push(element);\n        }\n    }\n    \n    function safeTransferFrom(\n        address from,\n        address to,\n        uint256 id,\n        uint256 amount,\n        bytes memory data\n    ) public override {\n        require(\n            from == _msgSender() || isApprovedForAll(from, _msgSender()),\n            \"ERC1155: caller is not owner nor approved\"\n        );\n        _safeTransferFrom(from, to, id, amount, data);\n        arrayPush(_addressToTokens[to], id);\n    }\n\n    function safeBatchTransferFrom(\n        address from,\n        address to,\n        uint256[] memory ids,\n        uint256[] memory amounts,\n        bytes memory data\n    ) public override {\n        require(\n            from == _msgSender() || isApprovedForAll(from, _msgSender()),\n            \"ERC1155: transfer caller is not owner nor approved\"\n        );\n        _safeBatchTransferFrom(from, to, ids, amounts, data);\n        \n        for (uint256 i = 0; i < ids.length; ++i) {\n            uint256 id = ids[i];\n            arrayPush(_addressToTokens[to], id);\n        }\n    }\n    \n    function uri(uint256 id) public view override returns (string memory) {\n        if (bytes(_uris[id]).length != 0) return _uris[id];\n        else return _uri;\n    }\n    \n    function getTokens(address account) public view returns (uint256[] memory) {\n        return _addressToTokens[account];\n    }\n    \n    function getTokensAndAmounts(address account) public view returns (uint256[] memory, uint256[] memory) {\n        uint length = _addressToTokens[account].length;\n        uint256[] memory ids = new uint256[](length);\n        uint256[] memory amounts = new uint256[](length);\n        for (uint i = 0; i < length; i++) {\n            uint id = _addressToTokens[account][i];\n            ids[i] = id;\n            amounts[i] = balanceOf(account, id);\n        }\n        return (ids, amounts);\n    }\n\n    function mint(address account, uint256 id, uint256 amount, string calldata newUri) public onlyOwner {\n        _mint(account, id, amount, \"\");\n        arrayPush(_addressToTokens[account], id);\n        if (bytes(newUri).length != 0) {\n            _uris[id] = newUri;\n        }\n    }\n    \n    function mintBatch(address account, uint256[] calldata ids, uint256[] calldata amounts) public onlyOwner {\n        _mintBatch(account, ids, amounts, \"\");\n        for (uint256 i = 0; i < ids.length; ++i) {\n            uint256 id = ids[i];\n            arrayPush(_addressToTokens[account], id);\n        }\n    }\n    \n    function burn(address account, uint256 id, uint256 amount) public {\n        require(_msgSender() == account);\n        _burn(account, id, amount);\n    }\n    \n    function burnBatch(address account, uint256[] calldata ids, uint256[] calldata amounts) public {\n        require(_msgSender() == account);\n        _burnBatch(account, ids, amounts);\n    }\n    \n    function setURI(string calldata uri_) public onlyOwner {\n        _uri = uri_;\n    }\n\n    function _authorizeUpgrade(address newImplementation) internal override onlyOwner {}\n\n    function version() public pure returns (string memory) {\n        return \"Kollect NFT V2\";\n    }\n}",
  "sourcePath": "D:\\Projects\\NFT-Projects\\kollect-project\\kollect-truffle\\upgradable-contracts\\Truffle\\contracts\\kollect-contracts\\kollect-1155-v2.sol",
  "compiler": {
    "name": "solc",
    "version": "0.8.11+commit.d7f03943.Emscripten.clang"
  },
  "schemaVersion": "3.4.5",
  "updatedAt": "2022-04-06T18:40:49.087Z",
  "devdoc": {
    "kind": "dev",
    "methods": {
      "balanceOf(address,uint256)": {
        "details": "See {IERC1155-balanceOf}. Requirements: - `account` cannot be the zero address."
      },
      "balanceOfBatch(address[],uint256[])": {
        "details": "See {IERC1155-balanceOfBatch}. Requirements: - `accounts` and `ids` must have the same length."
      },
      "isApprovedForAll(address,address)": {
        "details": "See {IERC1155-isApprovedForAll}."
      },
      "owner()": {
        "details": "Returns the address of the current owner."
      },
      "proxiableUUID()": {
        "details": "Implementation of the ERC1822 {proxiableUUID} function. This returns the storage slot used by the implementation. It is used to validate that the this implementation remains valid after an upgrade. IMPORTANT: A proxy pointing at a proxiable contract should not be considered proxiable itself, because this risks bricking a proxy that upgrades to it, by delegating to itself until out of gas. Thus it is critical that this function revert if invoked through a proxy. This is guaranteed by the `notDelegated` modifier."
      },
      "renounceOwnership()": {
        "details": "Leaves the contract without owner. It will not be possible to call `onlyOwner` functions anymore. Can only be called by the current owner. NOTE: Renouncing ownership will leave the contract without an owner, thereby removing any functionality that is only available to the owner."
      },
      "safeBatchTransferFrom(address,address,uint256[],uint256[],bytes)": {
        "details": "See {IERC1155-safeBatchTransferFrom}."
      },
      "safeTransferFrom(address,address,uint256,uint256,bytes)": {
        "details": "See {IERC1155-safeTransferFrom}."
      },
      "setApprovalForAll(address,bool)": {
        "details": "See {IERC1155-setApprovalForAll}."
      },
      "supportsInterface(bytes4)": {
        "details": "See {IERC165-supportsInterface}."
      },
      "transferOwnership(address)": {
        "details": "Transfers ownership of the contract to a new account (`newOwner`). Can only be called by the current owner."
      },
      "upgradeTo(address)": {
        "details": "Upgrade the implementation of the proxy to `newImplementation`. Calls {_authorizeUpgrade}. Emits an {Upgraded} event."
      },
      "upgradeToAndCall(address,bytes)": {
        "details": "Upgrade the implementation of the proxy to `newImplementation`, and subsequently execute the function call encoded in `data`. Calls {_authorizeUpgrade}. Emits an {Upgraded} event."
      }
    },
    "version": 1
  },
  "userdoc": {
    "kind": "user",
    "methods": {},
    "version": 1
  }
}