{
  "contractName": "KollectMarketLogic_V1",
  "abi": [
    {
      "anonymous": false,
      "inputs": [
        {
          "indexed": false,
          "internalType": "address",
          "name": "contractAddress",
          "type": "address"
        }
      ],
      "name": "AddedContractToWhitelists",
      "type": "event"
    },
    {
      "anonymous": false,
      "inputs": [
        {
          "indexed": false,
          "internalType": "address",
          "name": "previousAdmin",
          "type": "address"
        },
        {
          "indexed": false,
          "internalType": "address",
          "name": "newAdmin",
          "type": "address"
        }
      ],
      "name": "AdminChanged",
      "type": "event"
    },
    {
      "anonymous": false,
      "inputs": [
        {
          "indexed": true,
          "internalType": "address",
          "name": "beacon",
          "type": "address"
        }
      ],
      "name": "BeaconUpgraded",
      "type": "event"
    },
    {
      "anonymous": false,
      "inputs": [
        {
          "indexed": false,
          "internalType": "uint256",
          "name": "salesIndex",
          "type": "uint256"
        },
        {
          "indexed": false,
          "internalType": "uint256",
          "name": "nftId",
          "type": "uint256"
        },
        {
          "indexed": false,
          "internalType": "uint256",
          "name": "nftCount",
          "type": "uint256"
        },
        {
          "indexed": false,
          "internalType": "address",
          "name": "claimedBy",
          "type": "address"
        }
      ],
      "name": "CanceledNFTClaimedFromSimpleMarket",
      "type": "event"
    },
    {
      "anonymous": false,
      "inputs": [
        {
          "indexed": false,
          "internalType": "uint256",
          "name": "salesIndex",
          "type": "uint256"
        },
        {
          "indexed": false,
          "internalType": "uint256",
          "name": "price",
          "type": "uint256"
        }
      ],
      "name": "ItemPurchasedOnSimpleMarket",
      "type": "event"
    },
    {
      "anonymous": false,
      "inputs": [
        {
          "indexed": false,
          "internalType": "uint256",
          "name": "prev",
          "type": "uint256"
        },
        {
          "indexed": false,
          "internalType": "uint256",
          "name": "current",
          "type": "uint256"
        }
      ],
      "name": "ListingFeeChanged",
      "type": "event"
    },
    {
      "anonymous": false,
      "inputs": [
        {
          "indexed": false,
          "internalType": "uint256",
          "name": "salesIndex",
          "type": "uint256"
        },
        {
          "indexed": false,
          "internalType": "uint256",
          "name": "nftId",
          "type": "uint256"
        },
        {
          "indexed": false,
          "internalType": "uint256",
          "name": "nftCount",
          "type": "uint256"
        },
        {
          "indexed": false,
          "internalType": "address",
          "name": "claimedBy",
          "type": "address"
        }
      ],
      "name": "NFTClaimedFromSimpleMarket",
      "type": "event"
    },
    {
      "anonymous": false,
      "inputs": [
        {
          "indexed": false,
          "internalType": "uint256",
          "name": "salesIndex",
          "type": "uint256"
        },
        {
          "indexed": false,
          "internalType": "uint256",
          "name": "nftId",
          "type": "uint256"
        },
        {
          "indexed": false,
          "internalType": "uint256",
          "name": "nftCount",
          "type": "uint256"
        },
        {
          "indexed": false,
          "internalType": "address",
          "name": "claimedBy",
          "type": "address"
        }
      ],
      "name": "NFTRefundedFromSimpleMarket",
      "type": "event"
    },
    {
      "anonymous": false,
      "inputs": [
        {
          "indexed": false,
          "internalType": "uint256",
          "name": "index",
          "type": "uint256"
        },
        {
          "indexed": false,
          "internalType": "address",
          "name": "addressNFTCollection",
          "type": "address"
        },
        {
          "indexed": false,
          "internalType": "address",
          "name": "addressPaymentToken",
          "type": "address"
        },
        {
          "indexed": false,
          "internalType": "uint256",
          "name": "nftId",
          "type": "uint256"
        },
        {
          "indexed": false,
          "internalType": "uint256",
          "name": "nftCount",
          "type": "uint256"
        },
        {
          "indexed": false,
          "internalType": "address",
          "name": "mintedBy",
          "type": "address"
        },
        {
          "indexed": false,
          "internalType": "address",
          "name": "currentBuyer",
          "type": "address"
        },
        {
          "indexed": false,
          "internalType": "uint256",
          "name": "currentListingPrice",
          "type": "uint256"
        },
        {
          "indexed": false,
          "internalType": "bool",
          "name": "isSold",
          "type": "bool"
        },
        {
          "indexed": false,
          "internalType": "bool",
          "name": "canClaim",
          "type": "bool"
        }
      ],
      "name": "NewSimpleMarket",
      "type": "event"
    },
    {
      "anonymous": false,
      "inputs": [
        {
          "indexed": false,
          "internalType": "address",
          "name": "prev",
          "type": "address"
        },
        {
          "indexed": false,
          "internalType": "address",
          "name": "current",
          "type": "address"
        }
      ],
      "name": "OperatorChanged",
      "type": "event"
    },
    {
      "anonymous": false,
      "inputs": [
        {
          "indexed": true,
          "internalType": "address",
          "name": "previousOwner",
          "type": "address"
        },
        {
          "indexed": true,
          "internalType": "address",
          "name": "newOwner",
          "type": "address"
        }
      ],
      "name": "OwnershipTransferred",
      "type": "event"
    },
    {
      "anonymous": false,
      "inputs": [
        {
          "indexed": false,
          "internalType": "uint256",
          "name": "salesIndex",
          "type": "uint256"
        },
        {
          "indexed": false,
          "internalType": "uint256",
          "name": "nftId",
          "type": "uint256"
        },
        {
          "indexed": false,
          "internalType": "uint256",
          "name": "nftCount",
          "type": "uint256"
        },
        {
          "indexed": false,
          "internalType": "address",
          "name": "claimedBy",
          "type": "address"
        }
      ],
      "name": "TokensClaimedFromSimpleMarket",
      "type": "event"
    },
    {
      "anonymous": false,
      "inputs": [
        {
          "indexed": true,
          "internalType": "address",
          "name": "implementation",
          "type": "address"
        }
      ],
      "name": "Upgraded",
      "type": "event"
    },
    {
      "inputs": [
        {
          "internalType": "address",
          "name": "_contract",
          "type": "address"
        }
      ],
      "name": "addContractAddress",
      "outputs": [],
      "stateMutability": "nonpayable",
      "type": "function"
    },
    {
      "inputs": [
        {
          "internalType": "uint256",
          "name": "_rate",
          "type": "uint256"
        }
      ],
      "name": "changeListingFeeRate",
      "outputs": [
        {
          "internalType": "bool",
          "name": "",
          "type": "bool"
        }
      ],
      "stateMutability": "nonpayable",
      "type": "function"
    },
    {
      "inputs": [
        {
          "internalType": "address",
          "name": "_addr",
          "type": "address"
        }
      ],
      "name": "changeOperator",
      "outputs": [
        {
          "internalType": "bool",
          "name": "",
          "type": "bool"
        }
      ],
      "stateMutability": "nonpayable",
      "type": "function"
    },
    {
      "inputs": [],
      "name": "listingFeeRate",
      "outputs": [
        {
          "internalType": "uint256",
          "name": "",
          "type": "uint256"
        }
      ],
      "stateMutability": "view",
      "type": "function"
    },
    {
      "inputs": [],
      "name": "name",
      "outputs": [
        {
          "internalType": "string",
          "name": "",
          "type": "string"
        }
      ],
      "stateMutability": "view",
      "type": "function"
    },
    {
      "inputs": [
        {
          "internalType": "address",
          "name": "",
          "type": "address"
        },
        {
          "internalType": "address",
          "name": "",
          "type": "address"
        },
        {
          "internalType": "uint256[]",
          "name": "",
          "type": "uint256[]"
        },
        {
          "internalType": "uint256[]",
          "name": "",
          "type": "uint256[]"
        },
        {
          "internalType": "bytes",
          "name": "",
          "type": "bytes"
        }
      ],
      "name": "onERC1155BatchReceived",
      "outputs": [
        {
          "internalType": "bytes4",
          "name": "",
          "type": "bytes4"
        }
      ],
      "stateMutability": "nonpayable",
      "type": "function"
    },
    {
      "inputs": [
        {
          "internalType": "address",
          "name": "",
          "type": "address"
        },
        {
          "internalType": "address",
          "name": "",
          "type": "address"
        },
        {
          "internalType": "uint256",
          "name": "",
          "type": "uint256"
        },
        {
          "internalType": "uint256",
          "name": "",
          "type": "uint256"
        },
        {
          "internalType": "bytes",
          "name": "",
          "type": "bytes"
        }
      ],
      "name": "onERC1155Received",
      "outputs": [
        {
          "internalType": "bytes4",
          "name": "",
          "type": "bytes4"
        }
      ],
      "stateMutability": "nonpayable",
      "type": "function"
    },
    {
      "inputs": [],
      "name": "owner",
      "outputs": [
        {
          "internalType": "address",
          "name": "",
          "type": "address"
        }
      ],
      "stateMutability": "view",
      "type": "function"
    },
    {
      "inputs": [],
      "name": "proxiableUUID",
      "outputs": [
        {
          "internalType": "bytes32",
          "name": "",
          "type": "bytes32"
        }
      ],
      "stateMutability": "view",
      "type": "function"
    },
    {
      "inputs": [],
      "name": "renounceOwnership",
      "outputs": [],
      "stateMutability": "nonpayable",
      "type": "function"
    },
    {
      "inputs": [],
      "name": "simpleMarketIndex",
      "outputs": [
        {
          "internalType": "uint256",
          "name": "",
          "type": "uint256"
        }
      ],
      "stateMutability": "view",
      "type": "function"
    },
    {
      "inputs": [],
      "name": "simpleMarketSoldIndex",
      "outputs": [
        {
          "internalType": "uint256",
          "name": "",
          "type": "uint256"
        }
      ],
      "stateMutability": "view",
      "type": "function"
    },
    {
      "inputs": [
        {
          "internalType": "bytes4",
          "name": "interfaceId",
          "type": "bytes4"
        }
      ],
      "name": "supportsInterface",
      "outputs": [
        {
          "internalType": "bool",
          "name": "",
          "type": "bool"
        }
      ],
      "stateMutability": "view",
      "type": "function"
    },
    {
      "inputs": [
        {
          "internalType": "address",
          "name": "newOwner",
          "type": "address"
        }
      ],
      "name": "transferOwnership",
      "outputs": [],
      "stateMutability": "nonpayable",
      "type": "function"
    },
    {
      "inputs": [
        {
          "internalType": "address",
          "name": "newImplementation",
          "type": "address"
        }
      ],
      "name": "upgradeTo",
      "outputs": [],
      "stateMutability": "nonpayable",
      "type": "function"
    },
    {
      "inputs": [
        {
          "internalType": "address",
          "name": "newImplementation",
          "type": "address"
        },
        {
          "internalType": "bytes",
          "name": "data",
          "type": "bytes"
        }
      ],
      "name": "upgradeToAndCall",
      "outputs": [],
      "stateMutability": "payable",
      "type": "function"
    },
    {
      "inputs": [
        {
          "internalType": "string",
          "name": "_name",
          "type": "string"
        },
        {
          "internalType": "address",
          "name": "_nftAddress",
          "type": "address"
        },
        {
          "internalType": "address",
          "name": "_kolAddress",
          "type": "address"
        }
      ],
      "name": "initialize",
      "outputs": [],
      "stateMutability": "nonpayable",
      "type": "function"
    },
    {
      "inputs": [],
      "name": "initialize",
      "outputs": [],
      "stateMutability": "nonpayable",
      "type": "function"
    },
    {
      "inputs": [
        {
          "internalType": "address",
          "name": "_addressNFTCollection",
          "type": "address"
        },
        {
          "internalType": "address",
          "name": "_addressPaymentToken",
          "type": "address"
        },
        {
          "internalType": "uint256",
          "name": "_nftId",
          "type": "uint256"
        },
        {
          "internalType": "uint256",
          "name": "_nftCount",
          "type": "uint256"
        },
        {
          "internalType": "uint256",
          "name": "_initialPrice",
          "type": "uint256"
        }
      ],
      "name": "createSimpleMarketSale",
      "outputs": [
        {
          "internalType": "uint256",
          "name": "",
          "type": "uint256"
        }
      ],
      "stateMutability": "nonpayable",
      "type": "function"
    },
    {
      "inputs": [
        {
          "internalType": "address",
          "name": "_addressNFTCollection",
          "type": "address"
        },
        {
          "internalType": "uint256",
          "name": "_nftId",
          "type": "uint256"
        },
        {
          "internalType": "uint256",
          "name": "_nftCount",
          "type": "uint256"
        },
        {
          "internalType": "uint256",
          "name": "_initialPrice",
          "type": "uint256"
        }
      ],
      "name": "createSimpleMarketSaleForBaseAsset",
      "outputs": [
        {
          "internalType": "uint256",
          "name": "",
          "type": "uint256"
        }
      ],
      "stateMutability": "nonpayable",
      "type": "function"
    },
    {
      "inputs": [
        {
          "internalType": "uint256",
          "name": "_marketIndex",
          "type": "uint256"
        }
      ],
      "name": "isSold",
      "outputs": [
        {
          "internalType": "bool",
          "name": "",
          "type": "bool"
        }
      ],
      "stateMutability": "view",
      "type": "function"
    },
    {
      "inputs": [
        {
          "internalType": "uint256",
          "name": "_marketIndex",
          "type": "uint256"
        }
      ],
      "name": "canClaim",
      "outputs": [
        {
          "internalType": "bool",
          "name": "",
          "type": "bool"
        }
      ],
      "stateMutability": "view",
      "type": "function"
    },
    {
      "inputs": [
        {
          "internalType": "uint256",
          "name": "_marketIndex",
          "type": "uint256"
        }
      ],
      "name": "getMarketItem",
      "outputs": [
        {
          "components": [
            {
              "internalType": "uint256",
              "name": "index",
              "type": "uint256"
            },
            {
              "internalType": "address",
              "name": "addressNFTCollection",
              "type": "address"
            },
            {
              "internalType": "address",
              "name": "addressPaymentToken",
              "type": "address"
            },
            {
              "internalType": "uint256",
              "name": "nftId",
              "type": "uint256"
            },
            {
              "internalType": "uint256",
              "name": "nftCount",
              "type": "uint256"
            },
            {
              "internalType": "address payable",
              "name": "creator",
              "type": "address"
            },
            {
              "internalType": "address payable",
              "name": "currentBuyer",
              "type": "address"
            },
            {
              "internalType": "uint256",
              "name": "currentListingPrice",
              "type": "uint256"
            },
            {
              "internalType": "bool",
              "name": "isSold",
              "type": "bool"
            },
            {
              "internalType": "bool",
              "name": "canClaim",
              "type": "bool"
            }
          ],
          "internalType": "struct KollectMarketStorage_V1.SimpleMarket",
          "name": "",
          "type": "tuple"
        }
      ],
      "stateMutability": "view",
      "type": "function"
    },
    {
      "inputs": [
        {
          "internalType": "uint256",
          "name": "_marketIndex",
          "type": "uint256"
        },
        {
          "internalType": "uint256",
          "name": "_price",
          "type": "uint256"
        }
      ],
      "name": "buyFromToken",
      "outputs": [
        {
          "internalType": "bool",
          "name": "",
          "type": "bool"
        }
      ],
      "stateMutability": "nonpayable",
      "type": "function"
    },
    {
      "inputs": [
        {
          "internalType": "uint256",
          "name": "_marketIndex",
          "type": "uint256"
        },
        {
          "internalType": "uint256",
          "name": "_price",
          "type": "uint256"
        }
      ],
      "name": "buyFromBaseAsset",
      "outputs": [
        {
          "internalType": "bool",
          "name": "",
          "type": "bool"
        }
      ],
      "stateMutability": "payable",
      "type": "function"
    },
    {
      "inputs": [
        {
          "internalType": "uint256",
          "name": "_marketIndex",
          "type": "uint256"
        }
      ],
      "name": "claimNFTFromSimpleMarket",
      "outputs": [],
      "stateMutability": "nonpayable",
      "type": "function"
    },
    {
      "inputs": [
        {
          "internalType": "uint256",
          "name": "_marketIndex",
          "type": "uint256"
        }
      ],
      "name": "claimTokenFromSimpleMarket",
      "outputs": [],
      "stateMutability": "nonpayable",
      "type": "function"
    },
    {
      "inputs": [
        {
          "internalType": "uint256",
          "name": "_marketIndex",
          "type": "uint256"
        }
      ],
      "name": "refundFromSimpleMarket",
      "outputs": [],
      "stateMutability": "nonpayable",
      "type": "function"
    },
    {
      "inputs": [],
      "name": "fetchMarketItems",
      "outputs": [
        {
          "components": [
            {
              "internalType": "uint256",
              "name": "index",
              "type": "uint256"
            },
            {
              "internalType": "address",
              "name": "addressNFTCollection",
              "type": "address"
            },
            {
              "internalType": "address",
              "name": "addressPaymentToken",
              "type": "address"
            },
            {
              "internalType": "uint256",
              "name": "nftId",
              "type": "uint256"
            },
            {
              "internalType": "uint256",
              "name": "nftCount",
              "type": "uint256"
            },
            {
              "internalType": "address payable",
              "name": "creator",
              "type": "address"
            },
            {
              "internalType": "address payable",
              "name": "currentBuyer",
              "type": "address"
            },
            {
              "internalType": "uint256",
              "name": "currentListingPrice",
              "type": "uint256"
            },
            {
              "internalType": "bool",
              "name": "isSold",
              "type": "bool"
            },
            {
              "internalType": "bool",
              "name": "canClaim",
              "type": "bool"
            }
          ],
          "internalType": "struct KollectMarketStorage_V1.SimpleMarket[]",
          "name": "",
          "type": "tuple[]"
        }
      ],
      "stateMutability": "view",
      "type": "function"
    },
    {
      "inputs": [
        {
          "internalType": "uint256",
          "name": "itemsPerPage",
          "type": "uint256"
        },
        {
          "internalType": "uint256",
          "name": "pageNum",
          "type": "uint256"
        },
        {
          "internalType": "bool",
          "name": "soldIncluded",
          "type": "bool"
        }
      ],
      "name": "fetchMarketItemsWithPaging",
      "outputs": [
        {
          "components": [
            {
              "internalType": "uint256",
              "name": "index",
              "type": "uint256"
            },
            {
              "internalType": "address",
              "name": "addressNFTCollection",
              "type": "address"
            },
            {
              "internalType": "address",
              "name": "addressPaymentToken",
              "type": "address"
            },
            {
              "internalType": "uint256",
              "name": "nftId",
              "type": "uint256"
            },
            {
              "internalType": "uint256",
              "name": "nftCount",
              "type": "uint256"
            },
            {
              "internalType": "address payable",
              "name": "creator",
              "type": "address"
            },
            {
              "internalType": "address payable",
              "name": "currentBuyer",
              "type": "address"
            },
            {
              "internalType": "uint256",
              "name": "currentListingPrice",
              "type": "uint256"
            },
            {
              "internalType": "bool",
              "name": "isSold",
              "type": "bool"
            },
            {
              "internalType": "bool",
              "name": "canClaim",
              "type": "bool"
            }
          ],
          "internalType": "struct KollectMarketStorage_V1.SimpleMarket[]",
          "name": "_items",
          "type": "tuple[]"
        },
        {
          "internalType": "uint256",
          "name": "_cursor",
          "type": "uint256"
        },
        {
          "internalType": "uint256",
          "name": "_itemsPerPage",
          "type": "uint256"
        },
        {
          "internalType": "uint256",
          "name": "_total",
          "type": "uint256"
        }
      ],
      "stateMutability": "view",
      "type": "function"
    },
    {
      "inputs": [],
      "name": "fetchMyMarketItems",
      "outputs": [
        {
          "components": [
            {
              "internalType": "uint256",
              "name": "index",
              "type": "uint256"
            },
            {
              "internalType": "address",
              "name": "addressNFTCollection",
              "type": "address"
            },
            {
              "internalType": "address",
              "name": "addressPaymentToken",
              "type": "address"
            },
            {
              "internalType": "uint256",
              "name": "nftId",
              "type": "uint256"
            },
            {
              "internalType": "uint256",
              "name": "nftCount",
              "type": "uint256"
            },
            {
              "internalType": "address payable",
              "name": "creator",
              "type": "address"
            },
            {
              "internalType": "address payable",
              "name": "currentBuyer",
              "type": "address"
            },
            {
              "internalType": "uint256",
              "name": "currentListingPrice",
              "type": "uint256"
            },
            {
              "internalType": "bool",
              "name": "isSold",
              "type": "bool"
            },
            {
              "internalType": "bool",
              "name": "canClaim",
              "type": "bool"
            }
          ],
          "internalType": "struct KollectMarketStorage_V1.SimpleMarket[]",
          "name": "",
          "type": "tuple[]"
        }
      ],
      "stateMutability": "view",
      "type": "function"
    },
    {
      "inputs": [
        {
          "internalType": "uint256",
          "name": "itemsPerPage",
          "type": "uint256"
        },
        {
          "internalType": "uint256",
          "name": "pageNum",
          "type": "uint256"
        }
      ],
      "name": "fetchMyMarketItemsWithPaging",
      "outputs": [
        {
          "components": [
            {
              "internalType": "uint256",
              "name": "index",
              "type": "uint256"
            },
            {
              "internalType": "address",
              "name": "addressNFTCollection",
              "type": "address"
            },
            {
              "internalType": "address",
              "name": "addressPaymentToken",
              "type": "address"
            },
            {
              "internalType": "uint256",
              "name": "nftId",
              "type": "uint256"
            },
            {
              "internalType": "uint256",
              "name": "nftCount",
              "type": "uint256"
            },
            {
              "internalType": "address payable",
              "name": "creator",
              "type": "address"
            },
            {
              "internalType": "address payable",
              "name": "currentBuyer",
              "type": "address"
            },
            {
              "internalType": "uint256",
              "name": "currentListingPrice",
              "type": "uint256"
            },
            {
              "internalType": "bool",
              "name": "isSold",
              "type": "bool"
            },
            {
              "internalType": "bool",
              "name": "canClaim",
              "type": "bool"
            }
          ],
          "internalType": "struct KollectMarketStorage_V1.SimpleMarket[]",
          "name": "_items",
          "type": "tuple[]"
        },
        {
          "internalType": "uint256",
          "name": "_cursor",
          "type": "uint256"
        },
        {
          "internalType": "uint256",
          "name": "_itemsPerPage",
          "type": "uint256"
        },
        {
          "internalType": "uint256",
          "name": "_total",
          "type": "uint256"
        }
      ],
      "stateMutability": "view",
      "type": "function"
    },
    {
      "inputs": [],
      "name": "fetchMarketItemsCreated",
      "outputs": [
        {
          "components": [
            {
              "internalType": "uint256",
              "name": "index",
              "type": "uint256"
            },
            {
              "internalType": "address",
              "name": "addressNFTCollection",
              "type": "address"
            },
            {
              "internalType": "address",
              "name": "addressPaymentToken",
              "type": "address"
            },
            {
              "internalType": "uint256",
              "name": "nftId",
              "type": "uint256"
            },
            {
              "internalType": "uint256",
              "name": "nftCount",
              "type": "uint256"
            },
            {
              "internalType": "address payable",
              "name": "creator",
              "type": "address"
            },
            {
              "internalType": "address payable",
              "name": "currentBuyer",
              "type": "address"
            },
            {
              "internalType": "uint256",
              "name": "currentListingPrice",
              "type": "uint256"
            },
            {
              "internalType": "bool",
              "name": "isSold",
              "type": "bool"
            },
            {
              "internalType": "bool",
              "name": "canClaim",
              "type": "bool"
            }
          ],
          "internalType": "struct KollectMarketStorage_V1.SimpleMarket[]",
          "name": "",
          "type": "tuple[]"
        }
      ],
      "stateMutability": "view",
      "type": "function"
    },
    {
      "inputs": [
        {
          "internalType": "uint256",
          "name": "itemsPerPage",
          "type": "uint256"
        },
        {
          "internalType": "uint256",
          "name": "pageNum",
          "type": "uint256"
        }
      ],
      "name": "fetchMarketItemsCreatedWithPaging",
      "outputs": [
        {
          "components": [
            {
              "internalType": "uint256",
              "name": "index",
              "type": "uint256"
            },
            {
              "internalType": "address",
              "name": "addressNFTCollection",
              "type": "address"
            },
            {
              "internalType": "address",
              "name": "addressPaymentToken",
              "type": "address"
            },
            {
              "internalType": "uint256",
              "name": "nftId",
              "type": "uint256"
            },
            {
              "internalType": "uint256",
              "name": "nftCount",
              "type": "uint256"
            },
            {
              "internalType": "address payable",
              "name": "creator",
              "type": "address"
            },
            {
              "internalType": "address payable",
              "name": "currentBuyer",
              "type": "address"
            },
            {
              "internalType": "uint256",
              "name": "currentListingPrice",
              "type": "uint256"
            },
            {
              "internalType": "bool",
              "name": "isSold",
              "type": "bool"
            },
            {
              "internalType": "bool",
              "name": "canClaim",
              "type": "bool"
            }
          ],
          "internalType": "struct KollectMarketStorage_V1.SimpleMarket[]",
          "name": "_items",
          "type": "tuple[]"
        },
        {
          "internalType": "uint256",
          "name": "_cursor",
          "type": "uint256"
        },
        {
          "internalType": "uint256",
          "name": "_itemsPerPage",
          "type": "uint256"
        },
        {
          "internalType": "uint256",
          "name": "_total",
          "type": "uint256"
        }
      ],
      "stateMutability": "view",
      "type": "function"
    }
  ],
  "bytecode": "0x60a06040523060805234801561001457600080fd5b50608051614d3861004c60003960008181610f6c01528181610fac01528181611de501528181611e250152611eb80152614d386000f3fe6080604052600436106101f95760003560e01c806387a3a5451161010d578063c7be7a49116100a0578063dd3385b71161006f578063dd3385b7146105b0578063f23a6e61146105c5578063f2fde38b146105f1578063f72075c814610611578063faca32451461063157600080fd5b8063c7be7a4914610523578063c95c0d8914610550578063d6e5ad3214610570578063db28f74e1461059057600080fd5b8063aad60b31116100dc578063aad60b3114610487578063b11ce2db146104a7578063ba731058146104c7578063bc197c81146104de57600080fd5b806387a3a545146104155780638da5cb5b14610435578063937f12a21461045d5780639a74f31e1461047457600080fd5b806338f23965116101905780634f1ef2861161015f5780634f1ef286146103ae57806352d1902d146103c15780636f6b9a72146103d6578063715018a6146103eb5780638129fc1c1461040057600080fd5b806338f239651461031e578063463fd1af1461033e5780634649641b1461035e5780634e3ee2591461038e57600080fd5b80630dcda8b5116101cc5780630dcda8b5146102955780630f08efe0146102ba57806326a1c631146102dc5780633659cfe6146102fc57600080fd5b80630110a176146101fe57806301ffc9a71461023357806306394c9b1461025357806306fdde0314610273575b600080fd5b34801561020a57600080fd5b5061021e6102193660046140b1565b610651565b60405190151581526020015b60405180910390f35b34801561023f57600080fd5b5061021e61024e3660046140ca565b6106b3565b34801561025f57600080fd5b5061021e61026e36600461410b565b6106ea565b34801561027f57600080fd5b506102886107d7565b60405161022a9190614152565b3480156102a157600080fd5b506102ac6101925481565b60405190815260200161022a565b3480156102c657600080fd5b506102cf610866565b60405161022a9190614282565b3480156102e857600080fd5b506102ac6102f7366004614295565b610a14565b34801561030857600080fd5b5061031c61031736600461410b565b610f61565b005b34801561032a57600080fd5b506102ac6103393660046142ce565b611041565b34801561034a57600080fd5b5061031c6103593660046143b8565b6115f8565b34801561036a57600080fd5b5061037e610379366004614429565b6116d2565b60405161022a949392919061444b565b34801561039a57600080fd5b5061031c6103a93660046140b1565b6119ea565b61031c6103bc36600461449a565b611dda565b3480156103cd57600080fd5b506102ac611eab565b3480156103e257600080fd5b506102cf611f5e565b3480156103f757600080fd5b5061031c612172565b34801561040c57600080fd5b5061031c6121a8565b34801561042157600080fd5b5061031c6104303660046140b1565b612219565b34801561044157600080fd5b506033546040516001600160a01b03909116815260200161022a565b34801561046957600080fd5b506102ac6101945481565b61021e610482366004614429565b61247b565b34801561049357600080fd5b5061031c6104a23660046140b1565b612800565b3480156104b357600080fd5b5061031c6104c236600461410b565b612c00565b3480156104d357600080fd5b506102ac6101955481565b3480156104ea57600080fd5b5061050a6104f9366004614566565b63bc197c8160e01b95945050505050565b6040516001600160e01b0319909116815260200161022a565b34801561052f57600080fd5b5061054361053e3660046140b1565b612c85565b60405161022a919061460f565b34801561055c57600080fd5b5061021e61056b3660046140b1565b612d6d565b34801561057c57600080fd5b5061037e61058b36600461462c565b612dcb565b34801561059c57600080fd5b5061037e6105ab366004614429565b61319e565b3480156105bc57600080fd5b506102cf613497565b3480156105d157600080fd5b5061050a6105e0366004614665565b63f23a6e6160e01b95945050505050565b3480156105fd57600080fd5b5061031c61060c36600461410b565b6136a5565b34801561061d57600080fd5b5061021e61062c3660046140b1565b61373d565b34801561063d57600080fd5b5061021e61064c366004614429565b6137f5565b61019654600090821061067f5760405162461bcd60e51b8152600401610676906146c9565b60405180910390fd5b60006101968381548110610695576106956146ef565b600091825260209091206008600990920201015460ff169392505050565b60006001600160e01b03198216630271189760e51b14806106e457506301ffc9a760e01b6001600160e01b03198316145b92915050565b6033546000906001600160a01b031633146107175760405162461bcd60e51b815260040161067690614705565b6001600160a01b03821661076d5760405162461bcd60e51b815260206004820152601760248201527f7a65726f20616464726573732076616c69646174696f6e0000000000000000006044820152606401610676565b61019380546001600160a01b038481166001600160a01b031983168117909355604080519190921680825260208201939093527fd58299b712891143e76310d5e664c4203c940a67db37cf856bdaa3c5c76a802c91015b60405180910390a160019150505b919050565b61019180546107e59061473a565b80601f01602080910402602001604051908101604052809291908181526020018280546108119061473a565b801561085e5780601f106108335761010080835404028352916020019161085e565b820191906000526020600020905b81548152906001019060200180831161084157829003601f168201915b505050505081565b60606000610195546101945461087c919061478b565b9050600080826001600160401b038111156108995761089961431b565b6040519080825280602002602001820160405280156108d257816020015b6108bf613fc4565b8152602001906001900390816108b75790505b50905060005b61019454811015610a0c5761019681815481106108f7576108f76146ef565b600091825260209091206008600990920201015460ff166109fa5760006101968281548110610928576109286146ef565b6000918252602091829020604080516101408101825260099093029091018054835260018101546001600160a01b0390811694840194909452600281015484169183019190915260038101546060830152600481015460808301526005810154831660a0830152600681015490921660c0820152600782015460e0820152600882015460ff8082161515610100808501919091529091041615156101208201528451919250908490869081106109e0576109e06146ef565b60209081029190910101526109f66001856147a2565b9350505b80610a04816147ba565b9150506108d8565b509392505050565b6001600160a01b0384166000908152610197602052604081205460ff16610a765760405162461bcd60e51b81526020600482015260166024820152751b9bdd081d985b1a59081391950818dbdb9d1c9858dd60521b6044820152606401610676565b60008211610abe5760405162461bcd60e51b8152602060048201526015602482015274496e76616c696420696e697469616c20707269636560581b6044820152606401610676565b84836001600160a01b03821662fdd58e336040516001600160e01b031960e084901b1681526001600160a01b03909116600482015260248101899052604401602060405180830381865afa158015610b1a573d6000803e3d6000fd5b505050506040513d601f19601f82011682018060405250810190610b3e91906147d5565b1015610b8c5760405162461bcd60e51b815260206004820152601960248201527f53656c6c657220686173206e6f7420656e6f756768204e4654000000000000006044820152606401610676565b6001600160a01b03811663e985e9c5336040516001600160e01b031960e084901b1681526001600160a01b039091166004820152306024820152604401602060405180830381865afa158015610be6573d6000803e3d6000fd5b505050506040513d601f19601f82011682018060405250810190610c0a91906147ee565b610c265760405162461bcd60e51b81526004016106769061480b565b604051637921219560e11b81526001600160a01b0382169063f242432a90610c5890339030908a908a90600401614852565b600060405180830381600087803b158015610c7257600080fd5b505af1158015610c86573d6000803e3d6000fd5b50505050600080604051806101400160405280610194548152602001896001600160a01b0316815260200160006001600160a01b03168152602001888152602001878152602001610cd43390565b6001600160a01b03908116825284811660208084019190915260408084018a9052600060608086018290526001608096870181905261019680549182018155835287517f828feda00a4b64eb35101b6df8f6c29717b1ea6bae5dd03d3ddada8de0a9e7cb600990920291820155938701517f828feda00a4b64eb35101b6df8f6c29717b1ea6bae5dd03d3ddada8de0a9e7cc850180546001600160a01b0319908116928816929092179055928701517f828feda00a4b64eb35101b6df8f6c29717b1ea6bae5dd03d3ddada8de0a9e7cd8501805485169187169190911790558601517f828feda00a4b64eb35101b6df8f6c29717b1ea6bae5dd03d3ddada8de0a9e7ce840155938501517f828feda00a4b64eb35101b6df8f6c29717b1ea6bae5dd03d3ddada8de0a9e7cf83015560a08501517f828feda00a4b64eb35101b6df8f6c29717b1ea6bae5dd03d3ddada8de0a9e7d083018054831691851691909117905560c08501517f828feda00a4b64eb35101b6df8f6c29717b1ea6bae5dd03d3ddada8de0a9e7d18301805490921693169290921790915560e08301517f828feda00a4b64eb35101b6df8f6c29717b1ea6bae5dd03d3ddada8de0a9e7d2820155610100808401517f828feda00a4b64eb35101b6df8f6c29717b1ea6bae5dd03d3ddada8de0a9e7d3909201805461012086015161ffff1990911693151561ff00191693909317921515909102919091179055610194549192507f63bbc18b57fc8da09dbcd52616bc66376129b5f39068f849e2d020c90deb9c2391908a908a8a33888c60006001604051610f339a9998979695949392919061488a565b60405180910390a16101948054906000610f4c836147ba565b90915550506101945498975050505050505050565b306001600160a01b037f0000000000000000000000000000000000000000000000000000000000000000161415610faa5760405162461bcd60e51b8152600401610676906148e5565b7f00000000000000000000000000000000000000000000000000000000000000006001600160a01b0316610ff3600080516020614cbc833981519152546001600160a01b031690565b6001600160a01b0316146110195760405162461bcd60e51b815260040161067690614931565b61102281613abf565b6040805160008082526020820190925261103e91839190613ae9565b50565b6001600160a01b0385166000908152610197602052604081205460ff166110a35760405162461bcd60e51b81526020600482015260166024820152751b9bdd081d985b1a59081391950818dbdb9d1c9858dd60521b6044820152606401610676565b6001600160a01b0385166000908152610197602052604090205460ff1661110c5760405162461bcd60e51b815260206004820152601860248201527f6e6f742076616c696420546f6b656e20636f6e747261637400000000000000006044820152606401610676565b600082116111545760405162461bcd60e51b8152602060048201526015602482015274496e76616c696420696e697469616c20707269636560581b6044820152606401610676565b85836001600160a01b03821662fdd58e336040516001600160e01b031960e084901b1681526001600160a01b03909116600482015260248101899052604401602060405180830381865afa1580156111b0573d6000803e3d6000fd5b505050506040513d601f19601f820116820180604052508101906111d491906147d5565b10156112225760405162461bcd60e51b815260206004820152601960248201527f43616c6c657220686173206e6f7420656e6f756768204e4654000000000000006044820152606401610676565b6001600160a01b03811663e985e9c5336040516001600160e01b031960e084901b1681526001600160a01b039091166004820152306024820152604401602060405180830381865afa15801561127c573d6000803e3d6000fd5b505050506040513d601f19601f820116820180604052508101906112a091906147ee565b6112bc5760405162461bcd60e51b81526004016106769061480b565b604051637921219560e11b81526001600160a01b0382169063f242432a906112ee90339030908a908a90600401614852565b600060405180830381600087803b15801561130857600080fd5b505af115801561131c573d6000803e3d6000fd5b505050506000806040518061014001604052806101945481526020018a6001600160a01b03168152602001896001600160a01b031681526020018881526020018781526020016113693390565b6001600160a01b03908116825284811660208084019190915260408084018a905260006060808601829052600160809687018190526101968054918201815590925286517f828feda00a4b64eb35101b6df8f6c29717b1ea6bae5dd03d3ddada8de0a9e7cb600990930292830155928601517f828feda00a4b64eb35101b6df8f6c29717b1ea6bae5dd03d3ddada8de0a9e7cc820180546001600160a01b0319908116928716929092179055918601517f828feda00a4b64eb35101b6df8f6c29717b1ea6bae5dd03d3ddada8de0a9e7cd820180548416918616919091179055918501517f828feda00a4b64eb35101b6df8f6c29717b1ea6bae5dd03d3ddada8de0a9e7ce830155928401517f828feda00a4b64eb35101b6df8f6c29717b1ea6bae5dd03d3ddada8de0a9e7cf82015560a08401517f828feda00a4b64eb35101b6df8f6c29717b1ea6bae5dd03d3ddada8de0a9e7d082018054851691841691909117905560c08401517f828feda00a4b64eb35101b6df8f6c29717b1ea6bae5dd03d3ddada8de0a9e7d18201805490941692169190911790915560e08201517f828feda00a4b64eb35101b6df8f6c29717b1ea6bae5dd03d3ddada8de0a9e7d2820155610100808301517f828feda00a4b64eb35101b6df8f6c29717b1ea6bae5dd03d3ddada8de0a9e7d3909201805461012085015161ffff1990911693151561ff00191693909317921515909102919091179055610194549091507f63bbc18b57fc8da09dbcd52616bc66376129b5f39068f849e2d020c90deb9c23908a8a8a8a33888c600060016040516115c99a9998979695949392919061488a565b60405180910390a161019480549060006115e2836147ba565b9091555050610194549998505050505050505050565b600054610100900460ff166116135760005460ff1615611617565b303b155b6116335760405162461bcd60e51b81526004016106769061497d565b600054610100900460ff16158015611655576000805461ffff19166101011790555b61165d613c59565b611665613c88565b61166d613caf565b835161168190610191906020870190614018565b5061019380546001600160a01b0319163317905561169e83612c00565b6116a782612c00565b6101f46101925560006101948190556101955580156116cc576000805461ff00191690555b50505050565b606060008080808061010081896116e98a826149cb565b6116f3919061478b565b905060006117018b836147a2565b610194549091506117128c846147a2565b111561171e5750610194545b60008b11801561172e575060008a115b61174a5760405162461bcd60e51b8152600401610676906149ea565b6000611756838361478b565b1015801561176d57508261176a838361478b565b11155b6117895760405162461bcd60e51b815260040161067690614a21565b6101945482106117ab5760405162461bcd60e51b815260040161067690614a58565b815b8181101561181657336001600160a01b031661019682815481106117d3576117d36146ef565b60009182526020909120600560099092020101546001600160a01b03161415611804576118016001876147a2565b95505b8061180e816147ba565b9150506117ad565b506000856001600160401b038111156118315761183161431b565b60405190808252806020026020018201604052801561186a57816020015b611857613fc4565b81526020019060019003908161184f5790505b5090508561188c5780868d6101945499509950995099505050505050506119e1565b825b828110156119cb57336001600160a01b031661019682815481106118b4576118b46146ef565b60009182526020909120600560099092020101546001600160a01b031614156119b95761019681815481106118eb576118eb6146ef565b6000918252602091829020604080516101408101825260099093029091018054835260018101546001600160a01b0390811694840194909452600281015484169183019190915260038101546060830152600481015460808301526005810154831660a0830152600681015490921660c0820152600782015460e082015260089091015460ff80821615156101008085019190915290910416151561012082015282518390889081106119a0576119a06146ef565b60209081029190910101526119b66001876147a2565b95505b806119c3816147ba565b91505061188e565b50610194549099508a98508b9750955050505050505b92959194509250565b600261015f541415611a0e5760405162461bcd60e51b815260040161067690614a8f565b600261015f55610196548110611a365760405162461bcd60e51b815260040161067690614ac6565b611a3f81610651565b611a8b5760405162461bcd60e51b815260206004820152601b60248201527f4d61726b6574206974656d206973206e6f7420736f6c642079657400000000006044820152606401610676565b611a9481612d6d565b611ab05760405162461bcd60e51b815260040161067690614af4565b60006101968281548110611ac657611ac66146ef565b90600052602060002090600902019050611add3390565b60058201546001600160a01b03908116911614611b0c5760405162461bcd60e51b815260040161067690614b1d565b600181015460068201546003830154600480850154604051637921219560e11b81526001600160a01b0395861695869563f242432a95611b559530959290931693909201614852565b600060405180830381600087803b158015611b6f57600080fd5b505af1158015611b83573d6000803e3d6000fd5b50505060028301546101925460078501546001600160a01b03909216925060009161271091611bb1916149cb565b611bbb9190614b7a565b600585015460078601549192506001600160a01b038085169263a9059cbb9290911690611be990859061478b565b6040516001600160e01b031960e085901b1681526001600160a01b03909216600483015260248201526044016020604051808303816000875af1158015611c34573d6000803e3d6000fd5b505050506040513d601f19601f82011682018060405250810190611c5891906147ee565b611ca45760405162461bcd60e51b815260206004820152601c60248201527f4c6f636b656420746f6b656e207472616e73666572206661696c6564000000006044820152606401610676565b6101935460405163a9059cbb60e01b81526001600160a01b039182166004820152602481018390529083169063a9059cbb906044016020604051808303816000875af1158015611cf8573d6000803e3d6000fd5b505050506040513d601f19601f82011682018060405250810190611d1c91906147ee565b611d645760405162461bcd60e51b8152602060048201526019602482015278119959481d1bdad95b881d1c985b9cd9995c8819985a5b1959603a1b6044820152606401610676565b60088401805461ff0019169055600384015460048501547f0400656174ea0b95512838f2dd92ee163fa01691d1d8ffcaa4f4c6523d49aa87918791335b604080519485526020850193909352918301526001600160a01b0316606082015260800160405180910390a15050600161015f55505050565b306001600160a01b037f0000000000000000000000000000000000000000000000000000000000000000161415611e235760405162461bcd60e51b8152600401610676906148e5565b7f00000000000000000000000000000000000000000000000000000000000000006001600160a01b0316611e6c600080516020614cbc833981519152546001600160a01b031690565b6001600160a01b031614611e925760405162461bcd60e51b815260040161067690614931565b611e9b82613abf565b611ea782826001613ae9565b5050565b6000306001600160a01b037f00000000000000000000000000000000000000000000000000000000000000001614611f4b5760405162461bcd60e51b815260206004820152603860248201527f555550535570677261646561626c653a206d757374206e6f742062652063616c60448201527f6c6564207468726f7567682064656c656761746563616c6c00000000000000006064820152608401610676565b50600080516020614cbc83398151915290565b606060008060005b61019454811015611fd257336001600160a01b03166101968281548110611f8f57611f8f6146ef565b60009182526020909120600560099092020101546001600160a01b03161415611fc057611fbd6001846147a2565b92505b80611fca816147ba565b915050611f66565b506000826001600160401b03811115611fed57611fed61431b565b60405190808252806020026020018201604052801561202657816020015b612013613fc4565b81526020019060019003908161200b5790505b50905060005b61019454811015610a0c57336001600160a01b03166101968281548110612055576120556146ef565b60009182526020909120600560099092020101546001600160a01b03161415612160576000610196828154811061208e5761208e6146ef565b6000918252602091829020604080516101408101825260099093029091018054835260018101546001600160a01b0390811694840194909452600281015484169183019190915260038101546060830152600481015460808301526005810154831660a0830152600681015490921660c0820152600782015460e0820152600882015460ff808216151561010080850191909152909104161515610120820152845191925090849086908110612146576121466146ef565b602090810291909101015261215c6001856147a2565b9350505b8061216a816147ba565b91505061202c565b6033546001600160a01b0316331461219c5760405162461bcd60e51b815260040161067690614705565b6121a66000613cde565b565b600054610100900460ff166121c35760005460ff16156121c7565b303b155b6121e35760405162461bcd60e51b81526004016106769061497d565b600054610100900460ff16158015612205576000805461ffff19166101011790555b801561103e576000805461ff001916905550565b600261015f54141561223d5760405162461bcd60e51b815260040161067690614a8f565b600261015f556101965481106122655760405162461bcd60e51b815260040161067690614ac6565b61226e81610651565b156122bb5760405162461bcd60e51b815260206004820152601860248201527f546865204d61726b6574206974656d2077617320736f6c6400000000000000006044820152606401610676565b6122c481612d6d565b6122e05760405162461bcd60e51b815260040161067690614af4565b600061019682815481106122f6576122f66146ef565b9060005260206000209060090201905061230d3390565b60058201546001600160a01b0390811691161461233c5760405162461bcd60e51b815260040161067690614b1d565b60068101546001600160a01b0316156123975760405162461bcd60e51b815260206004820152601e60248201527f4578697374696e6720627579657220666f722074686973206d61726b657400006044820152606401610676565b600181015460058201546003830154600480850154604051637921219560e11b81526001600160a01b0395861695869563f242432a956123e09530959290931693909201614852565b600060405180830381600087803b1580156123fa57600080fd5b505af115801561240e573d6000803e3d6000fd5b5050505060088201805461ff00191690556003820154600483015460408051868152602081019390935282810191909152336060830152517f8371d1724fd11a0af049c3ad3bd67fa5d5377615db2ae84f4900e0db394cbc0b9181900360800190a15050600161015f5550565b6000600261015f5414156124a15760405162461bcd60e51b815260040161067690614a8f565b600261015f556101965483106124c95760405162461bcd60e51b815260040161067690614ac6565b600061019684815481106124df576124df6146ef565b906000526020600020906009020190506124f884612d6d565b6125355760405162461bcd60e51b815260206004820152600e60248201526d77697468647261776e206974656d60901b6044820152606401610676565b61253e84610651565b1561258b5760405162461bcd60e51b815260206004820152601c60248201527f546865206d61726b6574206974656d20616c726561647920736f6c64000000006044820152606401610676565b80600701548310156125af5760405162461bcd60e51b815260040161067690614b9c565b60058101546001600160a01b0316336001600160a01b031614156125e55760405162461bcd60e51b815260040161067690614c0b565b80600701543414612660576040805162461bcd60e51b81526020600482015260248101919091527f506c65617365207375626d6974207468652061736b696e67207072696365206960448201527f6e206f7264657220746f20636f6d706c657465207468652070757263686173656064820152608401610676565b600061271061019254836007015461267891906149cb565b6126829190614b7a565b60058301549091506001600160a01b03166108fc6126a0833461478b565b6040518115909202916000818181858888f193505050501580156126c8573d6000803e3d6000fd5b5060018201546001600160a01b03168063f242432a3033866003015487600401546040518563ffffffff1660e01b81526004016127089493929190614852565b600060405180830381600087803b15801561272257600080fd5b505af1158015612736573d6000803e3d6000fd5b5050610193546040516001600160a01b03909116925084156108fc02915084906000818181858888f19350505050158015612775573d6000803e3d6000fd5b506006830180546001600160a01b0319163390811790915560088401805461ffff1916600117905561019580549060006127ae836147ba565b909155505060408051888152602081018890527fed877007472e25a98087f4d591705e9013e86f2c50d1c9463f5354db8ee9b12f910160405180910390a16001945050505050600161015f5592915050565b600261015f5414156128245760405162461bcd60e51b815260040161067690614a8f565b600261015f5561019654811061284c5760405162461bcd60e51b815260040161067690614ac6565b61285581610651565b6128a15760405162461bcd60e51b815260206004820152601b60248201527f4d61726b6574206974656d206973206e6f7420736f6c642079657400000000006044820152606401610676565b6128aa81612d6d565b6128c65760405162461bcd60e51b815260040161067690614af4565b600061019682815481106128dc576128dc6146ef565b906000526020600020906009020190506128f33390565b60068201546001600160a01b039081169116146129675760405162461bcd60e51b815260206004820152602c60248201527f4e46542063616e20626520636c61696d6564206f6e6c7920627920746865206360448201526b3ab93932b73a10313abcb2b960a11b6064820152608401610676565b600181015460068201546003830154600480850154604051637921219560e11b81526001600160a01b0395861695869563f242432a956129b09530959290931693909201614852565b600060405180830381600087803b1580156129ca57600080fd5b505af11580156129de573d6000803e3d6000fd5b50505060028301546101925460078501546001600160a01b03909216925060009161271091612a0c916149cb565b612a169190614b7a565b600585015460078601549192506001600160a01b038085169263a9059cbb9290911690612a4490859061478b565b6040516001600160e01b031960e085901b1681526001600160a01b03909216600483015260248201526044016020604051808303816000875af1158015612a8f573d6000803e3d6000fd5b505050506040513d601f19601f82011682018060405250810190612ab391906147ee565b612aff5760405162461bcd60e51b815260206004820152601c60248201527f4c6f636b656420746f6b656e207472616e73666572206661696c6564000000006044820152606401610676565b6101935460405163a9059cbb60e01b81526001600160a01b039182166004820152602481018390529083169063a9059cbb906044016020604051808303816000875af1158015612b53573d6000803e3d6000fd5b505050506040513d601f19601f82011682018060405250810190612b7791906147ee565b612bbf5760405162461bcd60e51b8152602060048201526019602482015278119959481d1bdad95b881d1c985b9cd9995c8819985a5b1959603a1b6044820152606401610676565b60088401805461ff0019169055600384015460048501547f2ad3ae061c467bc80f93e1e2c8db218460969bcf2e9616a2ad7f7e4c72008d6291879133611da1565b6033546001600160a01b03163314612c2a5760405162461bcd60e51b815260040161067690614705565b6001600160a01b03811660008181526101976020908152604091829020805460ff1916600117905590519182527fd145927779d3f0dc66f93dfd040e1bf3368e9f41833f9cf98ed79d2afa869a9d910160405180910390a150565b612c8d613fc4565b610196548210612caf5760405162461bcd60e51b8152600401610676906146c9565b60006101968381548110612cc557612cc56146ef565b6000918252602091829020604080516101408101825260099093029091018054835260018101546001600160a01b0390811694840194909452600281015484169183019190915260038101546060830152600481015460808301526005810154831660a0830152600681015490921660c0820152600782015460e082015260089091015460ff8082161515610100808501919091529091041615156101208201529392505050565b610196546000908210612d925760405162461bcd60e51b8152600401610676906146c9565b60006101968381548110612da857612da86146ef565b6000918252602090912060099091020160080154610100900460ff169392505050565b6060600080808080610100818a612de28b826149cb565b612dec919061478b565b90506000612dfa8c836147a2565b61019454909150612e0b8d846147a2565b1115612e175750610194545b60008c118015612e27575060008b115b612e435760405162461bcd60e51b8152600401610676906149ea565b6000612e4f838361478b565b10158015612e66575082612e63838361478b565b11155b612e825760405162461bcd60e51b815260040161067690614a21565b610194548210612ea45760405162461bcd60e51b815260040161067690614a58565b815b81811015612f15578a612ef5576101968181548110612ec757612ec76146ef565b600091825260209091206008600990920201015460ff16612ef05785612eec816147ba565b9650505b612f03565b85612eff816147ba565b9650505b80612f0d816147ba565b915050612ea6565b506000856001600160401b03811115612f3057612f3061431b565b604051908082528060200260200182016040528015612f6957816020015b612f56613fc4565b815260200190600190039081612f4e5790505b509050825b82811015613185578b613091576101968181548110612f8f57612f8f6146ef565b600091825260209091206008600990920201015460ff1661308c576101968181548110612fbe57612fbe6146ef565b6000918252602091829020604080516101408101825260099093029091018054835260018101546001600160a01b0390811694840194909452600281015484169183019190915260038101546060830152600481015460808301526005810154831660a0830152600681015490921660c0820152600782015460e082015260089091015460ff8082161515610100808501919091529091041615156101208201528251839088908110613073576130736146ef565b60209081029190910101526130896001876147a2565b95505b613173565b61019681815481106130a5576130a56146ef565b6000918252602091829020604080516101408101825260099093029091018054835260018101546001600160a01b0390811694840194909452600281015484169183019190915260038101546060830152600481015460808301526005810154831660a0830152600681015490921660c0820152600782015460e082015260089091015460ff808216151561010080850191909152909104161515610120820152825183908890811061315a5761315a6146ef565b60209081029190910101526131706001876147a2565b95505b8061317d816147ba565b915050612f6e565b5061019454909d9b9c9b909a5098505050505050505050565b606060008080808061010081896131b58a826149cb565b6131bf919061478b565b905060006131cd8b836147a2565b610194549091506131de8c846147a2565b11156131ea5750610194545b60008b1180156131fa575060008a115b6132165760405162461bcd60e51b8152600401610676906149ea565b6000613222838361478b565b10158015613239575082613236838361478b565b11155b6132555760405162461bcd60e51b815260040161067690614a21565b6101945482106132775760405162461bcd60e51b815260040161067690614a58565b815b818110156132e257336001600160a01b0316610196828154811061329f5761329f6146ef565b60009182526020909120600660099092020101546001600160a01b031614156132d0576132cd6001876147a2565b95505b806132da816147ba565b915050613279565b506000856001600160401b038111156132fd576132fd61431b565b60405190808252806020026020018201604052801561333657816020015b613323613fc4565b81526020019060019003908161331b5790505b5090508561335857808b8d6101945499509950995099505050505050506119e1565b825b828110156119cb57336001600160a01b03166101968281548110613380576133806146ef565b60009182526020909120600660099092020101546001600160a01b031614156134855761019681815481106133b7576133b76146ef565b6000918252602091829020604080516101408101825260099093029091018054835260018101546001600160a01b0390811694840194909452600281015484169183019190915260038101546060830152600481015460808301526005810154831660a0830152600681015490921660c0820152600782015460e082015260089091015460ff808216151561010080850191909152909104161515610120820152825183908890811061346c5761346c6146ef565b60209081029190910101526134826001876147a2565b95505b8061348f816147ba565b91505061335a565b606060008060005b6101945481101561350b57336001600160a01b031661019682815481106134c8576134c86146ef565b60009182526020909120600660099092020101546001600160a01b031614156134f9576134f66001846147a2565b92505b80613503816147ba565b91505061349f565b506000826001600160401b038111156135265761352661431b565b60405190808252806020026020018201604052801561355f57816020015b61354c613fc4565b8152602001906001900390816135445790505b50905060005b61019454811015610a0c57336001600160a01b0316610196828154811061358e5761358e6146ef565b60009182526020909120600660099092020101546001600160a01b031614156136935761019681815481106135c5576135c56146ef565b6000918252602091829020604080516101408101825260099093029091018054835260018101546001600160a01b0390811694840194909452600281015484169183019190915260038101546060830152600481015460808301526005810154831660a0830152600681015490921660c0820152600782015460e082015260089091015460ff808216151561010080850191909152909104161515610120820152825183908590811061367a5761367a6146ef565b60209081029190910101526136906001846147a2565b92505b8061369d816147ba565b915050613565565b6033546001600160a01b031633146136cf5760405162461bcd60e51b815260040161067690614705565b6001600160a01b0381166137345760405162461bcd60e51b815260206004820152602660248201527f4f776e61626c653a206e6577206f776e657220697320746865207a65726f206160448201526564647265737360d01b6064820152608401610676565b61103e81613cde565b6033546000906001600160a01b0316331461376a5760405162461bcd60e51b815260040161067690614705565b610192546127108311156137b95760405162461bcd60e51b8152602060048201526016602482015275526174652063616e277420657863656564203130302560501b6044820152606401610676565b61019283905560408051828152602081018590527f8498d258afd094f71f19dd04a6d7e7d02c248eb9f49a640ca122945d0dd0490c91016107c4565b6000600261015f54141561381b5760405162461bcd60e51b815260040161067690614a8f565b600261015f556101965483106138435760405162461bcd60e51b815260040161067690614ac6565b60006101968481548110613859576138596146ef565b9060005260206000209060090201905061387284612d6d565b6138af5760405162461bcd60e51b815260206004820152600e60248201526d77697468647261776e206974656d60901b6044820152606401610676565b6138b884610651565b156139055760405162461bcd60e51b815260206004820152601c60248201527f546865206d61726b6574206974656d20616c726561647920736f6c64000000006044820152606401610676565b80600701548310156139295760405162461bcd60e51b815260040161067690614b9c565b60058101546001600160a01b0316336001600160a01b0316141561395f5760405162461bcd60e51b815260040161067690614c0b565b60028101546001600160a01b0316806323b872dd336040516001600160e01b031960e084901b1681526001600160a01b039091166004820152306024820152604481018790526064016020604051808303816000875af11580156139c7573d6000803e3d6000fd5b505050506040513d601f19601f820116820180604052508101906139eb91906147ee565b613a375760405162461bcd60e51b815260206004820152601760248201527f5472616e666572206f6620746f6b656e206661696c65640000000000000000006044820152606401610676565b6006820180546001600160a01b0319163390811790915560088301805460ff191660011790556101958054906000613a6e836147ba565b909155505060408051878152602081018790527fed877007472e25a98087f4d591705e9013e86f2c50d1c9463f5354db8ee9b12f910160405180910390a160019350505050600161015f5592915050565b6033546001600160a01b0316331461103e5760405162461bcd60e51b815260040161067690614705565b7f4910fdfa16fed3260ed0e7147f7cc6da11a60208b5b9406d12a635614ffd91435460ff1615613b2157613b1c83613d30565b505050565b826001600160a01b03166352d1902d6040518163ffffffff1660e01b8152600401602060405180830381865afa925050508015613b7b575060408051601f3d908101601f19168201909252613b78918101906147d5565b60015b613bde5760405162461bcd60e51b815260206004820152602e60248201527f45524331393637557067726164653a206e657720696d706c656d656e7461746960448201526d6f6e206973206e6f74205555505360901b6064820152608401610676565b600080516020614cbc8339815191528114613c4d5760405162461bcd60e51b815260206004820152602960248201527f45524331393637557067726164653a20756e737570706f727465642070726f786044820152681a58589b195555525160ba1b6064820152608401610676565b50613b1c838383613dcc565b600054610100900460ff16613c805760405162461bcd60e51b815260040161067690614c54565b6121a6613df1565b600054610100900460ff166121a65760405162461bcd60e51b815260040161067690614c54565b600054610100900460ff16613cd65760405162461bcd60e51b815260040161067690614c54565b6121a6613e21565b603380546001600160a01b038381166001600160a01b0319831681179093556040519116919082907f8be0079c531659141344cd1fd0a4f28419497f9722a3daafe3b4186f6b6457e090600090a35050565b6001600160a01b0381163b613d9d5760405162461bcd60e51b815260206004820152602d60248201527f455243313936373a206e657720696d706c656d656e746174696f6e206973206e60448201526c1bdd08184818dbdb9d1c9858dd609a1b6064820152608401610676565b600080516020614cbc83398151915280546001600160a01b0319166001600160a01b0392909216919091179055565b613dd583613e50565b600082511180613de25750805b15613b1c576116cc8383613e90565b600054610100900460ff16613e185760405162461bcd60e51b815260040161067690614c54565b6121a633613cde565b600054610100900460ff16613e485760405162461bcd60e51b815260040161067690614c54565b600161015f55565b613e5981613d30565b6040516001600160a01b038216907fbc7cd75a20ee27fd9adebab32041f755214dbc6bffa90cc0225b39da2e5c2d3b90600090a250565b60606001600160a01b0383163b613ef85760405162461bcd60e51b815260206004820152602660248201527f416464726573733a2064656c65676174652063616c6c20746f206e6f6e2d636f6044820152651b9d1c9858dd60d21b6064820152608401610676565b600080846001600160a01b031684604051613f139190614c9f565b600060405180830381855af49150503d8060008114613f4e576040519150601f19603f3d011682016040523d82523d6000602084013e613f53565b606091505b5091509150613f7b8282604051806060016040528060278152602001614cdc60279139613f84565b95945050505050565b60608315613f93575081613fbd565b825115613fa35782518084602001fd5b8160405162461bcd60e51b81526004016106769190614152565b9392505050565b6040805161014081018252600080825260208201819052918101829052606081018290526080810182905260a0810182905260c0810182905260e08101829052610100810182905261012081019190915290565b8280546140249061473a565b90600052602060002090601f016020900481019282614046576000855561408c565b82601f1061405f57805160ff191683800117855561408c565b8280016001018555821561408c579182015b8281111561408c578251825591602001919060010190614071565b5061409892915061409c565b5090565b5b80821115614098576000815560010161409d565b6000602082840312156140c357600080fd5b5035919050565b6000602082840312156140dc57600080fd5b81356001600160e01b031981168114613fbd57600080fd5b80356001600160a01b03811681146107d257600080fd5b60006020828403121561411d57600080fd5b613fbd826140f4565b60005b83811015614141578181015183820152602001614129565b838111156116cc5750506000910152565b6020815260008251806020840152614171816040850160208701614126565b601f01601f19169190910160400192915050565b8051825260208101516141a360208401826001600160a01b03169052565b5060408101516141be60408401826001600160a01b03169052565b50606081015160608301526080810151608083015260a08101516141ed60a08401826001600160a01b03169052565b5060c081015161420860c08401826001600160a01b03169052565b5060e081015160e0830152610100808201516142278285018215159052565b505061012081810151801515848301526116cc565b600081518084526020808501945080840160005b8381101561427757614263878351614185565b610140969096019590820190600101614250565b509495945050505050565b602081526000613fbd602083018461423c565b600080600080608085870312156142ab57600080fd5b6142b4856140f4565b966020860135965060408601359560600135945092505050565b600080600080600060a086880312156142e657600080fd5b6142ef866140f4565b94506142fd602087016140f4565b94979496505050506040830135926060810135926080909101359150565b634e487b7160e01b600052604160045260246000fd5b604051601f8201601f191681016001600160401b03811182821017156143595761435961431b565b604052919050565b60006001600160401b0383111561437a5761437a61431b565b61438d601f8401601f1916602001614331565b90508281528383830111156143a157600080fd5b828260208301376000602084830101529392505050565b6000806000606084860312156143cd57600080fd5b83356001600160401b038111156143e357600080fd5b8401601f810186136143f457600080fd5b61440386823560208401614361565b935050614412602085016140f4565b9150614420604085016140f4565b90509250925092565b6000806040838503121561443c57600080fd5b50508035926020909101359150565b60808152600061445e608083018761423c565b6020830195909552506040810192909252606090910152919050565b600082601f83011261448b57600080fd5b613fbd83833560208501614361565b600080604083850312156144ad57600080fd5b6144b6836140f4565b915060208301356001600160401b038111156144d157600080fd5b6144dd8582860161447a565b9150509250929050565b600082601f8301126144f857600080fd5b813560206001600160401b038211156145135761451361431b565b8160051b614522828201614331565b928352848101820192828101908785111561453c57600080fd5b83870192505b8483101561455b57823582529183019190830190614542565b979650505050505050565b600080600080600060a0868803121561457e57600080fd5b614587866140f4565b9450614595602087016140f4565b935060408601356001600160401b03808211156145b157600080fd5b6145bd89838a016144e7565b945060608801359150808211156145d357600080fd5b6145df89838a016144e7565b935060808801359150808211156145f557600080fd5b506146028882890161447a565b9150509295509295909350565b61014081016106e48284614185565b801515811461103e57600080fd5b60008060006060848603121561464157600080fd5b8335925060208401359150604084013561465a8161461e565b809150509250925092565b600080600080600060a0868803121561467d57600080fd5b614686866140f4565b9450614694602087016140f4565b9350604086013592506060860135915060808601356001600160401b038111156146bd57600080fd5b6146028882890161447a565b6020808252600c908201526b1bdd5d081bd988189bdd5b9960a21b604082015260600190565b634e487b7160e01b600052603260045260246000fd5b6020808252818101527f4f776e61626c653a2063616c6c6572206973206e6f7420746865206f776e6572604082015260600190565b600181811c9082168061474e57607f821691505b6020821081141561476f57634e487b7160e01b600052602260045260246000fd5b50919050565b634e487b7160e01b600052601160045260246000fd5b60008282101561479d5761479d614775565b500390565b600082198211156147b5576147b5614775565b500190565b60006000198214156147ce576147ce614775565b5060010190565b6000602082840312156147e757600080fd5b5051919050565b60006020828403121561480057600080fd5b8151613fbd8161461e565b60208082526027908201527f52657175697265204e4654206f776e657273686970207472616e7366657220616040820152661c1c1c9bdd985b60ca1b606082015260800190565b6001600160a01b0394851681529290931660208301526040820152606081019190915260a06080820181905260009082015260c00190565b998a526001600160a01b0398891660208b015296881660408a01526060890195909552608088019390935290851660a087015290931660c085015260e084019290925290151561010083015215156101208201526101400190565b6020808252602c908201527f46756e6374696f6e206d7573742062652063616c6c6564207468726f7567682060408201526b19195b1959d85d1958d85b1b60a21b606082015260800190565b6020808252602c908201527f46756e6374696f6e206d7573742062652063616c6c6564207468726f7567682060408201526b6163746976652070726f787960a01b606082015260800190565b6020808252602e908201527f496e697469616c697a61626c653a20636f6e747261637420697320616c72656160408201526d191e481a5b9a5d1a585b1a5e995960921b606082015260800190565b60008160001904831182151516156149e5576149e5614775565b500290565b60208082526018908201527f666574636820706172616d732061726520696e76616c69640000000000000000604082015260600190565b6020808252601e908201527f66657463682073697a6520697320746f6f20626967206f72206d696e75730000604082015260600190565b60208082526019908201527f666574636820706f736974696f6e20697320696e76616c696400000000000000604082015260600190565b6020808252601f908201527f5265656e7472616e637947756172643a207265656e7472616e742063616c6c00604082015260600190565b602080825260149082015273092dcecc2d8d2c840dac2e4d6cae840d2dcc8caf60631b604082015260600190565b6020808252600f908201526e105b1c9958591e4818db185a5b5959608a1b604082015260600190565b60208082526037908201527f546f6b656e732063616e20626520636c61696d6564206f6e6c7920627920746860408201527f652063726561746f72206f6620746865206d61726b6574000000000000000000606082015260800190565b600082614b9757634e487b7160e01b600052601260045260246000fd5b500490565b60208082526049908201527f4e6577207075726368617365207072696365206d75737420626520657175616c60408201527f206f7220686967686572207468616e207468652063757272656e74206c697374606082015268696e6720707269636560b81b608082015260a00190565b60208082526029908201527f43726561746f72206f6620746865206d61726b65742063616e6e6f7420627579604082015268206f776e206974656d60b81b606082015260800190565b6020808252602b908201527f496e697469616c697a61626c653a20636f6e7472616374206973206e6f74206960408201526a6e697469616c697a696e6760a81b606082015260800190565b60008251614cb1818460208701614126565b919091019291505056fe360894a13ba1a3210667c828492db98dca3e2076cc3735a920a3ca505d382bbc416464726573733a206c6f772d6c6576656c2064656c65676174652063616c6c206661696c6564a2646970667358221220740edd1b73ebeb3266b188492dece3af34d30b87dd01cd7f2e69cb47eae4cda664736f6c634300080b0033",
  "immutableReferences": {
    "1189": [
      {
        "length": 32,
        "start": 3948
      },
      {
        "length": 32,
        "start": 4012
      },
      {
        "length": 32,
        "start": 7653
      },
      {
        "length": 32,
        "start": 7717
      },
      {
        "length": 32,
        "start": 7864
      }
    ]
  },
  "source": "// SPDX-License-Identifier: MIT\r\npragma solidity 0.8.11;\r\n\r\nimport \"./kollect-market-storage-v1.sol\";\r\nimport \"./interfaces/ikollect-1155-v1.sol\";\r\n\r\ncontract KollectMarketLogic_V1 is \r\n    KollectMarketStorage_V1\r\n{\r\n    event ItemPurchasedOnSimpleMarket(uint256 salesIndex, uint256 price);\r\n    event NFTClaimedFromSimpleMarket(uint256 salesIndex, uint256 nftId, uint256 nftCount, address claimedBy);\r\n    event CanceledNFTClaimedFromSimpleMarket(uint256 salesIndex, uint256 nftId, uint256 nftCount, address claimedBy);\r\n    event TokensClaimedFromSimpleMarket(uint256 salesIndex, uint256 nftId, uint256 nftCount, address claimedBy);\r\n    event NFTRefundedFromSimpleMarket(uint256 salesIndex, uint256 nftId, uint256 nftCount, address claimedBy);\r\n\r\n    function initialize(string memory _name, address _nftAddress, address _kolAddress) public initializer {\r\n        __Ownable_init();\r\n        __UUPSUpgradeable_init();\r\n        __ReentrancyGuard_init();\r\n        name = _name;\r\n        operator = payable(_msgSender());\r\n        addContractAddress(_nftAddress);\r\n        addContractAddress(_kolAddress);\r\n\r\n        listingFeeRate = 500; // 500 / 10000 = 5%\r\n        simpleMarketIndex = 0;\r\n        simpleMarketSoldIndex = 0;\r\n    }\r\n\r\n    /**\r\n     * Create a new market of a specific NFT\r\n     * @param _addressNFTCollection address of the ERC1155 NFT collection contract\r\n     * @param _addressPaymentToken address of the payment token contract\r\n     * @param _nftId Id of the NFT for sale\r\n     * @param _nftCount quantity of the NFT for sale\r\n     * @param _initialPrice Inital price by the creator of the market\r\n     */\r\n    function createSimpleMarketSale(\r\n        address _addressNFTCollection,\r\n        address _addressPaymentToken,\r\n        uint256 _nftId,\r\n        uint256 _nftCount,\r\n        uint256 _initialPrice\r\n    ) external returns (uint256) {\r\n        require(whitelistedContracts[_addressNFTCollection], \"not valid NFT contract\");\r\n        require(whitelistedContracts[_addressPaymentToken], \"not valid Token contract\");\r\n\r\n        // Check if the initial price is > 0\r\n        require(_initialPrice > 0, \"Invalid initial price\");\r\n\r\n        // Get NFT collection contract\r\n        IKOLLECT1155_V1 nftCollection = IKOLLECT1155_V1(_addressNFTCollection);\r\n\r\n        // Make sure the sender has enough NFT quantities\r\n        require(nftCollection.balanceOf(_msgSender(), _nftId) >= _nftCount, \"Caller has not enough NFT\");\r\n\r\n        // Make sure the owner of the NFT approved that the Market contract is allowed to change ownership of the NFT\r\n        require(nftCollection.isApprovedForAll(_msgSender(), address(this)), \"Require NFT ownership transfer approval\");\r\n\r\n        // Lock NFT in Market contract\r\n        nftCollection.safeTransferFrom(_msgSender(), address(this), _nftId, _nftCount, \"\");\r\n\r\n        // Casting from address to address payable\r\n        address payable currentBuyer = payable(address(0));\r\n\r\n        // Create new Market object\r\n        SimpleMarket memory newMarket = SimpleMarket({\r\n            index: simpleMarketIndex,\r\n            addressNFTCollection: _addressNFTCollection,\r\n            addressPaymentToken: _addressPaymentToken,\r\n            nftId: _nftId,\r\n            nftCount: _nftCount,\r\n            creator: payable(_msgSender()),\r\n            currentBuyer: currentBuyer,\r\n            currentListingPrice: _initialPrice,\r\n            isSold: false,\r\n            canClaim: true\r\n        });\r\n\r\n        // Update list\r\n        allSimpleMarkets.push(newMarket);\r\n\r\n        // Trigger event and return index of new market\r\n        emit NewSimpleMarket(\r\n            simpleMarketIndex,\r\n            _addressNFTCollection,\r\n            _addressPaymentToken,\r\n            _nftId,\r\n            _nftCount,\r\n            _msgSender(),\r\n            currentBuyer,\r\n            _initialPrice,\r\n            false,\r\n            true\r\n        );\r\n\r\n        // Increment market sequence\r\n        simpleMarketIndex++;\r\n        \r\n        return simpleMarketIndex;\r\n    }\r\n\r\n    /**\r\n     * Create a new market of a specific NFT payment by Base Asset - Matic(Polygon)\r\n     * @param _addressNFTCollection address of the ERC1155 NFT collection contract\r\n     * @param _nftId Id of the NFT for sale\r\n     * @param _nftCount quantity of the NFT for sale\r\n     * @param _initialPrice Inital price by the creator of the market\r\n     */\r\n    function createSimpleMarketSaleForBaseAsset(\r\n        address _addressNFTCollection,\r\n        uint256 _nftId,\r\n        uint256 _nftCount,\r\n        uint256 _initialPrice\r\n    ) external returns (uint256) {\r\n        require(whitelistedContracts[_addressNFTCollection], \"not valid NFT contract\");\r\n        \r\n        // Check if the initial price is > 0\r\n        require(_initialPrice > 0, \"Invalid initial price\");\r\n\r\n        // Get NFT collection contract\r\n        IKOLLECT1155_V1 nftCollection = IKOLLECT1155_V1(_addressNFTCollection);\r\n\r\n        // Make sure the sender has enough NFT quantities\r\n        require(nftCollection.balanceOf(_msgSender(), _nftId) >= _nftCount, \"Seller has not enough NFT\");\r\n\r\n        // Make sure the owner of the NFT approved that the Market contract is allowed to change ownership of the NFT\r\n        require(nftCollection.isApprovedForAll(_msgSender(), address(this)), \"Require NFT ownership transfer approval\");\r\n\r\n        // Lock NFT in Market contract\r\n        nftCollection.safeTransferFrom(_msgSender(), address(this), _nftId, _nftCount, \"\");\r\n\r\n        // Casting from address to address payable\r\n        address payable currentBuyer = payable(address(0));\r\n\r\n        // Create new Market object\r\n        SimpleMarket memory newMarket = SimpleMarket({\r\n            index: simpleMarketIndex,\r\n            addressNFTCollection: _addressNFTCollection,\r\n            addressPaymentToken: address(0x0),\r\n            nftId: _nftId,\r\n            nftCount: _nftCount,\r\n            creator: payable(_msgSender()),\r\n            currentBuyer: currentBuyer,\r\n            currentListingPrice: _initialPrice,\r\n            isSold: false,\r\n            canClaim: true\r\n        });\r\n\r\n        // Update list\r\n        allSimpleMarkets.push(newMarket);\r\n\r\n        // Trigger event and return index of new Market\r\n        emit NewSimpleMarket(\r\n            simpleMarketIndex,\r\n            _addressNFTCollection,\r\n            address(0x0),\r\n            _nftId,\r\n            _nftCount,\r\n            _msgSender(),\r\n            currentBuyer,\r\n            _initialPrice,\r\n            false,\r\n            true\r\n        );\r\n\r\n        // Increment market sequence\r\n        simpleMarketIndex++;\r\n\r\n        return simpleMarketIndex;\r\n    }\r\n\r\n    function isSold(uint256 _marketIndex) public view returns (bool) {\r\n        require(_marketIndex < allSimpleMarkets.length, \"out of bound\");\r\n        SimpleMarket storage market = allSimpleMarkets[_marketIndex];\r\n        return market.isSold;\r\n    }\r\n\r\n    function canClaim(uint256 _marketIndex) public view returns (bool) {\r\n        require(_marketIndex < allSimpleMarkets.length, \"out of bound\");\r\n        SimpleMarket storage market = allSimpleMarkets[_marketIndex];\r\n        return market.canClaim;\r\n    }\r\n\r\n    function getMarketItem(uint256 _marketIndex) public view returns (SimpleMarket memory) {\r\n        require(_marketIndex < allSimpleMarkets.length, \"out of bound\");\r\n        SimpleMarket memory market = allSimpleMarkets[_marketIndex];\r\n        return market;\r\n    }\r\n\r\n    /**\r\n     * Buy a specific market item with Token\r\n     * @param _marketIndex Index of simple market\r\n     * @param _price Payout amount\r\n     */\r\n    function buyFromToken(uint256 _marketIndex, uint256 _price)\r\n        external\r\n        nonReentrant\r\n        returns (bool)\r\n    {\r\n        require(_marketIndex < allSimpleMarkets.length, \"Invalid market index\");\r\n        SimpleMarket storage market = allSimpleMarkets[_marketIndex];\r\n\r\n        require(canClaim(_marketIndex), \"withdrawn item\");\r\n\r\n        // Check if the market is still open\r\n        require(!isSold(_marketIndex), \"The market item already sold\");\r\n\r\n        // Check if payout price is higher or equal with the listed price by owner\r\n        require(_price >= market.currentListingPrice, \"New purchase price must be equal or higher than the current listing price\");\r\n\r\n        // Check if buyer is not the owner\r\n        require(_msgSender() != market.creator, \"Creator of the market cannot buy own item\");\r\n\r\n        // Get ERC20 token contract\r\n        IERC20Upgradeable paymentToken = IERC20Upgradeable(market.addressPaymentToken);\r\n\r\n        // Transfer token from buyer to seller to lock the tokens\r\n        require(paymentToken.transferFrom(_msgSender(), address(this), _price), \"Tranfer of token failed\");\r\n\r\n        // Update market info\r\n        address payable newOwner = payable(_msgSender());\r\n        market.currentBuyer = newOwner;\r\n        market.isSold = true;\r\n        simpleMarketSoldIndex++;\r\n\r\n        // Trigger public event\r\n        emit ItemPurchasedOnSimpleMarket(_marketIndex, _price);\r\n\r\n        return true;\r\n    }\r\n\r\n    /**\r\n     * Buy a specific market item with Base Asset - Matic(Polygon)\r\n     * @param _marketIndex Index of simple market\r\n     * @param _price Payout amount\r\n     */\r\n    function buyFromBaseAsset(uint256 _marketIndex, uint256 _price)\r\n        external\r\n        payable\r\n        nonReentrant\r\n        returns (bool)\r\n    {\r\n        require(_marketIndex < allSimpleMarkets.length, \"Invalid market index\");\r\n        SimpleMarket storage market = allSimpleMarkets[_marketIndex];\r\n\r\n        require(canClaim(_marketIndex), \"withdrawn item\");\r\n\r\n        // Check if the market is still open\r\n        require(!isSold(_marketIndex), \"The market item already sold\");\r\n\r\n        // Check if payout price is higher or equal with the listed price by owner\r\n        require(_price >= market.currentListingPrice, \"New purchase price must be equal or higher than the current listing price\");\r\n\r\n        // Check if buyer is not the owner\r\n        require(_msgSender() != market.creator, \"Creator of the market cannot buy own item\");\r\n\r\n        // Send the payout to the owner (minus fee)\r\n        require(msg.value == market.currentListingPrice, \"Please submit the asking price in order to complete the purchase\");\r\n        uint listingFee = (market.currentListingPrice * listingFeeRate) / 10000;\r\n        market.creator.transfer(msg.value - listingFee);\r\n        \r\n        // Get NFT collection contract\r\n        IKOLLECT1155_V1 nftCollection = IKOLLECT1155_V1(\r\n            market.addressNFTCollection\r\n        );\r\n\r\n        // Transfer NFT from Market contract to the new owner\r\n        nftCollection.safeTransferFrom(address(this), _msgSender(), market.nftId, market.nftCount, \"\");\r\n\r\n        // Get market fee to the market operator\r\n        payable(operator).transfer(listingFee);\r\n        \r\n        address payable newOwner = payable(_msgSender());\r\n        market.currentBuyer = newOwner;\r\n        market.isSold = true;\r\n        market.canClaim = false;\r\n        simpleMarketSoldIndex++;\r\n\r\n        // Trigger public event\r\n        emit ItemPurchasedOnSimpleMarket(_marketIndex, _price);\r\n\r\n        return true;\r\n    }\r\n\r\n    /**\r\n     * Function used by the buyer to withdraw his NFT.\r\n     * When the NFT is withdrawn, the creator of the market will receive the payment tokens in his wallet\r\n     * @param _marketIndex Index of auction\r\n     */\r\n    function claimNFTFromSimpleMarket(uint256 _marketIndex) external nonReentrant {\r\n        require(_marketIndex < allSimpleMarkets.length, \"Invalid market index\");\r\n\r\n        // Check if the market is closed\r\n        require(isSold(_marketIndex), \"Market item is not sold yet\");\r\n        \r\n        require(canClaim(_marketIndex), \"Already claimed\");\r\n\r\n        // Get market\r\n        SimpleMarket storage market = allSimpleMarkets[_marketIndex];\r\n\r\n        // Check if the caller is the new owner\r\n        require(market.currentBuyer == _msgSender(), \"NFT can be claimed only by the current buyer\");\r\n\r\n        // Get NFT collection contract\r\n        IKOLLECT1155_V1 nftCollection = IKOLLECT1155_V1(\r\n            market.addressNFTCollection\r\n        );\r\n        // Transfer NFT from marketplace contract to the new owner\r\n        nftCollection.safeTransferFrom(address(this), market.currentBuyer, market.nftId, market.nftCount, \"\");\r\n        \r\n        // Get ERC20 Payment token contract\r\n        IERC20Upgradeable paymentToken = IERC20Upgradeable(market.addressPaymentToken);\r\n        \r\n        // Transfer locked token from the Market contract to the previous owner address\r\n        uint listingFee = (market.currentListingPrice * listingFeeRate) / 10000;\r\n        require(paymentToken.transfer(market.creator, market.currentListingPrice - listingFee), \"Locked token transfer failed\");\r\n        \r\n        // Get market fee to the market operator\r\n        require(paymentToken.transfer(operator, listingFee), \"Fee token transfer failed\");\r\n\r\n        market.canClaim = false;\r\n\r\n        emit NFTClaimedFromSimpleMarket(_marketIndex, market.nftId, market.nftCount, _msgSender());\r\n    }\r\n\r\n    /**\r\n     * Function used by the creator of an market to withdraw his tokens when the market item is sold\r\n     * When the Token are withdrawn, the buyer of the item will receive the NFT in his walled\r\n     * @param _marketIndex Index of the market\r\n     */\r\n    function claimTokenFromSimpleMarket(uint256 _marketIndex) external nonReentrant {\r\n        require(_marketIndex < allSimpleMarkets.length, \"Invalid market index\"); // XXX Optimize\r\n\r\n        // Check if the market is closed\r\n        require(isSold(_marketIndex), \"Market item is not sold yet\");\r\n\r\n        require(canClaim(_marketIndex), \"Already claimed\");\r\n\r\n        // Get market\r\n        SimpleMarket storage market = allSimpleMarkets[_marketIndex];\r\n\r\n        // Check if the caller is the creator of the market\r\n        require(market.creator == _msgSender(), \"Tokens can be claimed only by the creator of the market\");\r\n\r\n        // Get NFT Collection contract\r\n        IKOLLECT1155_V1 nftCollection = IKOLLECT1155_V1(\r\n            market.addressNFTCollection\r\n        );\r\n        // Transfer NFT from market contract to the new owner\r\n        nftCollection.safeTransferFrom(\r\n            address(this),\r\n            market.currentBuyer,\r\n            market.nftId,\r\n            market.nftCount,\r\n            \"\"\r\n        );\r\n\r\n        // Get ERC20 Payment token contract\r\n        IERC20Upgradeable paymentToken = IERC20Upgradeable(market.addressPaymentToken);\r\n        \r\n        // Transfer locked token from the Market contract to the previous owner address\r\n        uint listingFee = (market.currentListingPrice * listingFeeRate) / 10000;\r\n        require(paymentToken.transfer(market.creator, market.currentListingPrice - listingFee), \"Locked token transfer failed\");\r\n        \r\n        // Get market fee to the market operator\r\n        require(paymentToken.transfer(operator, listingFee), \"Fee token transfer failed\");\r\n\r\n        market.canClaim = false;\r\n\r\n        emit TokensClaimedFromSimpleMarket(_marketIndex, market.nftId, market.nftCount, _msgSender());\r\n    }\r\n\r\n    /**\r\n     * Function used by the creator of an market to get his NFT back in case the market item is not sold\r\n     * @param _marketIndex Index of the market\r\n     */\r\n    function refundFromSimpleMarket(uint256 _marketIndex) external nonReentrant {\r\n        require(_marketIndex < allSimpleMarkets.length, \"Invalid market index\");\r\n\r\n        // Check if the market is sold\r\n        require(!isSold(_marketIndex), \"The Market item was sold\");\r\n\r\n        require(canClaim(_marketIndex), \"Already claimed\");\r\n\r\n        // Get market\r\n        SimpleMarket storage market = allSimpleMarkets[_marketIndex];\r\n\r\n        // Check if the caller is the creator of the market\r\n        require(market.creator == _msgSender(), \"Tokens can be claimed only by the creator of the market\");\r\n\r\n        require(market.currentBuyer == address(0), \"Existing buyer for this market\");\r\n\r\n        // Get NFT Collection contract\r\n        IKOLLECT1155_V1 nftCollection = IKOLLECT1155_V1(\r\n            market.addressNFTCollection\r\n        );\r\n        // Transfer NFT back from marketplace contract\r\n        // to the creator of the market\r\n        nftCollection.safeTransferFrom(\r\n            address(this),\r\n            market.creator,\r\n            market.nftId,\r\n            market.nftCount,\r\n            \"\"\r\n        );\r\n\r\n        market.canClaim = false;\r\n\r\n        emit NFTRefundedFromSimpleMarket(_marketIndex, market.nftId, market.nftCount, _msgSender());\r\n    }\r\n\r\n    // Returns all unsold market items\r\n    function fetchMarketItems() public view returns (SimpleMarket[] memory) {\r\n        uint unsoldItemCount = simpleMarketIndex - simpleMarketSoldIndex;\r\n        uint currentIndex = 0;\r\n\r\n        SimpleMarket[] memory items = new SimpleMarket[](unsoldItemCount);\r\n        for (uint i = 0; i < simpleMarketIndex; i++) {\r\n            if (!allSimpleMarkets[i].isSold) {\r\n                SimpleMarket storage currentItem = allSimpleMarkets[i];\r\n                items[currentIndex] = currentItem;\r\n                currentIndex += 1;\r\n            }\r\n        }\r\n        return items;\r\n    }\r\n\r\n    // Returns paged sold/unsold market items\r\n    function fetchMarketItemsWithPaging(uint itemsPerPage, uint pageNum, bool soldIncluded) public view \r\n        returns (SimpleMarket[] memory _items, uint _cursor, uint _itemsPerPage, uint _total) {\r\n        uint unsoldItemCount = 0;\r\n        uint currentIndex = 0;\r\n\r\n        uint unboundedLimit = 256;\r\n        uint from = itemsPerPage * pageNum - itemsPerPage;\r\n        uint to = from + itemsPerPage;\r\n        if (from + itemsPerPage > simpleMarketIndex) to = simpleMarketIndex;\r\n        require(itemsPerPage > 0 && pageNum > 0, \"fetch params are invalid\");\r\n        require((to - from) >= 0 && (to - from) <= unboundedLimit, \"fetch size is too big or minus\");\r\n        require(from < simpleMarketIndex, \"fetch position is invalid\");\r\n        \r\n        for (uint i = from; i < to; i++) {\r\n            if (!soldIncluded) {\r\n                if (!allSimpleMarkets[i].isSold) {\r\n                    unsoldItemCount++;\r\n                }\r\n            } else {\r\n                unsoldItemCount++;\r\n            }\r\n        }\r\n\r\n        SimpleMarket[] memory items = new SimpleMarket[](unsoldItemCount);\r\n        for (uint i = from; i < to; i++) {\r\n            if (!soldIncluded) {\r\n                if (!allSimpleMarkets[i].isSold) {\r\n                    items[currentIndex] = allSimpleMarkets[i];\r\n                    currentIndex += 1;\r\n                }\r\n            } else {\r\n                items[currentIndex] = allSimpleMarkets[i];\r\n                currentIndex += 1;\r\n            }\r\n        }\r\n\r\n        return (items, pageNum, itemsPerPage, simpleMarketIndex);\r\n    }\r\n\r\n    // Returns only items that a user has purchased\r\n    function fetchMyMarketItems() public view returns (SimpleMarket[] memory) {\r\n        uint itemCount = 0;\r\n        uint currentIndex = 0;\r\n\r\n        for (uint i = 0; i < simpleMarketIndex; i++) {\r\n            if (allSimpleMarkets[i].currentBuyer == _msgSender()) {\r\n                itemCount += 1;\r\n            }\r\n        }\r\n\r\n        SimpleMarket[] memory items = new SimpleMarket[](itemCount);\r\n        for (uint i = 0; i < simpleMarketIndex; i++) {\r\n            if (allSimpleMarkets[i].currentBuyer == _msgSender()) {\r\n                items[currentIndex] = allSimpleMarkets[i];\r\n                currentIndex += 1;\r\n            }\r\n        }\r\n        return items;\r\n    }\r\n\r\n    function fetchMyMarketItemsWithPaging(uint itemsPerPage, uint pageNum) public view \r\n        returns (SimpleMarket[] memory _items, uint _cursor, uint _itemsPerPage, uint _total) {\r\n        uint itemCount = 0;\r\n        uint currentIndex = 0;\r\n\r\n        uint unboundedLimit = 256;\r\n        uint from = itemsPerPage * pageNum - itemsPerPage;\r\n        uint to = from + itemsPerPage;\r\n        if (from + itemsPerPage > simpleMarketIndex) to = simpleMarketIndex;\r\n        require(itemsPerPage > 0 && pageNum > 0, \"fetch params are invalid\");\r\n        require((to - from) >= 0 && (to - from) <= unboundedLimit, \"fetch size is too big or minus\");\r\n        require(from < simpleMarketIndex, \"fetch position is invalid\");\r\n\r\n        for (uint i = from; i < to; i++) {\r\n            if (allSimpleMarkets[i].currentBuyer == _msgSender()) {\r\n                itemCount += 1;\r\n            }\r\n        }\r\n\r\n        SimpleMarket[] memory items = new SimpleMarket[](itemCount);\r\n        if (itemCount == 0) return (items, pageNum, itemsPerPage, simpleMarketIndex);\r\n\r\n        for (uint i = from; i < to; i++) {\r\n            if (allSimpleMarkets[i].currentBuyer == _msgSender()) {\r\n                items[currentIndex] = allSimpleMarkets[i];\r\n                currentIndex += 1;\r\n            }\r\n        }\r\n\r\n        return (items, pageNum, itemsPerPage, simpleMarketIndex);\r\n    }\r\n\r\n    // Returns only items a user has created\r\n    function fetchMarketItemsCreated() public view returns (SimpleMarket[] memory) {\r\n        uint itemCount = 0;\r\n        uint currentIndex = 0;\r\n\r\n        for (uint i = 0; i < simpleMarketIndex; i++) {\r\n            if (allSimpleMarkets[i].creator == _msgSender()) {\r\n                itemCount += 1;\r\n            }\r\n        }\r\n\r\n        SimpleMarket[] memory items = new SimpleMarket[](itemCount);\r\n        for (uint i = 0; i < simpleMarketIndex; i++) {\r\n            if (allSimpleMarkets[i].creator == _msgSender()) {\r\n                SimpleMarket storage currentItem = allSimpleMarkets[i];\r\n                items[currentIndex] = currentItem;\r\n                currentIndex += 1;\r\n            }\r\n        }\r\n        return items;\r\n    }\r\n\r\n    function fetchMarketItemsCreatedWithPaging(uint itemsPerPage, uint pageNum) public view \r\n        returns (SimpleMarket[] memory _items, uint _cursor, uint _itemsPerPage, uint _total) {\r\n        uint itemCount = 0;\r\n        uint currentIndex = 0;\r\n\r\n        uint unboundedLimit = 256;\r\n        uint from = itemsPerPage * pageNum - itemsPerPage;\r\n        uint to = from + itemsPerPage;\r\n        if (from + itemsPerPage > simpleMarketIndex) to = simpleMarketIndex;\r\n        require(itemsPerPage > 0 && pageNum > 0, \"fetch params are invalid\");\r\n        require((to - from) >= 0 && (to - from) <= unboundedLimit, \"fetch size is too big or minus\");\r\n        require(from < simpleMarketIndex, \"fetch position is invalid\");\r\n\r\n        for (uint i = from; i < to; i++) {\r\n            if (allSimpleMarkets[i].creator == _msgSender()) {\r\n                itemCount += 1;\r\n            }\r\n        }\r\n\r\n        SimpleMarket[] memory items = new SimpleMarket[](itemCount);\r\n        if (itemCount == 0) return (items, itemCount, itemsPerPage, simpleMarketIndex);\r\n\r\n        for (uint i = from; i < to; i++) {\r\n            if (allSimpleMarkets[i].creator == _msgSender()) {\r\n                items[currentIndex] = allSimpleMarkets[i];\r\n                currentIndex += 1;\r\n            }\r\n        }\r\n        \r\n        return (items, pageNum, itemsPerPage, simpleMarketIndex);\r\n    }\r\n}",
  "sourcePath": "D:\\Projects\\NFT-Projects\\kollect-project\\kollect-truffle\\upgradable-contracts\\Truffle\\contracts\\kollect-contracts\\kollect-market-logic-v1.sol",
  "compiler": {
    "name": "solc",
    "version": "0.8.11+commit.d7f03943.Emscripten.clang"
  },
  "schemaVersion": "3.4.5",
  "updatedAt": "2022-04-06T18:40:49.115Z",
  "devdoc": {
    "kind": "dev",
    "methods": {
      "buyFromBaseAsset(uint256,uint256)": {
        "params": {
          "_marketIndex": "Index of simple market",
          "_price": "Payout amount"
        }
      },
      "buyFromToken(uint256,uint256)": {
        "params": {
          "_marketIndex": "Index of simple market",
          "_price": "Payout amount"
        }
      },
      "claimNFTFromSimpleMarket(uint256)": {
        "params": {
          "_marketIndex": "Index of auction"
        }
      },
      "claimTokenFromSimpleMarket(uint256)": {
        "params": {
          "_marketIndex": "Index of the market"
        }
      },
      "createSimpleMarketSale(address,address,uint256,uint256,uint256)": {
        "params": {
          "_addressNFTCollection": "address of the ERC1155 NFT collection contract",
          "_addressPaymentToken": "address of the payment token contract",
          "_initialPrice": "Inital price by the creator of the market",
          "_nftCount": "quantity of the NFT for sale",
          "_nftId": "Id of the NFT for sale"
        }
      },
      "createSimpleMarketSaleForBaseAsset(address,uint256,uint256,uint256)": {
        "params": {
          "_addressNFTCollection": "address of the ERC1155 NFT collection contract",
          "_initialPrice": "Inital price by the creator of the market",
          "_nftCount": "quantity of the NFT for sale",
          "_nftId": "Id of the NFT for sale"
        }
      },
      "owner()": {
        "details": "Returns the address of the current owner."
      },
      "proxiableUUID()": {
        "details": "Implementation of the ERC1822 {proxiableUUID} function. This returns the storage slot used by the implementation. It is used to validate that the this implementation remains valid after an upgrade. IMPORTANT: A proxy pointing at a proxiable contract should not be considered proxiable itself, because this risks bricking a proxy that upgrades to it, by delegating to itself until out of gas. Thus it is critical that this function revert if invoked through a proxy. This is guaranteed by the `notDelegated` modifier."
      },
      "refundFromSimpleMarket(uint256)": {
        "params": {
          "_marketIndex": "Index of the market"
        }
      },
      "renounceOwnership()": {
        "details": "Leaves the contract without owner. It will not be possible to call `onlyOwner` functions anymore. Can only be called by the current owner. NOTE: Renouncing ownership will leave the contract without an owner, thereby removing any functionality that is only available to the owner."
      },
      "supportsInterface(bytes4)": {
        "details": "See {IERC165-supportsInterface}."
      },
      "transferOwnership(address)": {
        "details": "Transfers ownership of the contract to a new account (`newOwner`). Can only be called by the current owner."
      },
      "upgradeTo(address)": {
        "details": "Upgrade the implementation of the proxy to `newImplementation`. Calls {_authorizeUpgrade}. Emits an {Upgraded} event."
      },
      "upgradeToAndCall(address,bytes)": {
        "details": "Upgrade the implementation of the proxy to `newImplementation`, and subsequently execute the function call encoded in `data`. Calls {_authorizeUpgrade}. Emits an {Upgraded} event."
      }
    },
    "version": 1
  },
  "userdoc": {
    "kind": "user",
    "methods": {
      "buyFromBaseAsset(uint256,uint256)": {
        "notice": "Buy a specific market item with Base Asset - Matic(Polygon)"
      },
      "buyFromToken(uint256,uint256)": {
        "notice": "Buy a specific market item with Token"
      },
      "claimNFTFromSimpleMarket(uint256)": {
        "notice": "Function used by the buyer to withdraw his NFT. When the NFT is withdrawn, the creator of the market will receive the payment tokens in his wallet"
      },
      "claimTokenFromSimpleMarket(uint256)": {
        "notice": "Function used by the creator of an market to withdraw his tokens when the market item is sold When the Token are withdrawn, the buyer of the item will receive the NFT in his walled"
      },
      "createSimpleMarketSale(address,address,uint256,uint256,uint256)": {
        "notice": "Create a new market of a specific NFT"
      },
      "createSimpleMarketSaleForBaseAsset(address,uint256,uint256,uint256)": {
        "notice": "Create a new market of a specific NFT payment by Base Asset - Matic(Polygon)"
      },
      "refundFromSimpleMarket(uint256)": {
        "notice": "Function used by the creator of an market to get his NFT back in case the market item is not sold"
      }
    },
    "version": 1
  }
}