{
  "contractName": "KollectMarket_V2",
  "abi": [
    {
      "anonymous": false,
      "inputs": [
        {
          "indexed": false,
          "internalType": "address",
          "name": "previousAdmin",
          "type": "address"
        },
        {
          "indexed": false,
          "internalType": "address",
          "name": "newAdmin",
          "type": "address"
        }
      ],
      "name": "AdminChanged",
      "type": "event"
    },
    {
      "anonymous": false,
      "inputs": [
        {
          "indexed": true,
          "internalType": "address",
          "name": "beacon",
          "type": "address"
        }
      ],
      "name": "BeaconUpgraded",
      "type": "event"
    },
    {
      "anonymous": false,
      "inputs": [
        {
          "indexed": true,
          "internalType": "address",
          "name": "previousOwner",
          "type": "address"
        },
        {
          "indexed": true,
          "internalType": "address",
          "name": "newOwner",
          "type": "address"
        }
      ],
      "name": "OwnershipTransferred",
      "type": "event"
    },
    {
      "anonymous": false,
      "inputs": [
        {
          "indexed": true,
          "internalType": "address",
          "name": "implementation",
          "type": "address"
        }
      ],
      "name": "Upgraded",
      "type": "event"
    },
    {
      "inputs": [
        {
          "internalType": "address",
          "name": "",
          "type": "address"
        },
        {
          "internalType": "address",
          "name": "",
          "type": "address"
        },
        {
          "internalType": "uint256[]",
          "name": "",
          "type": "uint256[]"
        },
        {
          "internalType": "uint256[]",
          "name": "",
          "type": "uint256[]"
        },
        {
          "internalType": "bytes",
          "name": "",
          "type": "bytes"
        }
      ],
      "name": "onERC1155BatchReceived",
      "outputs": [
        {
          "internalType": "bytes4",
          "name": "",
          "type": "bytes4"
        }
      ],
      "stateMutability": "nonpayable",
      "type": "function"
    },
    {
      "inputs": [
        {
          "internalType": "address",
          "name": "",
          "type": "address"
        },
        {
          "internalType": "address",
          "name": "",
          "type": "address"
        },
        {
          "internalType": "uint256",
          "name": "",
          "type": "uint256"
        },
        {
          "internalType": "uint256",
          "name": "",
          "type": "uint256"
        },
        {
          "internalType": "bytes",
          "name": "",
          "type": "bytes"
        }
      ],
      "name": "onERC1155Received",
      "outputs": [
        {
          "internalType": "bytes4",
          "name": "",
          "type": "bytes4"
        }
      ],
      "stateMutability": "nonpayable",
      "type": "function"
    },
    {
      "inputs": [],
      "name": "owner",
      "outputs": [
        {
          "internalType": "address",
          "name": "",
          "type": "address"
        }
      ],
      "stateMutability": "view",
      "type": "function"
    },
    {
      "inputs": [],
      "name": "proxiableUUID",
      "outputs": [
        {
          "internalType": "bytes32",
          "name": "",
          "type": "bytes32"
        }
      ],
      "stateMutability": "view",
      "type": "function"
    },
    {
      "inputs": [],
      "name": "renounceOwnership",
      "outputs": [],
      "stateMutability": "nonpayable",
      "type": "function"
    },
    {
      "inputs": [
        {
          "internalType": "bytes4",
          "name": "interfaceId",
          "type": "bytes4"
        }
      ],
      "name": "supportsInterface",
      "outputs": [
        {
          "internalType": "bool",
          "name": "",
          "type": "bool"
        }
      ],
      "stateMutability": "view",
      "type": "function"
    },
    {
      "inputs": [
        {
          "internalType": "address",
          "name": "newOwner",
          "type": "address"
        }
      ],
      "name": "transferOwnership",
      "outputs": [],
      "stateMutability": "nonpayable",
      "type": "function"
    },
    {
      "inputs": [
        {
          "internalType": "address",
          "name": "newImplementation",
          "type": "address"
        }
      ],
      "name": "upgradeTo",
      "outputs": [],
      "stateMutability": "nonpayable",
      "type": "function"
    },
    {
      "inputs": [
        {
          "internalType": "address",
          "name": "newImplementation",
          "type": "address"
        },
        {
          "internalType": "bytes",
          "name": "data",
          "type": "bytes"
        }
      ],
      "name": "upgradeToAndCall",
      "outputs": [],
      "stateMutability": "payable",
      "type": "function"
    },
    {
      "inputs": [],
      "name": "initialize",
      "outputs": [],
      "stateMutability": "nonpayable",
      "type": "function"
    }
  ],
  "bytecode": "0x60a06040523060805234801561001457600080fd5b50608051610f2a61004c6000396000818161024801528181610291015281816103310152818161037101526104040152610f2a6000f3fe6080604052600436106100915760003560e01c80638129fc1c116100595780638129fc1c146101385780638da5cb5b1461014d578063bc197c8114610175578063f23a6e61146101ba578063f2fde38b146101e657600080fd5b806301ffc9a7146100965780633659cfe6146100cb5780634f1ef286146100ed57806352d1902d14610100578063715018a614610123575b600080fd5b3480156100a257600080fd5b506100b66100b1366004610a57565b610206565b60405190151581526020015b60405180910390f35b3480156100d757600080fd5b506100eb6100e6366004610a9d565b61023d565b005b6100eb6100fb366004610b6f565b610326565b34801561010c57600080fd5b506101156103f7565b6040519081526020016100c2565b34801561012f57600080fd5b506100eb6104aa565b34801561014457600080fd5b506100eb6104e0565b34801561015957600080fd5b506033546040516001600160a01b0390911681526020016100c2565b34801561018157600080fd5b506101a1610190366004610c3d565b63bc197c8160e01b95945050505050565b6040516001600160e01b031990911681526020016100c2565b3480156101c657600080fd5b506101a16101d5366004610ce7565b63f23a6e6160e01b95945050505050565b3480156101f257600080fd5b506100eb610201366004610a9d565b610598565b60006001600160e01b03198216630271189760e51b148061023757506301ffc9a760e01b6001600160e01b03198316145b92915050565b306001600160a01b037f000000000000000000000000000000000000000000000000000000000000000016141561028f5760405162461bcd60e51b815260040161028690610d4c565b60405180910390fd5b7f00000000000000000000000000000000000000000000000000000000000000006001600160a01b03166102d8600080516020610eae833981519152546001600160a01b031690565b6001600160a01b0316146102fe5760405162461bcd60e51b815260040161028690610d98565b61030781610630565b604080516000808252602082019092526103239183919061065a565b50565b306001600160a01b037f000000000000000000000000000000000000000000000000000000000000000016141561036f5760405162461bcd60e51b815260040161028690610d4c565b7f00000000000000000000000000000000000000000000000000000000000000006001600160a01b03166103b8600080516020610eae833981519152546001600160a01b031690565b6001600160a01b0316146103de5760405162461bcd60e51b815260040161028690610d98565b6103e782610630565b6103f38282600161065a565b5050565b6000306001600160a01b037f000000000000000000000000000000000000000000000000000000000000000016146104975760405162461bcd60e51b815260206004820152603860248201527f555550535570677261646561626c653a206d757374206e6f742062652063616c60448201527f6c6564207468726f7567682064656c656761746563616c6c00000000000000006064820152608401610286565b50600080516020610eae83398151915290565b6033546001600160a01b031633146104d45760405162461bcd60e51b815260040161028690610de4565b6104de60006107ca565b565b600054610100900460ff166104fb5760005460ff16156104ff565b303b155b6105625760405162461bcd60e51b815260206004820152602e60248201527f496e697469616c697a61626c653a20636f6e747261637420697320616c72656160448201526d191e481a5b9a5d1a585b1a5e995960921b6064820152608401610286565b600054610100900460ff16158015610584576000805461ffff19166101011790555b8015610323576000805461ff001916905550565b6033546001600160a01b031633146105c25760405162461bcd60e51b815260040161028690610de4565b6001600160a01b0381166106275760405162461bcd60e51b815260206004820152602660248201527f4f776e61626c653a206e6577206f776e657220697320746865207a65726f206160448201526564647265737360d01b6064820152608401610286565b610323816107ca565b6033546001600160a01b031633146103235760405162461bcd60e51b815260040161028690610de4565b7f4910fdfa16fed3260ed0e7147f7cc6da11a60208b5b9406d12a635614ffd91435460ff16156106925761068d8361081c565b505050565b826001600160a01b03166352d1902d6040518163ffffffff1660e01b8152600401602060405180830381865afa9250505080156106ec575060408051601f3d908101601f191682019092526106e991810190610e19565b60015b61074f5760405162461bcd60e51b815260206004820152602e60248201527f45524331393637557067726164653a206e657720696d706c656d656e7461746960448201526d6f6e206973206e6f74205555505360901b6064820152608401610286565b600080516020610eae83398151915281146107be5760405162461bcd60e51b815260206004820152602960248201527f45524331393637557067726164653a20756e737570706f727465642070726f786044820152681a58589b195555525160ba1b6064820152608401610286565b5061068d8383836108b8565b603380546001600160a01b038381166001600160a01b0319831681179093556040519116919082907f8be0079c531659141344cd1fd0a4f28419497f9722a3daafe3b4186f6b6457e090600090a35050565b6001600160a01b0381163b6108895760405162461bcd60e51b815260206004820152602d60248201527f455243313936373a206e657720696d706c656d656e746174696f6e206973206e60448201526c1bdd08184818dbdb9d1c9858dd609a1b6064820152608401610286565b600080516020610eae83398151915280546001600160a01b0319166001600160a01b0392909216919091179055565b6108c1836108e3565b6000825111806108ce5750805b1561068d576108dd8383610923565b50505050565b6108ec8161081c565b6040516001600160a01b038216907fbc7cd75a20ee27fd9adebab32041f755214dbc6bffa90cc0225b39da2e5c2d3b90600090a250565b60606001600160a01b0383163b61098b5760405162461bcd60e51b815260206004820152602660248201527f416464726573733a2064656c65676174652063616c6c20746f206e6f6e2d636f6044820152651b9d1c9858dd60d21b6064820152608401610286565b600080846001600160a01b0316846040516109a69190610e5e565b600060405180830381855af49150503d80600081146109e1576040519150601f19603f3d011682016040523d82523d6000602084013e6109e6565b606091505b5091509150610a0e8282604051806060016040528060278152602001610ece60279139610a17565b95945050505050565b60608315610a26575081610a50565b825115610a365782518084602001fd5b8160405162461bcd60e51b81526004016102869190610e7a565b9392505050565b600060208284031215610a6957600080fd5b81356001600160e01b031981168114610a5057600080fd5b80356001600160a01b0381168114610a9857600080fd5b919050565b600060208284031215610aaf57600080fd5b610a5082610a81565b634e487b7160e01b600052604160045260246000fd5b604051601f8201601f1916810167ffffffffffffffff81118282101715610af757610af7610ab8565b604052919050565b600082601f830112610b1057600080fd5b813567ffffffffffffffff811115610b2a57610b2a610ab8565b610b3d601f8201601f1916602001610ace565b818152846020838601011115610b5257600080fd5b816020850160208301376000918101602001919091529392505050565b60008060408385031215610b8257600080fd5b610b8b83610a81565b9150602083013567ffffffffffffffff811115610ba757600080fd5b610bb385828601610aff565b9150509250929050565b600082601f830112610bce57600080fd5b8135602067ffffffffffffffff821115610bea57610bea610ab8565b8160051b610bf9828201610ace565b9283528481018201928281019087851115610c1357600080fd5b83870192505b84831015610c3257823582529183019190830190610c19565b979650505050505050565b600080600080600060a08688031215610c5557600080fd5b610c5e86610a81565b9450610c6c60208701610a81565b9350604086013567ffffffffffffffff80821115610c8957600080fd5b610c9589838a01610bbd565b94506060880135915080821115610cab57600080fd5b610cb789838a01610bbd565b93506080880135915080821115610ccd57600080fd5b50610cda88828901610aff565b9150509295509295909350565b600080600080600060a08688031215610cff57600080fd5b610d0886610a81565b9450610d1660208701610a81565b93506040860135925060608601359150608086013567ffffffffffffffff811115610d4057600080fd5b610cda88828901610aff565b6020808252602c908201527f46756e6374696f6e206d7573742062652063616c6c6564207468726f7567682060408201526b19195b1959d85d1958d85b1b60a21b606082015260800190565b6020808252602c908201527f46756e6374696f6e206d7573742062652063616c6c6564207468726f7567682060408201526b6163746976652070726f787960a01b606082015260800190565b6020808252818101527f4f776e61626c653a2063616c6c6572206973206e6f7420746865206f776e6572604082015260600190565b600060208284031215610e2b57600080fd5b5051919050565b60005b83811015610e4d578181015183820152602001610e35565b838111156108dd5750506000910152565b60008251610e70818460208701610e32565b9190910192915050565b6020815260008251806020840152610e99816040850160208701610e32565b601f01601f1916919091016040019291505056fe360894a13ba1a3210667c828492db98dca3e2076cc3735a920a3ca505d382bbc416464726573733a206c6f772d6c6576656c2064656c65676174652063616c6c206661696c6564a2646970667358221220468481c09ecf2863c8d13c962d0f772ccdd76c3b94375d647a1f0307d34a565064736f6c634300080b0033",
  "immutableReferences": {
    "1189": [
      {
        "length": 32,
        "start": 584
      },
      {
        "length": 32,
        "start": 657
      },
      {
        "length": 32,
        "start": 817
      },
      {
        "length": 32,
        "start": 881
      },
      {
        "length": 32,
        "start": 1028
      }
    ]
  },
  "source": "// SPDX-License-Identifier: MIT\r\npragma solidity ^0.8.0;\r\n\r\nimport \"@openzeppelin/contracts-upgradeable/token/ERC1155/utils/ERC1155HolderUpgradeable.sol\";\r\nimport \"@openzeppelin/contracts-upgradeable/token/ERC20/IERC20Upgradeable.sol\";\r\nimport \"@openzeppelin/contracts-upgradeable/access/OwnableUpgradeable.sol\";\r\nimport \"@openzeppelin/contracts-upgradeable/proxy/utils/Initializable.sol\";\r\nimport \"@openzeppelin/contracts-upgradeable/proxy/utils/UUPSUpgradeable.sol\";\r\nimport \"@openzeppelin/contracts-upgradeable/security/ReentrancyGuardUpgradeable.sol\";\r\nimport \"./interfaces/ikollect-1155-v1.sol\";\r\n\r\ncontract KollectMarket_V2 is \r\n    Initializable,\r\n    OwnableUpgradeable,\r\n    ERC1155HolderUpgradeable,\r\n    UUPSUpgradeable,\r\n    ReentrancyGuardUpgradeable\r\n{\r\n    function initialize() public initializer {\r\n    }\r\n\r\n    function _authorizeUpgrade(address newImplementation) internal override onlyOwner {}\r\n}",
  "sourcePath": "D:\\Projects\\NFT-Projects\\kollect-project\\kollect-truffle\\upgradable-contracts\\Truffle\\contracts\\kollect-contracts\\kollect-market-v2.sol",
  "compiler": {
    "name": "solc",
    "version": "0.8.11+commit.d7f03943.Emscripten.clang"
  },
  "schemaVersion": "3.4.5",
  "updatedAt": "2022-03-16T02:55:45.507Z",
  "devdoc": {
    "kind": "dev",
    "methods": {
      "owner()": {
        "details": "Returns the address of the current owner."
      },
      "proxiableUUID()": {
        "details": "Implementation of the ERC1822 {proxiableUUID} function. This returns the storage slot used by the implementation. It is used to validate that the this implementation remains valid after an upgrade. IMPORTANT: A proxy pointing at a proxiable contract should not be considered proxiable itself, because this risks bricking a proxy that upgrades to it, by delegating to itself until out of gas. Thus it is critical that this function revert if invoked through a proxy. This is guaranteed by the `notDelegated` modifier."
      },
      "renounceOwnership()": {
        "details": "Leaves the contract without owner. It will not be possible to call `onlyOwner` functions anymore. Can only be called by the current owner. NOTE: Renouncing ownership will leave the contract without an owner, thereby removing any functionality that is only available to the owner."
      },
      "supportsInterface(bytes4)": {
        "details": "See {IERC165-supportsInterface}."
      },
      "transferOwnership(address)": {
        "details": "Transfers ownership of the contract to a new account (`newOwner`). Can only be called by the current owner."
      },
      "upgradeTo(address)": {
        "details": "Upgrade the implementation of the proxy to `newImplementation`. Calls {_authorizeUpgrade}. Emits an {Upgraded} event."
      },
      "upgradeToAndCall(address,bytes)": {
        "details": "Upgrade the implementation of the proxy to `newImplementation`, and subsequently execute the function call encoded in `data`. Calls {_authorizeUpgrade}. Emits an {Upgraded} event."
      }
    },
    "version": 1
  },
  "userdoc": {
    "kind": "user",
    "methods": {},
    "version": 1
  }
}