{
  "contractName": "KollectNFT_V1",
  "abi": [
    {
      "anonymous": false,
      "inputs": [
        {
          "indexed": false,
          "internalType": "address",
          "name": "previousAdmin",
          "type": "address"
        },
        {
          "indexed": false,
          "internalType": "address",
          "name": "newAdmin",
          "type": "address"
        }
      ],
      "name": "AdminChanged",
      "type": "event"
    },
    {
      "anonymous": false,
      "inputs": [
        {
          "indexed": true,
          "internalType": "address",
          "name": "account",
          "type": "address"
        },
        {
          "indexed": true,
          "internalType": "address",
          "name": "operator",
          "type": "address"
        },
        {
          "indexed": false,
          "internalType": "bool",
          "name": "approved",
          "type": "bool"
        }
      ],
      "name": "ApprovalForAll",
      "type": "event"
    },
    {
      "anonymous": false,
      "inputs": [
        {
          "indexed": true,
          "internalType": "address",
          "name": "beacon",
          "type": "address"
        }
      ],
      "name": "BeaconUpgraded",
      "type": "event"
    },
    {
      "anonymous": false,
      "inputs": [
        {
          "indexed": true,
          "internalType": "address",
          "name": "previousOwner",
          "type": "address"
        },
        {
          "indexed": true,
          "internalType": "address",
          "name": "newOwner",
          "type": "address"
        }
      ],
      "name": "OwnershipTransferred",
      "type": "event"
    },
    {
      "anonymous": false,
      "inputs": [
        {
          "indexed": true,
          "internalType": "bytes32",
          "name": "role",
          "type": "bytes32"
        },
        {
          "indexed": true,
          "internalType": "bytes32",
          "name": "previousAdminRole",
          "type": "bytes32"
        },
        {
          "indexed": true,
          "internalType": "bytes32",
          "name": "newAdminRole",
          "type": "bytes32"
        }
      ],
      "name": "RoleAdminChanged",
      "type": "event"
    },
    {
      "anonymous": false,
      "inputs": [
        {
          "indexed": true,
          "internalType": "bytes32",
          "name": "role",
          "type": "bytes32"
        },
        {
          "indexed": true,
          "internalType": "address",
          "name": "account",
          "type": "address"
        },
        {
          "indexed": true,
          "internalType": "address",
          "name": "sender",
          "type": "address"
        }
      ],
      "name": "RoleGranted",
      "type": "event"
    },
    {
      "anonymous": false,
      "inputs": [
        {
          "indexed": true,
          "internalType": "bytes32",
          "name": "role",
          "type": "bytes32"
        },
        {
          "indexed": true,
          "internalType": "address",
          "name": "account",
          "type": "address"
        },
        {
          "indexed": true,
          "internalType": "address",
          "name": "sender",
          "type": "address"
        }
      ],
      "name": "RoleRevoked",
      "type": "event"
    },
    {
      "anonymous": false,
      "inputs": [
        {
          "indexed": true,
          "internalType": "address",
          "name": "operator",
          "type": "address"
        },
        {
          "indexed": true,
          "internalType": "address",
          "name": "from",
          "type": "address"
        },
        {
          "indexed": true,
          "internalType": "address",
          "name": "to",
          "type": "address"
        },
        {
          "indexed": false,
          "internalType": "uint256[]",
          "name": "ids",
          "type": "uint256[]"
        },
        {
          "indexed": false,
          "internalType": "uint256[]",
          "name": "values",
          "type": "uint256[]"
        }
      ],
      "name": "TransferBatch",
      "type": "event"
    },
    {
      "anonymous": false,
      "inputs": [
        {
          "indexed": true,
          "internalType": "address",
          "name": "operator",
          "type": "address"
        },
        {
          "indexed": true,
          "internalType": "address",
          "name": "from",
          "type": "address"
        },
        {
          "indexed": true,
          "internalType": "address",
          "name": "to",
          "type": "address"
        },
        {
          "indexed": false,
          "internalType": "uint256",
          "name": "id",
          "type": "uint256"
        },
        {
          "indexed": false,
          "internalType": "uint256",
          "name": "value",
          "type": "uint256"
        }
      ],
      "name": "TransferSingle",
      "type": "event"
    },
    {
      "anonymous": false,
      "inputs": [
        {
          "indexed": false,
          "internalType": "string",
          "name": "value",
          "type": "string"
        },
        {
          "indexed": true,
          "internalType": "uint256",
          "name": "id",
          "type": "uint256"
        }
      ],
      "name": "URI",
      "type": "event"
    },
    {
      "anonymous": false,
      "inputs": [
        {
          "indexed": false,
          "internalType": "string",
          "name": "prev",
          "type": "string"
        },
        {
          "indexed": false,
          "internalType": "string",
          "name": "current",
          "type": "string"
        }
      ],
      "name": "URIChanged",
      "type": "event"
    },
    {
      "anonymous": false,
      "inputs": [
        {
          "indexed": true,
          "internalType": "address",
          "name": "implementation",
          "type": "address"
        }
      ],
      "name": "Upgraded",
      "type": "event"
    },
    {
      "inputs": [],
      "name": "BURNER_ROLE",
      "outputs": [
        {
          "internalType": "bytes32",
          "name": "",
          "type": "bytes32"
        }
      ],
      "stateMutability": "view",
      "type": "function"
    },
    {
      "inputs": [],
      "name": "DEFAULT_ADMIN_ROLE",
      "outputs": [
        {
          "internalType": "bytes32",
          "name": "",
          "type": "bytes32"
        }
      ],
      "stateMutability": "view",
      "type": "function"
    },
    {
      "inputs": [],
      "name": "MANAGER_ROLE",
      "outputs": [
        {
          "internalType": "bytes32",
          "name": "",
          "type": "bytes32"
        }
      ],
      "stateMutability": "view",
      "type": "function"
    },
    {
      "inputs": [],
      "name": "MINTER_ROLE",
      "outputs": [
        {
          "internalType": "bytes32",
          "name": "",
          "type": "bytes32"
        }
      ],
      "stateMutability": "view",
      "type": "function"
    },
    {
      "inputs": [
        {
          "internalType": "address",
          "name": "account",
          "type": "address"
        },
        {
          "internalType": "uint256",
          "name": "id",
          "type": "uint256"
        }
      ],
      "name": "balanceOf",
      "outputs": [
        {
          "internalType": "uint256",
          "name": "",
          "type": "uint256"
        }
      ],
      "stateMutability": "view",
      "type": "function"
    },
    {
      "inputs": [
        {
          "internalType": "address[]",
          "name": "accounts",
          "type": "address[]"
        },
        {
          "internalType": "uint256[]",
          "name": "ids",
          "type": "uint256[]"
        }
      ],
      "name": "balanceOfBatch",
      "outputs": [
        {
          "internalType": "uint256[]",
          "name": "",
          "type": "uint256[]"
        }
      ],
      "stateMutability": "view",
      "type": "function"
    },
    {
      "inputs": [
        {
          "internalType": "bytes32",
          "name": "role",
          "type": "bytes32"
        }
      ],
      "name": "getRoleAdmin",
      "outputs": [
        {
          "internalType": "bytes32",
          "name": "",
          "type": "bytes32"
        }
      ],
      "stateMutability": "view",
      "type": "function"
    },
    {
      "inputs": [
        {
          "internalType": "bytes32",
          "name": "role",
          "type": "bytes32"
        },
        {
          "internalType": "address",
          "name": "account",
          "type": "address"
        }
      ],
      "name": "grantRole",
      "outputs": [],
      "stateMutability": "nonpayable",
      "type": "function"
    },
    {
      "inputs": [
        {
          "internalType": "bytes32",
          "name": "role",
          "type": "bytes32"
        },
        {
          "internalType": "address",
          "name": "account",
          "type": "address"
        }
      ],
      "name": "hasRole",
      "outputs": [
        {
          "internalType": "bool",
          "name": "",
          "type": "bool"
        }
      ],
      "stateMutability": "view",
      "type": "function"
    },
    {
      "inputs": [
        {
          "internalType": "address",
          "name": "account",
          "type": "address"
        },
        {
          "internalType": "address",
          "name": "operator",
          "type": "address"
        }
      ],
      "name": "isApprovedForAll",
      "outputs": [
        {
          "internalType": "bool",
          "name": "",
          "type": "bool"
        }
      ],
      "stateMutability": "view",
      "type": "function"
    },
    {
      "inputs": [],
      "name": "owner",
      "outputs": [
        {
          "internalType": "address",
          "name": "",
          "type": "address"
        }
      ],
      "stateMutability": "view",
      "type": "function"
    },
    {
      "inputs": [],
      "name": "proxiableUUID",
      "outputs": [
        {
          "internalType": "bytes32",
          "name": "",
          "type": "bytes32"
        }
      ],
      "stateMutability": "view",
      "type": "function"
    },
    {
      "inputs": [],
      "name": "renounceOwnership",
      "outputs": [],
      "stateMutability": "nonpayable",
      "type": "function"
    },
    {
      "inputs": [
        {
          "internalType": "bytes32",
          "name": "role",
          "type": "bytes32"
        },
        {
          "internalType": "address",
          "name": "account",
          "type": "address"
        }
      ],
      "name": "renounceRole",
      "outputs": [],
      "stateMutability": "nonpayable",
      "type": "function"
    },
    {
      "inputs": [
        {
          "internalType": "bytes32",
          "name": "role",
          "type": "bytes32"
        },
        {
          "internalType": "address",
          "name": "account",
          "type": "address"
        }
      ],
      "name": "revokeRole",
      "outputs": [],
      "stateMutability": "nonpayable",
      "type": "function"
    },
    {
      "inputs": [
        {
          "internalType": "address",
          "name": "operator",
          "type": "address"
        },
        {
          "internalType": "bool",
          "name": "approved",
          "type": "bool"
        }
      ],
      "name": "setApprovalForAll",
      "outputs": [],
      "stateMutability": "nonpayable",
      "type": "function"
    },
    {
      "inputs": [
        {
          "internalType": "address",
          "name": "newOwner",
          "type": "address"
        }
      ],
      "name": "transferOwnership",
      "outputs": [],
      "stateMutability": "nonpayable",
      "type": "function"
    },
    {
      "inputs": [
        {
          "internalType": "address",
          "name": "newImplementation",
          "type": "address"
        }
      ],
      "name": "upgradeTo",
      "outputs": [],
      "stateMutability": "nonpayable",
      "type": "function"
    },
    {
      "inputs": [
        {
          "internalType": "address",
          "name": "newImplementation",
          "type": "address"
        },
        {
          "internalType": "bytes",
          "name": "data",
          "type": "bytes"
        }
      ],
      "name": "upgradeToAndCall",
      "outputs": [],
      "stateMutability": "payable",
      "type": "function"
    },
    {
      "inputs": [
        {
          "internalType": "string",
          "name": "baseUri_",
          "type": "string"
        }
      ],
      "name": "initialize",
      "outputs": [],
      "stateMutability": "nonpayable",
      "type": "function"
    },
    {
      "inputs": [
        {
          "internalType": "bytes4",
          "name": "interfaceId",
          "type": "bytes4"
        }
      ],
      "name": "supportsInterface",
      "outputs": [
        {
          "internalType": "bool",
          "name": "",
          "type": "bool"
        }
      ],
      "stateMutability": "view",
      "type": "function"
    },
    {
      "inputs": [
        {
          "internalType": "address",
          "name": "from",
          "type": "address"
        },
        {
          "internalType": "address",
          "name": "to",
          "type": "address"
        },
        {
          "internalType": "uint256",
          "name": "id",
          "type": "uint256"
        },
        {
          "internalType": "uint256",
          "name": "amount",
          "type": "uint256"
        },
        {
          "internalType": "bytes",
          "name": "data",
          "type": "bytes"
        }
      ],
      "name": "safeTransferFrom",
      "outputs": [],
      "stateMutability": "nonpayable",
      "type": "function"
    },
    {
      "inputs": [
        {
          "internalType": "address",
          "name": "from",
          "type": "address"
        },
        {
          "internalType": "address",
          "name": "to",
          "type": "address"
        },
        {
          "internalType": "uint256[]",
          "name": "ids",
          "type": "uint256[]"
        },
        {
          "internalType": "uint256[]",
          "name": "amounts",
          "type": "uint256[]"
        },
        {
          "internalType": "bytes",
          "name": "data",
          "type": "bytes"
        }
      ],
      "name": "safeBatchTransferFrom",
      "outputs": [],
      "stateMutability": "nonpayable",
      "type": "function"
    },
    {
      "inputs": [
        {
          "internalType": "uint256",
          "name": "id",
          "type": "uint256"
        }
      ],
      "name": "uri",
      "outputs": [
        {
          "internalType": "string",
          "name": "",
          "type": "string"
        }
      ],
      "stateMutability": "view",
      "type": "function"
    },
    {
      "inputs": [
        {
          "internalType": "address",
          "name": "account",
          "type": "address"
        }
      ],
      "name": "getTokensAndAmounts",
      "outputs": [
        {
          "internalType": "uint256[]",
          "name": "",
          "type": "uint256[]"
        },
        {
          "internalType": "uint256[]",
          "name": "",
          "type": "uint256[]"
        }
      ],
      "stateMutability": "view",
      "type": "function"
    },
    {
      "inputs": [
        {
          "internalType": "address",
          "name": "account",
          "type": "address"
        },
        {
          "internalType": "uint256",
          "name": "id",
          "type": "uint256"
        },
        {
          "internalType": "uint256",
          "name": "amount",
          "type": "uint256"
        },
        {
          "internalType": "string",
          "name": "newUri",
          "type": "string"
        }
      ],
      "name": "mint",
      "outputs": [],
      "stateMutability": "nonpayable",
      "type": "function"
    },
    {
      "inputs": [
        {
          "internalType": "address",
          "name": "account",
          "type": "address"
        },
        {
          "internalType": "uint256[]",
          "name": "ids",
          "type": "uint256[]"
        },
        {
          "internalType": "uint256[]",
          "name": "amounts",
          "type": "uint256[]"
        }
      ],
      "name": "mintBatch",
      "outputs": [],
      "stateMutability": "nonpayable",
      "type": "function"
    },
    {
      "inputs": [
        {
          "internalType": "address",
          "name": "account",
          "type": "address"
        },
        {
          "internalType": "uint256",
          "name": "id",
          "type": "uint256"
        },
        {
          "internalType": "uint256",
          "name": "amount",
          "type": "uint256"
        }
      ],
      "name": "burn",
      "outputs": [],
      "stateMutability": "nonpayable",
      "type": "function"
    },
    {
      "inputs": [
        {
          "internalType": "address",
          "name": "account",
          "type": "address"
        },
        {
          "internalType": "uint256[]",
          "name": "ids",
          "type": "uint256[]"
        },
        {
          "internalType": "uint256[]",
          "name": "amounts",
          "type": "uint256[]"
        }
      ],
      "name": "burnBatch",
      "outputs": [],
      "stateMutability": "nonpayable",
      "type": "function"
    },
    {
      "inputs": [
        {
          "internalType": "string",
          "name": "uri_",
          "type": "string"
        }
      ],
      "name": "setURI",
      "outputs": [],
      "stateMutability": "nonpayable",
      "type": "function"
    }
  ],
  "bytecode": "0x60a06040523060805234801561001457600080fd5b5060805161386d61004c60003960008181610a6101528181610aa101528181610dbc01528181610dfc0152610e8b015261386d6000f3fe6080604052600436106101cc5760003560e01c8063715018a6116100f7578063d547741f11610095578063f242432a11610064578063f242432a1461059c578063f2fde38b146105bc578063f5298aca146105dc578063f62d1888146105fc57600080fd5b8063d547741f146104df578063d81d0a15146104ff578063e985e9c51461051f578063ec87621c1461056857600080fd5b8063a217fddf116100d1578063a217fddf14610468578063a22cb4651461047d578063bb7fde711461049d578063d5391393146104bd57600080fd5b8063715018a61461040b5780638da5cb5b1461042057806391d148541461044857600080fd5b80632f2ff15d1161016f5780634e1273f41161013e5780634e1273f4146103965780634f1ef286146103c357806352d1902d146103d65780636b20c454146103eb57600080fd5b80632f2ff15d1461030857806336568abe146103285780633659cfe61461034857806341f6538a1461036857600080fd5b80630e89341c116101ab5780630e89341c14610256578063248a9ca314610283578063282c51f3146102b45780632eb2c2d6146102e857600080fd5b8062fdd58e146101d157806301ffc9a71461020457806302fe530514610234575b600080fd5b3480156101dd57600080fd5b506101f16101ec3660046129ce565b61061c565b6040519081526020015b60405180910390f35b34801561021057600080fd5b5061022461021f366004612a0e565b6106b5565b60405190151581526020016101fb565b34801561024057600080fd5b5061025461024f366004612a73565b6106c6565b005b34801561026257600080fd5b50610276610271366004612ab4565b6107d3565b6040516101fb9190612b25565b34801561028f57600080fd5b506101f161029e366004612ab4565b600090815261012d602052604090206001015490565b3480156102c057600080fd5b506101f17ffc62fea6a5e4cccf0e06db6becc35bd2d235b84b498198c31e38279b88a6943981565b3480156102f457600080fd5b50610254610303366004612c8b565b6108aa565b34801561031457600080fd5b50610254610323366004612d34565b6109ac565b34801561033457600080fd5b50610254610343366004612d34565b6109d8565b34801561035457600080fd5b50610254610363366004612d60565b610a56565b34801561037457600080fd5b50610388610383366004612d60565b610b36565b6040516101fb929190612db6565b3480156103a257600080fd5b506103b66103b1366004612ddb565b610c88565b6040516101fb9190612ea5565b6102546103d1366004612eb8565b610db1565b3480156103e257600080fd5b506101f1610e7e565b3480156103f757600080fd5b50610254610406366004612f3f565b610f32565b34801561041757600080fd5b50610254610ff7565b34801561042c57600080fd5b506033546040516001600160a01b0390911681526020016101fb565b34801561045457600080fd5b50610224610463366004612d34565b61102d565b34801561047457600080fd5b506101f1600081565b34801561048957600080fd5b50610254610498366004612fbf565b611059565b3480156104a957600080fd5b506102546104b8366004612ffb565b611064565b3480156104c957600080fd5b506101f16000805160206137d183398151915281565b3480156104eb57600080fd5b506102546104fa366004612d34565b6110f6565b34801561050b57600080fd5b5061025461051a366004612f3f565b61111d565b34801561052b57600080fd5b5061022461053a366004613051565b6001600160a01b03918216600090815260986020908152604080832093909416825291909152205460ff1690565b34801561057457600080fd5b506101f17fb6d62907b9a92d787c305b8b4e7a79484f55b06db4469a4811052ec65ae441c581565b3480156105a857600080fd5b506102546105b736600461307b565b611235565b3480156105c857600080fd5b506102546105d7366004612d60565b6112df565b3480156105e857600080fd5b506102546105f73660046130df565b611377565b34801561060857600080fd5b50610254610617366004613112565b6113d2565b60006001600160a01b03831661068d5760405162461bcd60e51b815260206004820152602b60248201527f455243313135353a2062616c616e636520717565727920666f7220746865207a60448201526a65726f206164647265737360a81b60648201526084015b60405180910390fd5b5060009081526097602090815260408083206001600160a01b03949094168352929052205490565b60006106c082611506565b92915050565b6033546001600160a01b031633146106f05760405162461bcd60e51b815260040161068490613162565b600061015f805461070090613197565b80601f016020809104026020016040519081016040528092919081815260200182805461072c90613197565b80156107795780601f1061074e57610100808354040283529160200191610779565b820191906000526020600020905b81548152906001019060200180831161075c57829003601f168201915b50505050509050828261015f91906107929291906128aa565b507fbc6d6622520b1396fd62542aa3c9792fceea42e7904497257554c3ca80f48ebb8184846040516107c6939291906131d2565b60405180910390a1505050565b6000818152610160602052604090208054606091906107f190613197565b15905061089757600082815261016060205260409020805461081290613197565b80601f016020809104026020016040519081016040528092919081815260200182805461083e90613197565b801561088b5780601f106108605761010080835404028352916020019161088b565b820191906000526020600020905b81548152906001019060200180831161086e57829003601f168201915b50505050509050919050565b61015f805461081290613197565b919050565b6001600160a01b0385163314806108c657506108c6853361053a565b61092d5760405162461bcd60e51b815260206004820152603260248201527f455243313135353a207472616e736665722063616c6c6572206973206e6f74206044820152711bdddb995c881b9bdc88185c1c1c9bdd995960721b6064820152608401610684565b61093a858585858561152b565b60005b83518110156109a457600084828151811061095a5761095a613218565b602002602001015190506109936101616000886001600160a01b03166001600160a01b03168152602001908152602001600020826116c2565b5061099d81613244565b905061093d565b505050505050565b600082815261012d60205260409020600101546109c98133611740565b6109d383836117a4565b505050565b6001600160a01b0381163314610a485760405162461bcd60e51b815260206004820152602f60248201527f416363657373436f6e74726f6c3a2063616e206f6e6c792072656e6f756e636560448201526e103937b632b9903337b91039b2b63360891b6064820152608401610684565b610a52828261182b565b5050565b306001600160a01b037f0000000000000000000000000000000000000000000000000000000000000000161415610a9f5760405162461bcd60e51b81526004016106849061325f565b7f00000000000000000000000000000000000000000000000000000000000000006001600160a01b0316610ae86000805160206137f1833981519152546001600160a01b031690565b6001600160a01b031614610b0e5760405162461bcd60e51b8152600401610684906132ab565b610b1781611893565b60408051600080825260208201909252610b33918391906118bd565b50565b6001600160a01b03811660009081526101616020526040812054606091829190816001600160401b03811115610b6e57610b6e612b38565b604051908082528060200260200182016040528015610b97578160200160208202803683370190505b5090506000826001600160401b03811115610bb457610bb4612b38565b604051908082528060200260200182016040528015610bdd578160200160208202803683370190505b50905060005b83811015610c7c576001600160a01b038716600090815261016160205260408120805483908110610c1657610c16613218565b9060005260206000200154905080848381518110610c3657610c36613218565b602002602001018181525050610c4c888261061c565b838381518110610c5e57610c5e613218565b60209081029190910101525080610c7481613244565b915050610be3565b50909590945092505050565b60608151835114610ced5760405162461bcd60e51b815260206004820152602960248201527f455243313135353a206163636f756e747320616e6420696473206c656e677468604482015268040dad2e6dac2e8c6d60bb1b6064820152608401610684565b600083516001600160401b03811115610d0857610d08612b38565b604051908082528060200260200182016040528015610d31578160200160208202803683370190505b50905060005b8451811015610da957610d7c858281518110610d5557610d55613218565b6020026020010151858381518110610d6f57610d6f613218565b602002602001015161061c565b828281518110610d8e57610d8e613218565b6020908102919091010152610da281613244565b9050610d37565b509392505050565b306001600160a01b037f0000000000000000000000000000000000000000000000000000000000000000161415610dfa5760405162461bcd60e51b81526004016106849061325f565b7f00000000000000000000000000000000000000000000000000000000000000006001600160a01b0316610e436000805160206137f1833981519152546001600160a01b031690565b6001600160a01b031614610e695760405162461bcd60e51b8152600401610684906132ab565b610e7282611893565b610a52828260016118bd565b6000306001600160a01b037f00000000000000000000000000000000000000000000000000000000000000001614610f1e5760405162461bcd60e51b815260206004820152603860248201527f555550535570677261646561626c653a206d757374206e6f742062652063616c60448201527f6c6564207468726f7567682064656c656761746563616c6c00000000000000006064820152608401610684565b506000805160206137f18339815191525b90565b336001600160a01b03861614610f825760405162461bcd60e51b81526020600482015260156024820152741b9bdd081bdddb995c881bd9881d1a1a5cc81b999d605a1b6044820152606401610684565b610ff08585858080602002602001604051908101604052809392919081815260200183836020028082843760009201919091525050604080516020808902828101820190935288825290935088925087918291850190849080828437600092019190915250611a2892505050565b5050505050565b6033546001600160a01b031633146110215760405162461bcd60e51b815260040161068490613162565b61102b6000611ba7565b565b600091825261012d602090815260408084206001600160a01b0393909316845291905290205460ff1690565b610a52338383611bf9565b61107c6000805160206137d18339815191523361102d565b6110985760405162461bcd60e51b8152600401610684906132f7565b6110b385858560405180602001604052806000815250611cda565b6001600160a01b0385166000908152610161602052604090206110d690856116c2565b8015610ff0576000848152610160602052604090206109a49083836128aa565b600082815261012d60205260409020600101546111138133611740565b6109d3838361182b565b6111356000805160206137d18339815191523361102d565b6111515760405162461bcd60e51b8152600401610684906132f7565b6111cd8585858080602002602001604051908101604052809392919081815260200183836020028082843760009201919091525050604080516020808902828101820190935288825290935088925087918291850190849080828437600092018290525060408051602081019091529081529250611dac915050565b60005b838110156109a45760008585838181106111ec576111ec613218565b9050602002013590506112246101616000896001600160a01b03166001600160a01b03168152602001908152602001600020826116c2565b5061122e81613244565b90506111d0565b6001600160a01b0385163314806112515750611251853361053a565b6112af5760405162461bcd60e51b815260206004820152602960248201527f455243313135353a2063616c6c6572206973206e6f74206f776e6572206e6f7260448201526808185c1c1c9bdd995960ba1b6064820152608401610684565b6112bc8585858585611ef8565b6001600160a01b038416600090815261016160205260409020610ff090846116c2565b6033546001600160a01b031633146113095760405162461bcd60e51b815260040161068490613162565b6001600160a01b03811661136e5760405162461bcd60e51b815260206004820152602660248201527f4f776e61626c653a206e6577206f776e657220697320746865207a65726f206160448201526564647265737360d01b6064820152608401610684565b610b3381611ba7565b336001600160a01b038416146113c75760405162461bcd60e51b81526020600482015260156024820152741b9bdd081bdddb995c881bd9881d1a1a5cc81b999d605a1b6044820152606401610684565b6109d3838383612019565b600054610100900460ff166113ed5760005460ff16156113f1565b303b155b6114545760405162461bcd60e51b815260206004820152602e60248201527f496e697469616c697a61626c653a20636f6e747261637420697320616c72656160448201526d191e481a5b9a5d1a585b1a5e995960921b6064820152608401610684565b600054610100900460ff16158015611476576000805461ffff19166101011790555b61147f8261211f565b61148761214f565b61148f61217e565b61149a6000336121a5565b6114b26000805160206137d1833981519152336121a5565b6114dc7ffc62fea6a5e4cccf0e06db6becc35bd2d235b84b498198c31e38279b88a69439336121a5565b81516114f09061015f90602085019061292e565b508015610a52576000805461ff00191690555050565b60006001600160e01b03198216637965db0b60e01b14806106c057506106c0826121af565b815183511461154c5760405162461bcd60e51b815260040161068490613342565b6001600160a01b0384166115725760405162461bcd60e51b81526004016106849061338a565b3360005b845181101561165c57600085828151811061159357611593613218565b6020026020010151905060008583815181106115b1576115b1613218565b60209081029190910181015160008481526097835260408082206001600160a01b038e1683529093529190912054909150818110156116025760405162461bcd60e51b8152600401610684906133cf565b60008381526097602090815260408083206001600160a01b038e8116855292528083208585039055908b16825281208054849290611641908490613419565b925050819055505050508061165590613244565b9050611576565b50846001600160a01b0316866001600160a01b0316826001600160a01b03167f4a39dc06d4c0dbc64b70af90fd698a233a518aa5d07e595d983b8c0526c8f7fb87876040516116ac929190612db6565b60405180910390a46109a48187878787876121ff565b81546116e05781546001810183556000928352602090922090910155565b60005b825481101561172757818382815481106116ff576116ff613218565b9060005260206000200154141561171557505050565b8061171f81613244565b9150506116e3565b5081546001810183556000928352602090922090910155565b61174a828261102d565b610a5257611762816001600160a01b0316601461235b565b61176d83602061235b565b60405160200161177e929190613431565b60408051601f198184030181529082905262461bcd60e51b825261068491600401612b25565b6117ae828261102d565b610a5257600082815261012d602090815260408083206001600160a01b03851684529091529020805460ff191660011790556117e73390565b6001600160a01b0316816001600160a01b0316837f2f8788117e7eff1d82e926ec794901d17c78024a50270940304540a733656f0d60405160405180910390a45050565b611835828261102d565b15610a5257600082815261012d602090815260408083206001600160a01b0385168085529252808320805460ff1916905551339285917ff6391f5c32d9c69d2a47ea670b442974b53935d1edc7fd64eb21e047a839171b9190a45050565b6033546001600160a01b03163314610b335760405162461bcd60e51b815260040161068490613162565b7f4910fdfa16fed3260ed0e7147f7cc6da11a60208b5b9406d12a635614ffd91435460ff16156118f0576109d3836124fd565b826001600160a01b03166352d1902d6040518163ffffffff1660e01b8152600401602060405180830381865afa92505050801561194a575060408051601f3d908101601f19168201909252611947918101906134a6565b60015b6119ad5760405162461bcd60e51b815260206004820152602e60248201527f45524331393637557067726164653a206e657720696d706c656d656e7461746960448201526d6f6e206973206e6f74205555505360901b6064820152608401610684565b6000805160206137f18339815191528114611a1c5760405162461bcd60e51b815260206004820152602960248201527f45524331393637557067726164653a20756e737570706f727465642070726f786044820152681a58589b195555525160ba1b6064820152608401610684565b506109d3838383612599565b6001600160a01b038316611a4e5760405162461bcd60e51b8152600401610684906134bf565b8051825114611a6f5760405162461bcd60e51b815260040161068490613342565b604080516020810190915260009081905233905b8351811015611b48576000848281518110611aa057611aa0613218565b602002602001015190506000848381518110611abe57611abe613218565b60209081029190910181015160008481526097835260408082206001600160a01b038c168352909352919091205490915081811015611b0f5760405162461bcd60e51b815260040161068490613502565b60009283526097602090815260408085206001600160a01b038b1686529091529092209103905580611b4081613244565b915050611a83565b5060006001600160a01b0316846001600160a01b0316826001600160a01b03167f4a39dc06d4c0dbc64b70af90fd698a233a518aa5d07e595d983b8c0526c8f7fb8686604051611b99929190612db6565b60405180910390a450505050565b603380546001600160a01b038381166001600160a01b0319831681179093556040519116919082907f8be0079c531659141344cd1fd0a4f28419497f9722a3daafe3b4186f6b6457e090600090a35050565b816001600160a01b0316836001600160a01b03161415611c6d5760405162461bcd60e51b815260206004820152602960248201527f455243313135353a2073657474696e6720617070726f76616c20737461747573604482015268103337b91039b2b63360b91b6064820152608401610684565b6001600160a01b03838116600081815260986020908152604080832094871680845294825291829020805460ff191686151590811790915591519182527f17307eab39ab6107e8899845ad3d59bd9653f200f220920489ca2b5937696c31910160405180910390a3505050565b6001600160a01b038416611d005760405162461bcd60e51b815260040161068490613546565b33611d1a81600087611d11886125c4565b610ff0886125c4565b60008481526097602090815260408083206001600160a01b038916845290915281208054859290611d4c908490613419565b909155505060408051858152602081018590526001600160a01b0380881692600092918516917fc3d58168c5ae7397731d063d5bbf3d657854427343f4c083240f7aacaa2d0f62910160405180910390a4610ff08160008787878761260f565b6001600160a01b038416611dd25760405162461bcd60e51b815260040161068490613546565b8151835114611df35760405162461bcd60e51b815260040161068490613342565b3360005b8451811015611e9057838181518110611e1257611e12613218565b602002602001015160976000878481518110611e3057611e30613218565b602002602001015181526020019081526020016000206000886001600160a01b03166001600160a01b031681526020019081526020016000206000828254611e789190613419565b90915550819050611e8881613244565b915050611df7565b50846001600160a01b031660006001600160a01b0316826001600160a01b03167f4a39dc06d4c0dbc64b70af90fd698a233a518aa5d07e595d983b8c0526c8f7fb8787604051611ee1929190612db6565b60405180910390a4610ff0816000878787876121ff565b6001600160a01b038416611f1e5760405162461bcd60e51b81526004016106849061338a565b33611f2e818787611d11886125c4565b60008481526097602090815260408083206001600160a01b038a16845290915290205483811015611f715760405162461bcd60e51b8152600401610684906133cf565b60008581526097602090815260408083206001600160a01b038b8116855292528083208785039055908816825281208054869290611fb0908490613419565b909155505060408051868152602081018690526001600160a01b03808916928a821692918616917fc3d58168c5ae7397731d063d5bbf3d657854427343f4c083240f7aacaa2d0f62910160405180910390a461201082888888888861260f565b50505050505050565b6001600160a01b03831661203f5760405162461bcd60e51b8152600401610684906134bf565b3361206f81856000612050876125c4565b612059876125c4565b5050604080516020810190915260009052505050565b60008381526097602090815260408083206001600160a01b0388168452909152902054828110156120b25760405162461bcd60e51b815260040161068490613502565b60008481526097602090815260408083206001600160a01b03898116808652918452828520888703905582518981529384018890529092908616917fc3d58168c5ae7397731d063d5bbf3d657854427343f4c083240f7aacaa2d0f62910160405180910390a45050505050565b600054610100900460ff166121465760405162461bcd60e51b815260040161068490613587565b610b33816126ca565b600054610100900460ff166121765760405162461bcd60e51b815260040161068490613587565b61102b6126fa565b600054610100900460ff1661102b5760405162461bcd60e51b815260040161068490613587565b610a5282826117a4565b60006001600160e01b03198216636cdb3d1360e11b14806121e057506001600160e01b031982166303a24d0760e21b145b806106c057506301ffc9a760e01b6001600160e01b03198316146106c0565b6001600160a01b0384163b156109a45760405163bc197c8160e01b81526001600160a01b0385169063bc197c819061224390899089908890889088906004016135d2565b6020604051808303816000875af192505050801561227e575060408051601f3d908101601f1916820190925261227b91810190613630565b60015b61232b5761228a61364d565b806308c379a014156122c4575061229f613668565b806122aa57506122c6565b8060405162461bcd60e51b81526004016106849190612b25565b505b60405162461bcd60e51b815260206004820152603460248201527f455243313135353a207472616e7366657220746f206e6f6e20455243313135356044820152732932b1b2b4bb32b91034b6b83632b6b2b73a32b960611b6064820152608401610684565b6001600160e01b0319811663bc197c8160e01b146120105760405162461bcd60e51b8152600401610684906136f1565b6060600061236a836002613739565b612375906002613419565b6001600160401b0381111561238c5761238c612b38565b6040519080825280601f01601f1916602001820160405280156123b6576020820181803683370190505b509050600360fc1b816000815181106123d1576123d1613218565b60200101906001600160f81b031916908160001a905350600f60fb1b8160018151811061240057612400613218565b60200101906001600160f81b031916908160001a9053506000612424846002613739565b61242f906001613419565b90505b60018111156124a7576f181899199a1a9b1b9c1cb0b131b232b360811b85600f166010811061246357612463613218565b1a60f81b82828151811061247957612479613218565b60200101906001600160f81b031916908160001a90535060049490941c936124a081613758565b9050612432565b5083156124f65760405162461bcd60e51b815260206004820181905260248201527f537472696e67733a20686578206c656e67746820696e73756666696369656e746044820152606401610684565b9392505050565b6001600160a01b0381163b61256a5760405162461bcd60e51b815260206004820152602d60248201527f455243313936373a206e657720696d706c656d656e746174696f6e206973206e60448201526c1bdd08184818dbdb9d1c9858dd609a1b6064820152608401610684565b6000805160206137f183398151915280546001600160a01b0319166001600160a01b0392909216919091179055565b6125a28361272a565b6000825111806125af5750805b156109d3576125be838361276a565b50505050565b604080516001808252818301909252606091600091906020808301908036833701905050905082816000815181106125fe576125fe613218565b602090810291909101015292915050565b6001600160a01b0384163b156109a45760405163f23a6e6160e01b81526001600160a01b0385169063f23a6e6190612653908990899088908890889060040161376f565b6020604051808303816000875af192505050801561268e575060408051601f3d908101601f1916820190925261268b91810190613630565b60015b61269a5761228a61364d565b6001600160e01b0319811663f23a6e6160e01b146120105760405162461bcd60e51b8152600401610684906136f1565b600054610100900460ff166126f15760405162461bcd60e51b815260040161068490613587565b610b338161285e565b600054610100900460ff166127215760405162461bcd60e51b815260040161068490613587565b61102b33611ba7565b612733816124fd565b6040516001600160a01b038216907fbc7cd75a20ee27fd9adebab32041f755214dbc6bffa90cc0225b39da2e5c2d3b90600090a250565b60606001600160a01b0383163b6127d25760405162461bcd60e51b815260206004820152602660248201527f416464726573733a2064656c65676174652063616c6c20746f206e6f6e2d636f6044820152651b9d1c9858dd60d21b6064820152608401610684565b600080846001600160a01b0316846040516127ed91906137b4565b600060405180830381855af49150503d8060008114612828576040519150601f19603f3d011682016040523d82523d6000602084013e61282d565b606091505b5091509150612855828260405180606001604052806027815260200161381160279139612871565b95945050505050565b8051610a5290609990602084019061292e565b606083156128805750816124f6565b8251156128905782518084602001fd5b8160405162461bcd60e51b81526004016106849190612b25565b8280546128b690613197565b90600052602060002090601f0160209004810192826128d8576000855561291e565b82601f106128f15782800160ff1982351617855561291e565b8280016001018555821561291e579182015b8281111561291e578235825591602001919060010190612903565b5061292a9291506129a2565b5090565b82805461293a90613197565b90600052602060002090601f01602090048101928261295c576000855561291e565b82601f1061297557805160ff191683800117855561291e565b8280016001018555821561291e579182015b8281111561291e578251825591602001919060010190612987565b5b8082111561292a57600081556001016129a3565b80356001600160a01b03811681146108a557600080fd5b600080604083850312156129e157600080fd5b6129ea836129b7565b946020939093013593505050565b6001600160e01b031981168114610b3357600080fd5b600060208284031215612a2057600080fd5b81356124f6816129f8565b60008083601f840112612a3d57600080fd5b5081356001600160401b03811115612a5457600080fd5b602083019150836020828501011115612a6c57600080fd5b9250929050565b60008060208385031215612a8657600080fd5b82356001600160401b03811115612a9c57600080fd5b612aa885828601612a2b565b90969095509350505050565b600060208284031215612ac657600080fd5b5035919050565b60005b83811015612ae8578181015183820152602001612ad0565b838111156125be5750506000910152565b60008151808452612b11816020860160208601612acd565b601f01601f19169290920160200192915050565b6020815260006124f66020830184612af9565b634e487b7160e01b600052604160045260246000fd5b601f8201601f191681016001600160401b0381118282101715612b7357612b73612b38565b6040525050565b60006001600160401b03821115612b9357612b93612b38565b5060051b60200190565b600082601f830112612bae57600080fd5b81356020612bbb82612b7a565b604051612bc88282612b4e565b83815260059390931b8501820192828101915086841115612be857600080fd5b8286015b84811015612c035780358352918301918301612bec565b509695505050505050565b60006001600160401b03831115612c2757612c27612b38565b604051612c3e601f8501601f191660200182612b4e565b809150838152848484011115612c5357600080fd5b83836020830137600060208583010152509392505050565b600082601f830112612c7c57600080fd5b6124f683833560208501612c0e565b600080600080600060a08688031215612ca357600080fd5b612cac866129b7565b9450612cba602087016129b7565b935060408601356001600160401b0380821115612cd657600080fd5b612ce289838a01612b9d565b94506060880135915080821115612cf857600080fd5b612d0489838a01612b9d565b93506080880135915080821115612d1a57600080fd5b50612d2788828901612c6b565b9150509295509295909350565b60008060408385031215612d4757600080fd5b82359150612d57602084016129b7565b90509250929050565b600060208284031215612d7257600080fd5b6124f6826129b7565b600081518084526020808501945080840160005b83811015612dab57815187529582019590820190600101612d8f565b509495945050505050565b604081526000612dc96040830185612d7b565b82810360208401526128558185612d7b565b60008060408385031215612dee57600080fd5b82356001600160401b0380821115612e0557600080fd5b818501915085601f830112612e1957600080fd5b81356020612e2682612b7a565b604051612e338282612b4e565b83815260059390931b8501820192828101915089841115612e5357600080fd5b948201945b83861015612e7857612e69866129b7565b82529482019490820190612e58565b96505086013592505080821115612e8e57600080fd5b50612e9b85828601612b9d565b9150509250929050565b6020815260006124f66020830184612d7b565b60008060408385031215612ecb57600080fd5b612ed4836129b7565b915060208301356001600160401b03811115612eef57600080fd5b612e9b85828601612c6b565b60008083601f840112612f0d57600080fd5b5081356001600160401b03811115612f2457600080fd5b6020830191508360208260051b8501011115612a6c57600080fd5b600080600080600060608688031215612f5757600080fd5b612f60866129b7565b945060208601356001600160401b0380821115612f7c57600080fd5b612f8889838a01612efb565b90965094506040880135915080821115612fa157600080fd5b50612fae88828901612efb565b969995985093965092949392505050565b60008060408385031215612fd257600080fd5b612fdb836129b7565b915060208301358015158114612ff057600080fd5b809150509250929050565b60008060008060006080868803121561301357600080fd5b61301c866129b7565b9450602086013593506040860135925060608601356001600160401b0381111561304557600080fd5b612fae88828901612a2b565b6000806040838503121561306457600080fd5b61306d836129b7565b9150612d57602084016129b7565b600080600080600060a0868803121561309357600080fd5b61309c866129b7565b94506130aa602087016129b7565b9350604086013592506060860135915060808601356001600160401b038111156130d357600080fd5b612d2788828901612c6b565b6000806000606084860312156130f457600080fd5b6130fd846129b7565b95602085013595506040909401359392505050565b60006020828403121561312457600080fd5b81356001600160401b0381111561313a57600080fd5b8201601f8101841361314b57600080fd5b61315a84823560208401612c0e565b949350505050565b6020808252818101527f4f776e61626c653a2063616c6c6572206973206e6f7420746865206f776e6572604082015260600190565b600181811c908216806131ab57607f821691505b602082108114156131cc57634e487b7160e01b600052602260045260246000fd5b50919050565b6040815260006131e56040830186612af9565b8281036020840152838152838560208301376000602085830101526020601f19601f860116820101915050949350505050565b634e487b7160e01b600052603260045260246000fd5b634e487b7160e01b600052601160045260246000fd5b60006000198214156132585761325861322e565b5060010190565b6020808252602c908201527f46756e6374696f6e206d7573742062652063616c6c6564207468726f7567682060408201526b19195b1959d85d1958d85b1b60a21b606082015260800190565b6020808252602c908201527f46756e6374696f6e206d7573742062652063616c6c6564207468726f7567682060408201526b6163746976652070726f787960a01b606082015260800190565b6020808252602b908201527f526f6c65733a2063616c6c657220646f6573206e6f742068617665207468652060408201526a4d494e54455220726f6c6560a81b606082015260800190565b60208082526028908201527f455243313135353a2069647320616e6420616d6f756e7473206c656e677468206040820152670dad2e6dac2e8c6d60c31b606082015260800190565b60208082526025908201527f455243313135353a207472616e7366657220746f20746865207a65726f206164604082015264647265737360d81b606082015260800190565b6020808252602a908201527f455243313135353a20696e73756666696369656e742062616c616e636520666f60408201526939103a3930b739b332b960b11b606082015260800190565b6000821982111561342c5761342c61322e565b500190565b7f416363657373436f6e74726f6c3a206163636f756e7420000000000000000000815260008351613469816017850160208801612acd565b7001034b99036b4b9b9b4b733903937b6329607d1b601791840191820152835161349a816028840160208801612acd565b01602801949350505050565b6000602082840312156134b857600080fd5b5051919050565b60208082526023908201527f455243313135353a206275726e2066726f6d20746865207a65726f206164647260408201526265737360e81b606082015260800190565b60208082526024908201527f455243313135353a206275726e20616d6f756e7420657863656564732062616c604082015263616e636560e01b606082015260800190565b60208082526021908201527f455243313135353a206d696e7420746f20746865207a65726f206164647265736040820152607360f81b606082015260800190565b6020808252602b908201527f496e697469616c697a61626c653a20636f6e7472616374206973206e6f74206960408201526a6e697469616c697a696e6760a81b606082015260800190565b6001600160a01b0386811682528516602082015260a0604082018190526000906135fe90830186612d7b565b82810360608401526136108186612d7b565b905082810360808401526136248185612af9565b98975050505050505050565b60006020828403121561364257600080fd5b81516124f6816129f8565b600060033d1115610f2f5760046000803e5060005160e01c90565b600060443d10156136765790565b6040516003193d81016004833e81513d6001600160401b0381602484011181841117156136a557505050505090565b82850191508151818111156136bd5750505050505090565b843d87010160208285010111156136d75750505050505090565b6136e660208286010187612b4e565b509095945050505050565b60208082526028908201527f455243313135353a204552433131353552656365697665722072656a656374656040820152676420746f6b656e7360c01b606082015260800190565b60008160001904831182151516156137535761375361322e565b500290565b6000816137675761376761322e565b506000190190565b6001600160a01b03868116825285166020820152604081018490526060810183905260a0608082018190526000906137a990830184612af9565b979650505050505050565b600082516137c6818460208701612acd565b919091019291505056fe84b9b0103c29b155cfb04ab924f78fab34313f21be444e0dcd11c3094b5e3c5c360894a13ba1a3210667c828492db98dca3e2076cc3735a920a3ca505d382bbc416464726573733a206c6f772d6c6576656c2064656c65676174652063616c6c206661696c6564a26469706673582212204fa0114227d3cefd273cfd70bfbd7a97cf348ab3e88f000c82a87ddcc52ea6fe64736f6c634300080b0033",
  "immutableReferences": {
    "1189": [
      {
        "length": 32,
        "start": 2657
      },
      {
        "length": 32,
        "start": 2721
      },
      {
        "length": 32,
        "start": 3516
      },
      {
        "length": 32,
        "start": 3580
      },
      {
        "length": 32,
        "start": 3723
      }
    ]
  },
  "source": "// SPDX-License-Identifier: MIT\npragma solidity 0.8.11;\n\nimport \"@openzeppelin/contracts-upgradeable/token/ERC1155/ERC1155Upgradeable.sol\";\nimport \"@openzeppelin/contracts-upgradeable/access/OwnableUpgradeable.sol\";\nimport \"@openzeppelin/contracts-upgradeable/proxy/utils/Initializable.sol\";\nimport \"@openzeppelin/contracts-upgradeable/proxy/utils/UUPSUpgradeable.sol\";\nimport \"./kollect-roles-v1.sol\";\n\ncontract KollectNFT_V1 is \n    Initializable,\n    OwnableUpgradeable,\n    ERC1155Upgradeable,\n    UUPSUpgradeable,\n    KollectRolesUpgradeable\n{\n    string private _uri;\n    mapping (uint256 => string) private _uris;\n    mapping (address => uint256[]) private _addressToTokens;\n\n    event URIChanged(string prev, string current);\n\n    // would replace _msgSender() with multisigContractAddress (Gnosis Safe)\n    // function initialize(string memory baseUri_, address memory multisigContractAddress) public initializer {\n    function initialize(string memory baseUri_) public initializer {\n        __ERC1155_init(baseUri_);\n        __Ownable_init();\n        __UUPSUpgradeable_init();\n        _setupRole(DEFAULT_ADMIN_ROLE, _msgSender());\n        _setupRole(MINTER_ROLE, _msgSender());\n        _setupRole(BURNER_ROLE, _msgSender());\n\n        _uri = baseUri_;\n    }\n    \n    function arrayPush(uint[] storage input, uint element) internal {\n        if (input.length == 0) {\n            input.push(element);\n        } else {\n            for (uint i = 0; i < input.length; i++)\n            {\n                if (input[i] == element) {\n                    return;\n                }\n            }\n            \n            input.push(element);\n        }\n    }\n    \n    function supportsInterface(bytes4 interfaceId) public view virtual override(ERC1155Upgradeable, AccessControlUpgradeable) returns (bool) {\n        return super.supportsInterface(interfaceId);\n    }\n\n    function safeTransferFrom(\n        address from,\n        address to,\n        uint256 id,\n        uint256 amount,\n        bytes memory data\n    ) public override {\n        require(\n            from == _msgSender() || isApprovedForAll(from, _msgSender()),\n            \"ERC1155: caller is not owner nor approved\"\n        );\n        _safeTransferFrom(from, to, id, amount, data);\n        arrayPush(_addressToTokens[to], id);\n    }\n\n    function safeBatchTransferFrom(\n        address from,\n        address to,\n        uint256[] memory ids,\n        uint256[] memory amounts,\n        bytes memory data\n    ) public override {\n        require(\n            from == _msgSender() || isApprovedForAll(from, _msgSender()),\n            \"ERC1155: transfer caller is not owner nor approved\"\n        );\n        _safeBatchTransferFrom(from, to, ids, amounts, data);\n        \n        for (uint256 i = 0; i < ids.length; ++i) {\n            uint256 id = ids[i];\n            arrayPush(_addressToTokens[to], id);\n        }\n    }\n    \n    function uri(uint256 id) public view override returns (string memory) {\n        if (bytes(_uris[id]).length != 0) return _uris[id];\n        else return _uri;\n    }\n    \n    function getTokensAndAmounts(address account) public view returns (uint256[] memory, uint256[] memory) {\n        uint length = _addressToTokens[account].length;\n        uint256[] memory ids = new uint256[](length);\n        uint256[] memory amounts = new uint256[](length);\n        for (uint i = 0; i < length; i++) {\n            uint id = _addressToTokens[account][i];\n            ids[i] = id;\n            amounts[i] = balanceOf(account, id);\n        }\n        return (ids, amounts);\n    }\n\n    function mint(address account, uint256 id, uint256 amount, string calldata newUri) public onlyMinter {\n        _mint(account, id, amount, \"\");\n        arrayPush(_addressToTokens[account], id);\n        if (bytes(newUri).length != 0) {\n            _uris[id] = newUri;\n        }\n    }\n    \n    function mintBatch(address account, uint256[] calldata ids, uint256[] calldata amounts) public onlyMinter {\n        _mintBatch(account, ids, amounts, \"\");\n        for (uint256 i = 0; i < ids.length; ++i) {\n            uint256 id = ids[i];\n            arrayPush(_addressToTokens[account], id);\n        }\n    }\n    \n    function burn(address account, uint256 id, uint256 amount) public {\n        require(_msgSender() == account, \"not owner of this nft\");\n        _burn(account, id, amount);\n    }\n    \n    function burnBatch(address account, uint256[] calldata ids, uint256[] calldata amounts) public {\n        require(_msgSender() == account, \"not owner of this nft\");\n        _burnBatch(account, ids, amounts);\n    }\n    \n    function setURI(string calldata uri_) public onlyOwner {\n        string memory prev = _uri;\n        _uri = uri_;\n        emit URIChanged(prev, uri_);\n    }\n\n    function _authorizeUpgrade(address newImplementation) internal override onlyOwner {}\n}",
  "sourcePath": "D:\\Projects\\NFT-Projects\\kollect-project\\kollect-truffle\\upgradable-contracts\\Truffle\\contracts\\kollect-contracts\\kollect-1155-v1.sol",
  "compiler": {
    "name": "solc",
    "version": "0.8.11+commit.d7f03943.Emscripten.clang"
  },
  "schemaVersion": "3.4.5",
  "updatedAt": "2022-04-06T18:40:49.074Z",
  "devdoc": {
    "kind": "dev",
    "methods": {
      "balanceOf(address,uint256)": {
        "details": "See {IERC1155-balanceOf}. Requirements: - `account` cannot be the zero address."
      },
      "balanceOfBatch(address[],uint256[])": {
        "details": "See {IERC1155-balanceOfBatch}. Requirements: - `accounts` and `ids` must have the same length."
      },
      "getRoleAdmin(bytes32)": {
        "details": "Returns the admin role that controls `role`. See {grantRole} and {revokeRole}. To change a role's admin, use {_setRoleAdmin}."
      },
      "grantRole(bytes32,address)": {
        "details": "Grants `role` to `account`. If `account` had not been already granted `role`, emits a {RoleGranted} event. Requirements: - the caller must have ``role``'s admin role."
      },
      "hasRole(bytes32,address)": {
        "details": "Returns `true` if `account` has been granted `role`."
      },
      "isApprovedForAll(address,address)": {
        "details": "See {IERC1155-isApprovedForAll}."
      },
      "owner()": {
        "details": "Returns the address of the current owner."
      },
      "proxiableUUID()": {
        "details": "Implementation of the ERC1822 {proxiableUUID} function. This returns the storage slot used by the implementation. It is used to validate that the this implementation remains valid after an upgrade. IMPORTANT: A proxy pointing at a proxiable contract should not be considered proxiable itself, because this risks bricking a proxy that upgrades to it, by delegating to itself until out of gas. Thus it is critical that this function revert if invoked through a proxy. This is guaranteed by the `notDelegated` modifier."
      },
      "renounceOwnership()": {
        "details": "Leaves the contract without owner. It will not be possible to call `onlyOwner` functions anymore. Can only be called by the current owner. NOTE: Renouncing ownership will leave the contract without an owner, thereby removing any functionality that is only available to the owner."
      },
      "renounceRole(bytes32,address)": {
        "details": "Revokes `role` from the calling account. Roles are often managed via {grantRole} and {revokeRole}: this function's purpose is to provide a mechanism for accounts to lose their privileges if they are compromised (such as when a trusted device is misplaced). If the calling account had been revoked `role`, emits a {RoleRevoked} event. Requirements: - the caller must be `account`."
      },
      "revokeRole(bytes32,address)": {
        "details": "Revokes `role` from `account`. If `account` had been granted `role`, emits a {RoleRevoked} event. Requirements: - the caller must have ``role``'s admin role."
      },
      "safeBatchTransferFrom(address,address,uint256[],uint256[],bytes)": {
        "details": "See {IERC1155-safeBatchTransferFrom}."
      },
      "safeTransferFrom(address,address,uint256,uint256,bytes)": {
        "details": "See {IERC1155-safeTransferFrom}."
      },
      "setApprovalForAll(address,bool)": {
        "details": "See {IERC1155-setApprovalForAll}."
      },
      "transferOwnership(address)": {
        "details": "Transfers ownership of the contract to a new account (`newOwner`). Can only be called by the current owner."
      },
      "upgradeTo(address)": {
        "details": "Upgrade the implementation of the proxy to `newImplementation`. Calls {_authorizeUpgrade}. Emits an {Upgraded} event."
      },
      "upgradeToAndCall(address,bytes)": {
        "details": "Upgrade the implementation of the proxy to `newImplementation`, and subsequently execute the function call encoded in `data`. Calls {_authorizeUpgrade}. Emits an {Upgraded} event."
      }
    },
    "version": 1
  },
  "userdoc": {
    "kind": "user",
    "methods": {},
    "version": 1
  }
}